{
  "_format": "hh-sol-artifact-1",
  "contractName": "FrostyRewards",
  "sourceName": "contracts/FrostyRewards.sol",
  "abi": [
    {
      "inputs": [
        {
          "internalType": "contract FRST",
          "name": "_rewardsToken",
          "type": "address"
        },
        {
          "internalType": "contract FrostyAccessControls",
          "name": "_accessControls",
          "type": "address"
        },
        {
          "internalType": "contract FrostyStaking",
          "name": "_genesisStaking",
          "type": "address"
        },
        {
          "internalType": "contract FrostyStaking",
          "name": "_parentStaking",
          "type": "address"
        },
        {
          "internalType": "contract FrostyStaking",
          "name": "_lpStaking",
          "type": "address"
        },
        {
          "internalType": "uint256",
          "name": "_startTime",
          "type": "uint256"
        },
        {
          "internalType": "uint256",
          "name": "_lastRewardTime",
          "type": "uint256"
        },
        {
          "internalType": "uint256",
          "name": "_genesisRewardsPaid",
          "type": "uint256"
        },
        {
          "internalType": "uint256",
          "name": "_parentRewardsPaid",
          "type": "uint256"
        },
        {
          "internalType": "uint256",
          "name": "_lpRewardsPaid",
          "type": "uint256"
        }
      ],
      "stateMutability": "nonpayable",
      "type": "constructor"
    },
    {
      "anonymous": false,
      "inputs": [
        {
          "indexed": true,
          "internalType": "address",
          "name": "token",
          "type": "address"
        },
        {
          "indexed": false,
          "internalType": "uint256",
          "name": "amount",
          "type": "uint256"
        }
      ],
      "name": "Recovered",
      "type": "event"
    },
    {
      "anonymous": false,
      "inputs": [
        {
          "indexed": true,
          "internalType": "address",
          "name": "addr",
          "type": "address"
        },
        {
          "indexed": false,
          "internalType": "uint256",
          "name": "reward",
          "type": "uint256"
        }
      ],
      "name": "RewardAdded",
      "type": "event"
    },
    {
      "anonymous": false,
      "inputs": [
        {
          "indexed": true,
          "internalType": "address",
          "name": "addr",
          "type": "address"
        },
        {
          "indexed": false,
          "internalType": "uint256",
          "name": "reward",
          "type": "uint256"
        }
      ],
      "name": "RewardDistributed",
      "type": "event"
    },
    {
      "inputs": [
        {
          "internalType": "uint256",
          "name": "_from",
          "type": "uint256"
        },
        {
          "internalType": "uint256",
          "name": "_to",
          "type": "uint256"
        }
      ],
      "name": "LPRewards",
      "outputs": [
        {
          "internalType": "uint256",
          "name": "rewards",
          "type": "uint256"
        }
      ],
      "stateMutability": "view",
      "type": "function"
    },
    {
      "inputs": [],
      "name": "accessControls",
      "outputs": [
        {
          "internalType": "contract FrostyAccessControls",
          "name": "",
          "type": "address"
        }
      ],
      "stateMutability": "view",
      "type": "function"
    },
    {
      "inputs": [
        {
          "internalType": "address",
          "name": "pool",
          "type": "address"
        },
        {
          "internalType": "uint256[]",
          "name": "rewardWeeks",
          "type": "uint256[]"
        },
        {
          "internalType": "uint256[]",
          "name": "amounts",
          "type": "uint256[]"
        }
      ],
      "name": "bonusRewards",
      "outputs": [],
      "stateMutability": "nonpayable",
      "type": "function"
    },
    {
      "inputs": [
        {
          "internalType": "uint256",
          "name": "_from",
          "type": "uint256"
        },
        {
          "internalType": "uint256",
          "name": "_to",
          "type": "uint256"
        }
      ],
      "name": "genesisRewards",
      "outputs": [
        {
          "internalType": "uint256",
          "name": "rewards",
          "type": "uint256"
        }
      ],
      "stateMutability": "view",
      "type": "function"
    },
    {
      "inputs": [],
      "name": "genesisRewardsPaid",
      "outputs": [
        {
          "internalType": "uint256",
          "name": "",
          "type": "uint256"
        }
      ],
      "stateMutability": "view",
      "type": "function"
    },
    {
      "inputs": [],
      "name": "genesisStaking",
      "outputs": [
        {
          "internalType": "contract FrostyStaking",
          "name": "",
          "type": "address"
        }
      ],
      "stateMutability": "view",
      "type": "function"
    },
    {
      "inputs": [],
      "name": "getCurrentGenesisWtPoints",
      "outputs": [
        {
          "internalType": "uint256",
          "name": "",
          "type": "uint256"
        }
      ],
      "stateMutability": "view",
      "type": "function"
    },
    {
      "inputs": [],
      "name": "getCurrentLpWeightPoints",
      "outputs": [
        {
          "internalType": "uint256",
          "name": "",
          "type": "uint256"
        }
      ],
      "stateMutability": "view",
      "type": "function"
    },
    {
      "inputs": [],
      "name": "getCurrentParentWtPoints",
      "outputs": [
        {
          "internalType": "uint256",
          "name": "",
          "type": "uint256"
        }
      ],
      "stateMutability": "view",
      "type": "function"
    },
    {
      "inputs": [],
      "name": "getCurrentRewardWeek",
      "outputs": [
        {
          "internalType": "uint256",
          "name": "",
          "type": "uint256"
        }
      ],
      "stateMutability": "view",
      "type": "function"
    },
    {
      "inputs": [],
      "name": "getCurrentWeek",
      "outputs": [
        {
          "internalType": "uint256",
          "name": "",
          "type": "uint256"
        }
      ],
      "stateMutability": "view",
      "type": "function"
    },
    {
      "inputs": [],
      "name": "getEthPerFrst",
      "outputs": [
        {
          "internalType": "uint256",
          "name": "",
          "type": "uint256"
        }
      ],
      "stateMutability": "view",
      "type": "function"
    },
    {
      "inputs": [],
      "name": "getFrstPerEth",
      "outputs": [
        {
          "internalType": "uint256",
          "name": "",
          "type": "uint256"
        }
      ],
      "stateMutability": "view",
      "type": "function"
    },
    {
      "inputs": [],
      "name": "getGenesisDailyAPY",
      "outputs": [
        {
          "internalType": "uint256",
          "name": "",
          "type": "uint256"
        }
      ],
      "stateMutability": "view",
      "type": "function"
    },
    {
      "inputs": [],
      "name": "getGenesisStakedEthTotal",
      "outputs": [
        {
          "internalType": "uint256",
          "name": "",
          "type": "uint256"
        }
      ],
      "stateMutability": "view",
      "type": "function"
    },
    {
      "inputs": [],
      "name": "getLpDailyAPY",
      "outputs": [
        {
          "internalType": "uint256",
          "name": "",
          "type": "uint256"
        }
      ],
      "stateMutability": "view",
      "type": "function"
    },
    {
      "inputs": [],
      "name": "getLpStakedEthTotal",
      "outputs": [
        {
          "internalType": "uint256",
          "name": "",
          "type": "uint256"
        }
      ],
      "stateMutability": "view",
      "type": "function"
    },
    {
      "inputs": [],
      "name": "getParentDailyAPY",
      "outputs": [
        {
          "internalType": "uint256",
          "name": "",
          "type": "uint256"
        }
      ],
      "stateMutability": "view",
      "type": "function"
    },
    {
      "inputs": [],
      "name": "getParentStakedEthTotal",
      "outputs": [
        {
          "internalType": "uint256",
          "name": "",
          "type": "uint256"
        }
      ],
      "stateMutability": "view",
      "type": "function"
    },
    {
      "inputs": [],
      "name": "getTotalContributions",
      "outputs": [
        {
          "internalType": "uint256",
          "name": "",
          "type": "uint256"
        }
      ],
      "stateMutability": "view",
      "type": "function"
    },
    {
      "inputs": [],
      "name": "lastRewardTime",
      "outputs": [
        {
          "internalType": "uint256",
          "name": "",
          "type": "uint256"
        }
      ],
      "stateMutability": "view",
      "type": "function"
    },
    {
      "inputs": [],
      "name": "lpRewardsPaid",
      "outputs": [
        {
          "internalType": "uint256",
          "name": "",
          "type": "uint256"
        }
      ],
      "stateMutability": "view",
      "type": "function"
    },
    {
      "inputs": [],
      "name": "lpStaking",
      "outputs": [
        {
          "internalType": "contract FrostyStaking",
          "name": "",
          "type": "address"
        }
      ],
      "stateMutability": "view",
      "type": "function"
    },
    {
      "inputs": [
        {
          "internalType": "uint256",
          "name": "_from",
          "type": "uint256"
        },
        {
          "internalType": "uint256",
          "name": "_to",
          "type": "uint256"
        }
      ],
      "name": "parentRewards",
      "outputs": [
        {
          "internalType": "uint256",
          "name": "rewards",
          "type": "uint256"
        }
      ],
      "stateMutability": "view",
      "type": "function"
    },
    {
      "inputs": [],
      "name": "parentRewardsPaid",
      "outputs": [
        {
          "internalType": "uint256",
          "name": "",
          "type": "uint256"
        }
      ],
      "stateMutability": "view",
      "type": "function"
    },
    {
      "inputs": [],
      "name": "parentStaking",
      "outputs": [
        {
          "internalType": "contract FrostyStaking",
          "name": "",
          "type": "address"
        }
      ],
      "stateMutability": "view",
      "type": "function"
    },
    {
      "inputs": [
        {
          "internalType": "address",
          "name": "tokenAddress",
          "type": "address"
        },
        {
          "internalType": "uint256",
          "name": "tokenAmount",
          "type": "uint256"
        }
      ],
      "name": "recoverERC20",
      "outputs": [],
      "stateMutability": "nonpayable",
      "type": "function"
    },
    {
      "inputs": [],
      "name": "rewardsToken",
      "outputs": [
        {
          "internalType": "contract FRST",
          "name": "",
          "type": "address"
        }
      ],
      "stateMutability": "view",
      "type": "function"
    },
    {
      "inputs": [
        {
          "internalType": "address",
          "name": "_addr",
          "type": "address"
        }
      ],
      "name": "setGenesisStaking",
      "outputs": [],
      "stateMutability": "nonpayable",
      "type": "function"
    },
    {
      "inputs": [
        {
          "internalType": "uint256",
          "name": "week",
          "type": "uint256"
        },
        {
          "internalType": "uint256",
          "name": "gW",
          "type": "uint256"
        },
        {
          "internalType": "uint256",
          "name": "pW",
          "type": "uint256"
        },
        {
          "internalType": "uint256",
          "name": "mW",
          "type": "uint256"
        }
      ],
      "name": "setInitialPoints",
      "outputs": [],
      "stateMutability": "nonpayable",
      "type": "function"
    },
    {
      "inputs": [
        {
          "internalType": "address",
          "name": "_addr",
          "type": "address"
        }
      ],
      "name": "setLPStaking",
      "outputs": [],
      "stateMutability": "nonpayable",
      "type": "function"
    },
    {
      "inputs": [
        {
          "internalType": "address",
          "name": "_addr",
          "type": "address"
        }
      ],
      "name": "setParentStaking",
      "outputs": [],
      "stateMutability": "nonpayable",
      "type": "function"
    },
    {
      "inputs": [
        {
          "internalType": "uint256[]",
          "name": "rewardWeeks",
          "type": "uint256[]"
        },
        {
          "internalType": "uint256[]",
          "name": "amounts",
          "type": "uint256[]"
        }
      ],
      "name": "setRewards",
      "outputs": [],
      "stateMutability": "nonpayable",
      "type": "function"
    },
    {
      "inputs": [
        {
          "internalType": "uint256",
          "name": "_startTime",
          "type": "uint256"
        },
        {
          "internalType": "uint256",
          "name": "_lastRewardTime",
          "type": "uint256"
        }
      ],
      "name": "setStartTime",
      "outputs": [],
      "stateMutability": "nonpayable",
      "type": "function"
    },
    {
      "inputs": [],
      "name": "startTime",
      "outputs": [
        {
          "internalType": "uint256",
          "name": "",
          "type": "uint256"
        }
      ],
      "stateMutability": "view",
      "type": "function"
    },
    {
      "inputs": [],
      "name": "totalRewards",
      "outputs": [
        {
          "internalType": "uint256",
          "name": "",
          "type": "uint256"
        }
      ],
      "stateMutability": "view",
      "type": "function"
    },
    {
      "inputs": [],
      "name": "totalRewardsPaid",
      "outputs": [
        {
          "internalType": "uint256",
          "name": "",
          "type": "uint256"
        }
      ],
      "stateMutability": "view",
      "type": "function"
    },
    {
      "inputs": [],
      "name": "updateRewards",
      "outputs": [
        {
          "internalType": "bool",
          "name": "",
          "type": "bool"
        }
      ],
      "stateMutability": "nonpayable",
      "type": "function"
    },
    {
      "inputs": [
        {
          "internalType": "address",
          "name": "",
          "type": "address"
        },
        {
          "internalType": "uint256",
          "name": "",
          "type": "uint256"
        }
      ],
      "name": "weeklyBonusPerSecond",
      "outputs": [
        {
          "internalType": "uint256",
          "name": "",
          "type": "uint256"
        }
      ],
      "stateMutability": "view",
      "type": "function"
    },
    {
      "inputs": [
        {
          "internalType": "uint256",
          "name": "",
          "type": "uint256"
        }
      ],
      "name": "weeklyRewardsPerSecond",
      "outputs": [
        {
          "internalType": "uint256",
          "name": "",
          "type": "uint256"
        }
      ],
      "stateMutability": "view",
      "type": "function"
    },
    {
      "inputs": [
        {
          "internalType": "uint256",
          "name": "",
          "type": "uint256"
        }
      ],
      "name": "weeklyWeightPoints",
      "outputs": [
        {
          "internalType": "uint256",
          "name": "genesisWtPoints",
          "type": "uint256"
        },
        {
          "internalType": "uint256",
          "name": "parentWtPoints",
          "type": "uint256"
        },
        {
          "internalType": "uint256",
          "name": "lpWeightPoints",
          "type": "uint256"
        }
      ],
      "stateMutability": "view",
      "type": "function"
    }
  ],
  "bytecode": "0x608060405234801561001057600080fd5b50604051612dd8380380612dd8833981810160405261014081101561003457600080fd5b508051602082015160408301516060840151608085015160a086015160c087015160e088015161010089015161012090990151600080546001600160a01b03199081166001600160a01b039b8c161782556001805482169a8c169a909a17909955600280548a16988b1698909817909755600380548916968a1696909617909555600480549097169790931696909617909455600793909355600893909355600991909155600a92909255600b55612ce69081906100f290396000f3fe608060405234801561001057600080fd5b50600436106102535760003560e01c806378e97925116101465780639bf1401c116100c3578063b9b4aa7211610087578063b9b4aa7214610754578063ba278e081461075c578063bbcedb691461077f578063d1af0c7d14610787578063d97d191c1461078f578063ddf556d01461079757610253565b80639bf1401c146106cc578063aaa39fe4146106d4578063b3113b2a14610703578063b730087d14610729578063b818dd9b1461073157610253565b80639231cf741161010a5780639231cf741461056b578063938e781d14610573578063979db1c41461057b5780639888f6a51461069e57806399fa45d6146106a657610253565b806378e97925146103fc578063791e03cb146104045780637a29ac94146105375780637f926435146103b95780638980f11f1461053f57610253565b80633a22f7e7116101d45780636eb227ce116101985780636eb227ce146103b9578063748365ef146103c157806374958e35146103c95780637536a01f146103d1578063778456ba146103d957610253565b80633a22f7e71461032f5780633ab24049146103375780633e158b0c1461033f578063459c0ae41461035b5780634789e8de1461037e57610253565b80631b3792f81161021b5780631b3792f8146102d257806325b58cdd146102da57806333080e09146102e25780633398bcb2146102ea57806339fbce5a1461030757610253565b8063066919e5146102585780630b13a57f1461027c5780630e15561a14610296578063153085421461029e57806316989a21146102a6575b600080fd5b61026061079f565b604080516001600160a01b039092168252519081900360200190f35b6102846107ae565b60408051918252519081900360200190f35b610284610830565b61028461087d565b610284600480360360408110156102bc57600080fd5b506001600160a01b0381351690602001356108c2565b6102846108df565b6102846108e5565b61028461095e565b6102846004803603602081101561030057600080fd5b503561098f565b61032d6004803603602081101561031d57600080fd5b50356001600160a01b03166109a1565b005b610284610aab565b610284610af0565b610347610b1b565b604080519115158252519081900360200190f35b6102846004803603604081101561037157600080fd5b5080359060200135610d0a565b61039b6004803603602081101561039457600080fd5b5035610f8c565b60408051938452602084019290925282820152519081900360600190f35b610284610fad565b610260610fca565b610284610fd9565b610260610ffd565b610284600480360360408110156103ef57600080fd5b508035906020013561100c565b61028461124f565b61032d6004803603606081101561041a57600080fd5b6001600160a01b038235169190810190604081016020820135600160201b81111561044457600080fd5b82018360208201111561045657600080fd5b803590602001918460208302840111600160201b8311171561047757600080fd5b9190808060200260200160405190810160405280939291908181526020018383602002808284376000920191909152509295949360208101935035915050600160201b8111156104c657600080fd5b8201836020820111156104d857600080fd5b803590602001918460208302840111600160201b831117156104f957600080fd5b919080806020026020016040519081016040528093929190818152602001838360200280828437600092019190915250929550611255945050505050565b6102846113a8565b61032d6004803603604081101561055557600080fd5b506001600160a01b0381351690602001356113cc565b610284611589565b61028461158f565b61032d6004803603604081101561059157600080fd5b810190602081018135600160201b8111156105ab57600080fd5b8201836020820111156105bd57600080fd5b803590602001918460208302840111600160201b831117156105de57600080fd5b9190808060200260200160405190810160405280939291908181526020018383602002808284376000920191909152509295949360208101935035915050600160201b81111561062d57600080fd5b82018360208201111561063f57600080fd5b803590602001918460208302840111600160201b8311171561066057600080fd5b9190808060200260200160405190810160405280939291908181526020018383602002808284376000920191909152509295506115ba945050505050565b6102846116e0565b61032d600480360360208110156106bc57600080fd5b50356001600160a01b03166116e6565b6102606117f0565b61032d600480360360808110156106ea57600080fd5b50803590602081013590604081013590606001356117ff565b61032d6004803603602081101561071957600080fd5b50356001600160a01b03166118ce565b6102846119d8565b6102846004803603604081101561074757600080fd5b50803590602001356119de565b610284611c2d565b61032d6004803603604081101561077257600080fd5b5080359060200135611c58565b610284611d15565b610260611d43565b610284611d52565b610284611d83565b6003546001600160a01b031681565b6000600460009054906101000a90046001600160a01b03166001600160a01b031663aadee22d6040518163ffffffff1660e01b815260040160206040518083038186803b1580156107fe57600080fd5b505afa158015610812573d6000803e3d6000fd5b505050506040513d602081101561082857600080fd5b505190505b90565b60008061083f6008544261100c565b9050600061084f60085442610d0a565b9050600061085f600854426119de565b90506108758161086f8585611eda565b90611eda565b935050505090565b6003546040805163aadee22d60e01b815290516000926001600160a01b03169163aadee22d916004808301926020929190829003018186803b1580156107fe57600080fd5b600660209081526000928352604080842090915290825290205481565b600b5481565b6000806108f061087d565b90508061090157600091505061082d565b6000610910603c420342610d0a565b90506000610938670de0b6b3a764000061093261092b6113a8565b8590611f3b565b90611f94565b905061087583610932670de0b6b3a7640000610958856303220080611f3b565b90611f3b565b600080600761096f60075442611fd6565b8161097657fe5b046000908152600c602052604090206002015491505090565b60056020526000908152604090205481565b6001546040805163c395fcb360e01b815233600482015290516001600160a01b039092169163c395fcb391602480820192602092909190829003018186803b1580156109ec57600080fd5b505afa158015610a00573d6000803e3d6000fd5b505050506040513d6020811015610a1657600080fd5b5051610a535760405162461bcd60e51b8152600401808060200182810382526035815260200180612ad66035913960400191505060405180910390fd5b6003546001600160a01b0382811691161415610a6e57600080fd5b6004546001600160a01b0382811691161415610a8957600080fd5b600280546001600160a01b0319166001600160a01b0392909216919091179055565b6002546040805163aadee22d60e01b815290516000926001600160a01b03169163aadee22d916004808301926020929190829003018186803b1580156107fe57600080fd5b6000806000610afd611ff1565b91509150610b14670de0b6b3a764000083836121bc565b9250505090565b60006008544211610b2e5750600061082d565b6002546040805163aadee22d60e01b815290516000926001600160a01b03169163aadee22d916004808301926020929190829003018186803b158015610b7357600080fd5b505afa158015610b87573d6000803e3d6000fd5b505050506040513d6020811015610b9d57600080fd5b50516003546040805163aadee22d60e01b815290519293506000926001600160a01b039092169163aadee22d91600480820192602092909190829003018186803b158015610bea57600080fd5b505afa158015610bfe573d6000803e3d6000fd5b505050506040513d6020811015610c1457600080fd5b5051600480546040805163aadee22d60e01b815290519394506000936001600160a01b039092169263aadee22d928282019260209290829003018186803b158015610c5e57600080fd5b505afa158015610c72573d6000803e3d6000fd5b505050506040513d6020811015610c8857600080fd5b50519050610c9a8161086f8585611eda565b1580610ca857506007544211155b15610cbd57505042600855506000905061082d565b6000806000610ccd868686612262565b925092509250610cde83838361232e565b610ce661251d565b50610cef6125d4565b50610cf8612656565b50504260085550600194505050505090565b60006007548211610d1d57506000610f86565b600754831015610d2d5760075492505b60006007610d3d60075486611fd6565b81610d4457fe5b04905060006007610d5760075486611fd6565b81610d5e57fe5b04905080821415610de257610dd9610da5610d7986886126d7565b6003546001600160a01b0316600090815260066020908152604080832088845290915290205490611f3b565b60008481526005602052604090205461086f90610dc2888a6126d7565b6000878152600c6020526040902060010154612719565b92505050610f86565b6000610e0a86610e04610dfb6001870162093a80611f3b565b60075490611eda565b906126d7565b6003546001600160a01b03166000908152600660209081526040808320878452909152902054909150610e6b90610e419083611f3b565b600085815260056020908152604080832054600c9092529091206001015461086f91908590612719565b9350600183015b82811015610ef2576003546001600160a01b03166000908152600660209081526040808320848452909152902054610ee890610eb19062093a80611f3b565b600083815260056020908152604080832054600c9092529091206001015461086f91610ee19162093a8090612719565b8890611eda565b9450600101610e72565b506000610f1b610f1460075461086f62093a8087611f3b90919063ffffffff16565b87906126d7565b6003546001600160a01b03166000908152600660209081526040808320878452909152902054909150610f7f90610f529083611f3b565b600085815260056020908152604080832054600c9092529091206001015461086f91610ee1918690612719565b9450505050505b92915050565b600c6020526000908152604090208054600182015460029092015490919083565b60006007610fbd60075442611fd6565b81610fc457fe5b04905090565b6001546001600160a01b031681565b6000610ff8600b5461086f600a54600954611eda90919063ffffffff16565b905090565b6002546001600160a01b031681565b6000600754821161101f57506000610f86565b60075483101561102f5760075492505b6000600761103f60075486611fd6565b8161104657fe5b0490506000600761105960075486611fd6565b8161106057fe5b049050808214156110d857610dd96110a761107b86886126d7565b6002546001600160a01b0316600090815260066020908152604080832088845290915290205490611f3b565b60008481526005602052604090205461086f906110c4888a6126d7565b6000878152600c6020526040902054612719565b60006110f186610e04610dfb6001870162093a80611f3b565b6002546001600160a01b0316600090815260066020908152604080832087845290915290205490915061114f906111289083611f3b565b600085815260056020908152604080832054600c9092529091205461086f91908590612719565b9350600183015b828110156111cc576002546001600160a01b031660009081526006602090815260408083208484529091529020546111c2906111959062093a80611f3b565b600083815260056020908152604080832054600c9092529091205461086f91610ee19162093a8090612719565b9450600101611156565b5060006111ee610f1460075461086f62093a8087611f3b90919063ffffffff16565b6002546001600160a01b03166000908152600660209081526040808320878452909152902054909150610f7f906112259083611f3b565b600085815260056020908152604080832054600c9092529091205461086f91610ee1918690612719565b60075481565b6001546040805163c395fcb360e01b815233600482015290516001600160a01b039092169163c395fcb391602480820192602092909190829003018186803b1580156112a057600080fd5b505afa1580156112b4573d6000803e3d6000fd5b505050506040513d60208110156112ca57600080fd5b50516113075760405162461bcd60e51b815260040180806020018281038252602e815260200180612c83602e913960400191505060405180910390fd5b815160005b818110156113a157600084828151811061132257fe5b60200260200101519050600061136f678ac7230489e8000061093262093a80610932678ac7230489e800008a898151811061135957fe5b6020026020010151611f3b90919063ffffffff16565b6001600160a01b038816600090815260066020908152604080832095835294905292909220919091555060010161130c565b5050505050565b60008060006113b5611ff1565b91509150610b14670de0b6b3a764000082846121bc565b6001546040805163c395fcb360e01b815233600482015290516001600160a01b039092169163c395fcb391602480820192602092909190829003018186803b15801561141757600080fd5b505afa15801561142b573d6000803e3d6000fd5b505050506040513d602081101561144157600080fd5b505161147e5760405162461bcd60e51b8152600401808060200182810382526030815260200180612b946030913960400191505060405180910390fd5b6000546001600160a01b03838116911614156114cb5760405162461bcd60e51b8152600401808060200182810382526021815260200180612c626021913960400191505060405180910390fd5b6040805163a9059cbb60e01b81523360048201526024810183905290516001600160a01b0384169163a9059cbb9160448083019260209291908290030181600087803b15801561151a57600080fd5b505af115801561152e573d6000803e3d6000fd5b505050506040513d602081101561154457600080fd5b50506040805182815290516001600160a01b038416917f8c1256b8896378cd5044f80c202f9772b9d77dc85c8a6eb51967210b09bfaa28919081900360200190a25050565b60085481565b60008061159a6107ae565b9050806115ab57600091505061082d565b6000610910603c4203426119de565b6001546040805163c395fcb360e01b815233600482015290516001600160a01b039092169163c395fcb391602480820192602092909190829003018186803b15801561160557600080fd5b505afa158015611619573d6000803e3d6000fd5b505050506040513d602081101561162f57600080fd5b505161166c5760405162461bcd60e51b815260040180806020018281038252602e815260200180612c83602e913960400191505060405180910390fd5b815160005b818110156116da57600084828151811061168757fe5b6020026020010151905060006116be678ac7230489e8000061093262093a80610932678ac7230489e800008a898151811061135957fe5b6000928352600560205260409092209190915550600101611671565b50505050565b600a5481565b6001546040805163c395fcb360e01b815233600482015290516001600160a01b039092169163c395fcb391602480820192602092909190829003018186803b15801561173157600080fd5b505afa158015611745573d6000803e3d6000fd5b505050506040513d602081101561175b57600080fd5b50516117985760405162461bcd60e51b8152600401808060200182810382526034815260200180612b3b6034913960400191505060405180910390fd5b6002546001600160a01b03828116911614156117b357600080fd5b6004546001600160a01b03828116911614156117ce57600080fd5b600380546001600160a01b0319166001600160a01b0392909216919091179055565b6004546001600160a01b031681565b6001546040805163c395fcb360e01b815233600482015290516001600160a01b039092169163c395fcb391602480820192602092909190829003018186803b15801561184a57600080fd5b505afa15801561185e573d6000803e3d6000fd5b505050506040513d602081101561187457600080fd5b50516118b15760405162461bcd60e51b8152600401808060200182810382526030815260200180612b0b6030913960400191505060405180910390fd5b6000938452600c6020526040909320918255600182015560020155565b6001546040805163c395fcb360e01b815233600482015290516001600160a01b039092169163c395fcb391602480820192602092909190829003018186803b15801561191957600080fd5b505afa15801561192d573d6000803e3d6000fd5b505050506040513d602081101561194357600080fd5b50516119805760405162461bcd60e51b8152600401808060200182810382526030815260200180612c0d6030913960400191505060405180910390fd5b6003546001600160a01b038281169116141561199b57600080fd5b6002546001600160a01b03828116911614156119b657600080fd5b600480546001600160a01b0319166001600160a01b0392909216919091179055565b60095481565b600060075482116119f157506000610f86565b600754831015611a015760075492505b60006007611a1160075486611fd6565b81611a1857fe5b04905060006007611a2b60075486611fd6565b81611a3257fe5b04905080821415611aad57610dd9611a79611a4d86886126d7565b6004546001600160a01b0316600090815260066020908152604080832088845290915290205490611f3b565b60008481526005602052604090205461086f90611a96888a6126d7565b6000878152600c6020526040902060020154612719565b6000611ac686610e04610dfb6001870162093a80611f3b565b6004546001600160a01b03166000908152600660209081526040808320878452909152902054909150611b2790611afd9083611f3b565b600085815260056020908152604080832054600c9092529091206002015461086f91908590612719565b9350600183015b82811015611ba7576004546001600160a01b03166000908152600660209081526040808320848452909152902054611b9d90611b6d9062093a80611f3b565b600083815260056020908152604080832054600c9092529091206002015461086f91610ee19162093a8090612719565b9450600101611b2e565b506000611bc9610f1460075461086f62093a8087611f3b90919063ffffffff16565b6004546001600160a01b03166000908152600660209081526040808320878452909152902054909150610f7f90611c009083611f3b565b600085815260056020908152604080832054600c9092529091206002015461086f91610ee1918690612719565b600080611c38610aab565b905080611c4957600091505061082d565b6000610910603c42034261100c565b6001546040805163c395fcb360e01b815233600482015290516001600160a01b039092169163c395fcb391602480820192602092909190829003018186803b158015611ca357600080fd5b505afa158015611cb7573d6000803e3d6000fd5b505050506040513d6020811015611ccd57600080fd5b5051611d0a5760405162461bcd60e51b8152600401808060200182810382526030815260200180612b0b6030913960400191505060405180910390fd5b600791909155600855565b6000806007611d2660075442611fd6565b81611d2d57fe5b046000908152600c602052604090205491505090565b6000546001600160a01b031681565b6000806007611d6360075442611fd6565b81611d6a57fe5b046000908152600c602052604090206001015491505090565b600480546040805163aadee22d60e01b81529051600093610ff8936001600160a01b03169263aadee22d9281830192602092829003018186803b158015611dc957600080fd5b505afa158015611ddd573d6000803e3d6000fd5b505050506040513d6020811015611df357600080fd5b50516003546040805163aadee22d60e01b8152905161086f926001600160a01b03169163aadee22d916004808301926020929190829003018186803b158015611e3b57600080fd5b505afa158015611e4f573d6000803e3d6000fd5b505050506040513d6020811015611e6557600080fd5b50516002546040805163aadee22d60e01b815290516001600160a01b039092169163aadee22d91600480820192602092909190829003018186803b158015611eac57600080fd5b505afa158015611ec0573d6000803e3d6000fd5b505050506040513d6020811015611ed657600080fd5b5051905b600082820183811015611f34576040805162461bcd60e51b815260206004820152601b60248201527f536166654d6174683a206164646974696f6e206f766572666c6f770000000000604482015290519081900360640190fd5b9392505050565b600082611f4a57506000610f86565b82820282848281611f5757fe5b0414611f345760405162461bcd60e51b8152600401808060200182810382526021815260200180612bec6021913960400191505060405180910390fd5b6000611f3483836040518060400160405280601a81526020017f536166654d6174683a206469766973696f6e206279207a65726f000000000000815250612747565b600081831115611fe557600080fd5b50620151809190030490565b6000806000612084600460009054906101000a90046001600160a01b03166001600160a01b031663ad5c46486040518163ffffffff1660e01b815260040160206040518083038186803b15801561204757600080fd5b505afa15801561205b573d6000803e3d6000fd5b505050506040513d602081101561207157600080fd5b50516000546001600160a01b03166127e9565b509050600080600460009054906101000a90046001600160a01b03166001600160a01b0316635fcbd2856040518163ffffffff1660e01b815260040160206040518083038186803b1580156120d857600080fd5b505afa1580156120ec573d6000803e3d6000fd5b505050506040513d602081101561210257600080fd5b505160408051630240bc6b60e21b815290516001600160a01b0390921691630902f1ac91600480820192606092909190829003018186803b15801561214657600080fd5b505afa15801561215a573d6000803e3d6000fd5b505050506040513d606081101561217057600080fd5b5080516020909101516000546dffffffffffffffffffffffffffff9283169450911691506001600160a01b038481169116146121ad5781816121b0565b80825b90969095509350505050565b60008084116121fc5760405162461bcd60e51b8152600401808060200182810382526025815260200180612c3d6025913960400191505060405180910390fd5b60008311801561220c5750600082115b6122475760405162461bcd60e51b8152600401808060200182810382526028815260200180612bc46028913960400191505060405180910390fd5b826122528584611f3b565b8161225957fe5b04949350505050565b60008060008061227d6122768888886128c7565b8890611f3b565b9050600061228f61227688888b6128c7565b905060006122a1612276888b8b6128c7565b905060006122b38261086f8686611eda565b90506122d781610932670de0b6b3a764000061095888678ac7230489e80000611f3b565b6122f982610932670de0b6b3a764000061095888678ac7230489e80000611f3b565b61231b83610932670de0b6b3a764000061095888678ac7230489e80000611f3b565b9650965096505050505093509350939050565b6000600761233e60075442611fd6565b8161234557fe5b0490506000600761235a600754600854611fd6565b8161236157fe5b0490506000612376610dfb8462093a80611f3b565b60008052600c6020527f13649b2456f1b42fef0f0040b3aaeabcd21a76a0f3f5defd4f583839455116e8549091501580156123d9575060008052600c6020527f13649b2456f1b42fef0f0040b3aaeabcd21a76a0f3f5defd4f583839455116e954155b801561240d575060008052600c6020527f13649b2456f1b42fef0f0040b3aaeabcd21a76a0f3f5defd4f583839455116ea54155b156124885760008052600c6020527f13649b2456f1b42fef0f0040b3aaeabcd21a76a0f3f5defd4f583839455116e88690557f13649b2456f1b42fef0f0040b3aaeabcd21a76a0f3f5defd4f583839455116e98590557f13649b2456f1b42fef0f0040b3aaeabcd21a76a0f3f5defd4f583839455116ea8490555b828210156124cc57600182015b8381116124c3576000818152600c602052604090208781556001808201889055600290910186905501612495565b50505050612518565b6000838152600c6020526040902080546124e79088846129b1565b815560018101546124f99087846129b1565b6001820155600281015461250e9086846129b1565b6002909101555050505b505050565b600061252b6008544261100c565b9050801561082d576009546125409082611eda565b60095560008054600254604080516340c10f1960e01b81526001600160a01b03928316600482015260248101869052905191909216926340c10f1992604480820193602093909283900390910190829087803b15801561259f57600080fd5b505af11580156125b3573d6000803e3d6000fd5b505050506040513d60208110156125c957600080fd5b505161082d57600080fd5b60006125e260085442610d0a565b9050801561082d57600a546125f79082611eda565b600a5560008054600354604080516340c10f1960e01b81526001600160a01b03928316600482015260248101869052905191909216926340c10f1992604480820193602093909283900390910190829087803b15801561259f57600080fd5b6000612664600854426119de565b9050801561082d57600b546126799082611eda565b600b556000805460048054604080516340c10f1960e01b81526001600160a01b039283169381019390935260248301869052519216926340c10f19926044808401936020939083900390910190829087803b15801561259f57600080fd5b6000611f3483836040518060400160405280601e81526020017f536166654d6174683a207375627472616374696f6e206f766572666c6f770000815250612a12565b600061273f678ac7230489e80000610932670de0b6b3a764000081866109588a8a611f3b565b949350505050565b600081836127d35760405162461bcd60e51b81526004018080602001828103825283818151815260200191508051906020019080838360005b83811015612798578181015183820152602001612780565b50505050905090810190601f1680156127c55780820380516001836020036101000a031916815260200191505b509250505060405180910390fd5b5060008385816127df57fe5b0495945050505050565b600080826001600160a01b0316846001600160a01b0316141561283d5760405162461bcd60e51b8152600401808060200182810382526025815260200180612b6f6025913960400191505060405180910390fd5b826001600160a01b0316846001600160a01b03161061285d578284612860565b83835b90925090506001600160a01b0382166128c0576040805162461bcd60e51b815260206004820152601e60248201527f556e697377617056324c6962726172793a205a45524f5f414444524553530000604482015290519081900360640190fd5b9250929050565b60006128d38383611eda565b841115806128e857506128e68383611eda565b155b156128fc5750670de0b6b3a7640000611f34565b600061293661292861291686670de0b6b3a7640000612a6c565b61093288670de0b6b3a7640000611f3b565b670de0b6b3a7640000612a6c565b9050600061296461292861295286670de0b6b3a7640000612a6c565b61093289670de0b6b3a7640000611f3b565b9050600061297e670de0b6b3a76400006109328585611f3b565b90506129a6633b9aca006109586129a184610932670de0b6b3a764000080611f3b565b612a83565b979650505050505050565b6000806129d36129cc846008546126d790919063ffffffff16565b8690611f3b565b905060006129ef6129cc600854426126d790919063ffffffff16565b9050612a086129fe42866126d7565b6109328484611eda565b9695505050505050565b60008184841115612a645760405162461bcd60e51b8152602060048201818152835160248401528351909283926044909101919085019080838360008315612798578181015183820152602001612780565b505050900390565b600081831015612a7c5781611f34565b5090919050565b60006003821115612ac6575080600160028204015b81811015612ac057809150600281828581612aaf57fe5b040181612ab857fe5b049050612a98565b50612ad0565b8115612ad0575060015b91905056fe46726f737479526577617264732e73657447656e657369735374616b696e673a2053656e646572206d7573742062652061646d696e46726f737479526577617264732e736574537461727454696d653a2053656e646572206d7573742062652061646d696e46726f737479526577617264732e736574506172656e745374616b696e673a2053656e646572206d7573742062652061646d696e556e697377617056324c6962726172793a204944454e544943414c5f41444452455353455346726f737479526577617264732e7265636f76657245524332303a2053656e646572206d7573742062652061646d696e556e697377617056324c6962726172793a20494e53554646494349454e545f4c4951554944495459536166654d6174683a206d756c7469706c69636174696f6e206f766572666c6f7746726f737479526577617264732e7365744c505374616b696e673a2053656e646572206d7573742062652061646d696e556e697377617056324c6962726172793a20494e53554646494349454e545f414d4f554e5443616e6e6f7420776974686472617720746865207265776172647320746f6b656e46726f737479526577617264732e736574526577617264733a2053656e646572206d7573742062652061646d696ea26469706673582212207bdfe4b790d092184a70692c2772750fed3cc1e66763ae81b9b6ae6ba99a0d5664736f6c634300060c0033",
  "linkReferences": {},
  "deployedLinkReferences": {}
}