{
  "_format": "hh-sol-artifact-1",
  "contractName": "ERC721WithSameTokenURIForAllTokens",
  "sourceName": "contracts/ERC721/ERC721WithSameTokenURIForAllTokens.sol",
  "abi": [
    {
      "inputs": [
        {
          "internalType": "string",
          "name": "name",
          "type": "string"
        },
        {
          "internalType": "string",
          "name": "symbol",
          "type": "string"
        }
      ],
      "stateMutability": "nonpayable",
      "type": "constructor"
    },
    {
      "anonymous": false,
      "inputs": [
        {
          "indexed": true,
          "internalType": "address",
          "name": "owner",
          "type": "address"
        },
        {
          "indexed": true,
          "internalType": "address",
          "name": "approved",
          "type": "address"
        },
        {
          "indexed": true,
          "internalType": "uint256",
          "name": "tokenId",
          "type": "uint256"
        }
      ],
      "name": "Approval",
      "type": "event"
    },
    {
      "anonymous": false,
      "inputs": [
        {
          "indexed": true,
          "internalType": "address",
          "name": "owner",
          "type": "address"
        },
        {
          "indexed": true,
          "internalType": "address",
          "name": "operator",
          "type": "address"
        },
        {
          "indexed": false,
          "internalType": "bool",
          "name": "approved",
          "type": "bool"
        }
      ],
      "name": "ApprovalForAll",
      "type": "event"
    },
    {
      "anonymous": false,
      "inputs": [
        {
          "indexed": true,
          "internalType": "address",
          "name": "from",
          "type": "address"
        },
        {
          "indexed": true,
          "internalType": "address",
          "name": "to",
          "type": "address"
        },
        {
          "indexed": true,
          "internalType": "uint256",
          "name": "tokenId",
          "type": "uint256"
        }
      ],
      "name": "Transfer",
      "type": "event"
    },
    {
      "inputs": [
        {
          "internalType": "address",
          "name": "to",
          "type": "address"
        },
        {
          "internalType": "uint256",
          "name": "tokenId",
          "type": "uint256"
        }
      ],
      "name": "approve",
      "outputs": [],
      "stateMutability": "nonpayable",
      "type": "function"
    },
    {
      "inputs": [
        {
          "internalType": "address",
          "name": "owner",
          "type": "address"
        }
      ],
      "name": "balanceOf",
      "outputs": [
        {
          "internalType": "uint256",
          "name": "",
          "type": "uint256"
        }
      ],
      "stateMutability": "view",
      "type": "function"
    },
    {
      "inputs": [
        {
          "internalType": "uint256",
          "name": "tokenId",
          "type": "uint256"
        }
      ],
      "name": "getApproved",
      "outputs": [
        {
          "internalType": "address",
          "name": "",
          "type": "address"
        }
      ],
      "stateMutability": "view",
      "type": "function"
    },
    {
      "inputs": [
        {
          "internalType": "address",
          "name": "owner",
          "type": "address"
        },
        {
          "internalType": "address",
          "name": "operator",
          "type": "address"
        }
      ],
      "name": "isApprovedForAll",
      "outputs": [
        {
          "internalType": "bool",
          "name": "",
          "type": "bool"
        }
      ],
      "stateMutability": "view",
      "type": "function"
    },
    {
      "inputs": [],
      "name": "name",
      "outputs": [
        {
          "internalType": "string",
          "name": "",
          "type": "string"
        }
      ],
      "stateMutability": "view",
      "type": "function"
    },
    {
      "inputs": [
        {
          "internalType": "uint256",
          "name": "tokenId",
          "type": "uint256"
        }
      ],
      "name": "ownerOf",
      "outputs": [
        {
          "internalType": "address",
          "name": "",
          "type": "address"
        }
      ],
      "stateMutability": "view",
      "type": "function"
    },
    {
      "inputs": [
        {
          "internalType": "address",
          "name": "from",
          "type": "address"
        },
        {
          "internalType": "address",
          "name": "to",
          "type": "address"
        },
        {
          "internalType": "uint256",
          "name": "tokenId",
          "type": "uint256"
        }
      ],
      "name": "safeTransferFrom",
      "outputs": [],
      "stateMutability": "nonpayable",
      "type": "function"
    },
    {
      "inputs": [
        {
          "internalType": "address",
          "name": "from",
          "type": "address"
        },
        {
          "internalType": "address",
          "name": "to",
          "type": "address"
        },
        {
          "internalType": "uint256",
          "name": "tokenId",
          "type": "uint256"
        },
        {
          "internalType": "bytes",
          "name": "_data",
          "type": "bytes"
        }
      ],
      "name": "safeTransferFrom",
      "outputs": [],
      "stateMutability": "nonpayable",
      "type": "function"
    },
    {
      "inputs": [
        {
          "internalType": "address",
          "name": "operator",
          "type": "address"
        },
        {
          "internalType": "bool",
          "name": "approved",
          "type": "bool"
        }
      ],
      "name": "setApprovalForAll",
      "outputs": [],
      "stateMutability": "nonpayable",
      "type": "function"
    },
    {
      "inputs": [
        {
          "internalType": "bytes4",
          "name": "interfaceId",
          "type": "bytes4"
        }
      ],
      "name": "supportsInterface",
      "outputs": [
        {
          "internalType": "bool",
          "name": "",
          "type": "bool"
        }
      ],
      "stateMutability": "view",
      "type": "function"
    },
    {
      "inputs": [],
      "name": "symbol",
      "outputs": [
        {
          "internalType": "string",
          "name": "",
          "type": "string"
        }
      ],
      "stateMutability": "view",
      "type": "function"
    },
    {
      "inputs": [
        {
          "internalType": "uint256",
          "name": "index",
          "type": "uint256"
        }
      ],
      "name": "tokenByIndex",
      "outputs": [
        {
          "internalType": "uint256",
          "name": "",
          "type": "uint256"
        }
      ],
      "stateMutability": "view",
      "type": "function"
    },
    {
      "inputs": [
        {
          "internalType": "address",
          "name": "owner",
          "type": "address"
        },
        {
          "internalType": "uint256",
          "name": "index",
          "type": "uint256"
        }
      ],
      "name": "tokenOfOwnerByIndex",
      "outputs": [
        {
          "internalType": "uint256",
          "name": "",
          "type": "uint256"
        }
      ],
      "stateMutability": "view",
      "type": "function"
    },
    {
      "inputs": [
        {
          "internalType": "uint256",
          "name": "tokenId",
          "type": "uint256"
        }
      ],
      "name": "tokenURI",
      "outputs": [
        {
          "internalType": "string",
          "name": "",
          "type": "string"
        }
      ],
      "stateMutability": "view",
      "type": "function"
    },
    {
      "inputs": [],
      "name": "tokenURI_",
      "outputs": [
        {
          "internalType": "string",
          "name": "",
          "type": "string"
        }
      ],
      "stateMutability": "view",
      "type": "function"
    },
    {
      "inputs": [],
      "name": "totalSupply",
      "outputs": [
        {
          "internalType": "uint256",
          "name": "",
          "type": "uint256"
        }
      ],
      "stateMutability": "view",
      "type": "function"
    },
    {
      "inputs": [
        {
          "internalType": "address",
          "name": "from",
          "type": "address"
        },
        {
          "internalType": "address",
          "name": "to",
          "type": "address"
        },
        {
          "internalType": "uint256",
          "name": "tokenId",
          "type": "uint256"
        }
      ],
      "name": "transferFrom",
      "outputs": [],
      "stateMutability": "nonpayable",
      "type": "function"
    }
  ],
  "bytecode": "0x60806040523480156200001157600080fd5b5060405162001a6f38038062001a6f833981810160405260408110156200003757600080fd5b81019080805160405193929190846401000000008211156200005857600080fd5b9083019060208201858111156200006e57600080fd5b82516401000000008111828201881017156200008957600080fd5b82525081516020918201929091019080838360005b83811015620000b85781810151838201526020016200009e565b50505050905090810190601f168015620000e65780820380516001836020036101000a031916815260200191505b50604052602001805160405193929190846401000000008211156200010a57600080fd5b9083019060208201858111156200012057600080fd5b82516401000000008111828201881017156200013b57600080fd5b82525081516020918201929091019080838360005b838110156200016a57818101518382015260200162000150565b50505050905090810190601f168015620001985780820380516001836020036101000a031916815260200191505b5060405250620001b391506301ffc9a760e01b90506200021d565b8151620001c8906006906020850190620002a2565b508051620001de906007906020840190620002a2565b50620001f16380ac58cd60e01b6200021d565b62000203635b5e139f60e01b6200021d565b6200021563780e9d6360e01b6200021d565b50506200033e565b6001600160e01b031980821614156200027d576040805162461bcd60e51b815260206004820152601c60248201527f4552433136353a20696e76616c696420696e7465726661636520696400000000604482015290519081900360640190fd5b6001600160e01b0319166000908152602081905260409020805460ff19166001179055565b828054600181600116156101000203166002900490600052602060002090601f016020900481019282601f10620002e557805160ff191683800117855562000315565b8280016001018555821562000315579182015b8281111562000315578251825591602001919060010190620002f8565b506200032392915062000327565b5090565b5b8082111562000323576000815560010162000328565b611721806200034e6000396000f3fe608060405234801561001057600080fd5b506004361061010b5760003560e01c80634f6ccce7116100a2578063a22cb46511610071578063a22cb46514610349578063b88d4fde14610377578063c87b56dd1461043d578063d2401fa41461045a578063e985e9c5146104625761010b565b80634f6ccce7146102e15780636352211e146102fe57806370a082311461031b57806395d89b41146103415761010b565b806318160ddd116100de57806318160ddd1461022f57806323b872dd146102495780632f745c591461027f57806342842e0e146102ab5761010b565b806301ffc9a71461011057806306fdde031461014b578063081812fc146101c8578063095ea7b314610201575b600080fd5b6101376004803603602081101561012657600080fd5b50356001600160e01b031916610490565b604080519115158252519081900360200190f35b6101536104af565b6040805160208082528351818301528351919283929083019185019080838360005b8381101561018d578181015183820152602001610175565b50505050905090810190601f1680156101ba5780820380516001836020036101000a031916815260200191505b509250505060405180910390f35b6101e5600480360360208110156101de57600080fd5b5035610545565b604080516001600160a01b039092168252519081900360200190f35b61022d6004803603604081101561021757600080fd5b506001600160a01b0381351690602001356105a7565b005b610237610682565b60408051918252519081900360200190f35b61022d6004803603606081101561025f57600080fd5b506001600160a01b03813581169160208101359091169060400135610693565b6102376004803603604081101561029557600080fd5b506001600160a01b0381351690602001356106ea565b61022d600480360360608110156102c157600080fd5b506001600160a01b03813581169160208101359091169060400135610715565b610237600480360360208110156102f757600080fd5b5035610730565b6101e56004803603602081101561031457600080fd5b5035610746565b6102376004803603602081101561033157600080fd5b50356001600160a01b031661076e565b6101536107d6565b61022d6004803603604081101561035f57600080fd5b506001600160a01b0381351690602001351515610837565b61022d6004803603608081101561038d57600080fd5b6001600160a01b038235811692602081013590911691604082013591908101906080810160608201356401000000008111156103c857600080fd5b8201836020820111156103da57600080fd5b803590602001918460018302840111640100000000831117156103fc57600080fd5b91908080601f01602080910402602001604051908101604052809392919081815260200183838082843760009201919091525092955061093c945050505050565b6101536004803603602081101561045357600080fd5b503561099a565b610153610a72565b6101376004803603604081101561047857600080fd5b506001600160a01b0381358116916020013516610b00565b6001600160e01b03191660009081526020819052604090205460ff1690565b60068054604080516020601f600260001961010060018816150201909516949094049384018190048102820181019092528281526060939092909183018282801561053b5780601f106105105761010080835404028352916020019161053b565b820191906000526020600020905b81548152906001019060200180831161051e57829003601f168201915b5050505050905090565b600061055082610b2e565b61058b5760405162461bcd60e51b815260040180806020018281038252602c815260200180611616602c913960400191505060405180910390fd5b506000908152600460205260409020546001600160a01b031690565b60006105b282610746565b9050806001600160a01b0316836001600160a01b031614156106055760405162461bcd60e51b815260040180806020018281038252602181526020018061169a6021913960400191505060405180910390fd5b806001600160a01b0316610617610b3b565b6001600160a01b03161480610638575061063881610633610b3b565b610b00565b6106735760405162461bcd60e51b81526004018080602001828103825260388152602001806115696038913960400191505060405180910390fd5b61067d8383610b3f565b505050565b600061068e6002610bad565b905090565b6106a461069e610b3b565b82610bb8565b6106df5760405162461bcd60e51b81526004018080602001828103825260318152602001806116bb6031913960400191505060405180910390fd5b61067d838383610c5c565b6001600160a01b038216600090815260016020526040812061070c9083610da8565b90505b92915050565b61067d8383836040518060200160405280600081525061093c565b60008061073e600284610db4565b509392505050565b600061070f826040518060600160405280602981526020016115cb6029913960029190610dd0565b60006001600160a01b0382166107b55760405162461bcd60e51b815260040180806020018281038252602a8152602001806115a1602a913960400191505060405180910390fd5b6001600160a01b038216600090815260016020526040902061070f90610bad565b60078054604080516020601f600260001961010060018816150201909516949094049384018190048102820181019092528281526060939092909183018282801561053b5780601f106105105761010080835404028352916020019161053b565b61083f610b3b565b6001600160a01b0316826001600160a01b031614156108a5576040805162461bcd60e51b815260206004820152601960248201527f4552433732313a20617070726f766520746f2063616c6c657200000000000000604482015290519081900360640190fd5b80600560006108b2610b3b565b6001600160a01b03908116825260208083019390935260409182016000908120918716808252919093529120805460ff1916921515929092179091556108f6610b3b565b6001600160a01b03167f17307eab39ab6107e8899845ad3d59bd9653f200f220920489ca2b5937696c318360405180821515815260200191505060405180910390a35050565b61094d610947610b3b565b83610bb8565b6109885760405162461bcd60e51b81526004018080602001828103825260318152602001806116bb6031913960400191505060405180910390fd5b61099484848484610de7565b50505050565b60606109a582610b2e565b6109e05760405162461bcd60e51b815260040180806020018281038252602f81526020018061166b602f913960400191505060405180910390fd5b6008805460408051602060026001851615610100026000190190941693909304601f81018490048402820184019092528181529291830182828015610a665780601f10610a3b57610100808354040283529160200191610a66565b820191906000526020600020905b815481529060010190602001808311610a4957829003601f168201915b50505050509050919050565b6008805460408051602060026001851615610100026000190190941693909304601f81018490048402820184019092528181529291830182828015610af85780601f10610acd57610100808354040283529160200191610af8565b820191906000526020600020905b815481529060010190602001808311610adb57829003601f168201915b505050505081565b6001600160a01b03918216600090815260056020908152604080832093909416825291909152205460ff1690565b600061070f600283610e39565b3390565b600081815260046020526040902080546001600160a01b0319166001600160a01b0384169081179091558190610b7482610746565b6001600160a01b03167f8c5be1e5ebec7d5bd14f71427d1e84f3dd0314c0f7b2291e5b200ac8c7c3b92560405160405180910390a45050565b600061070f82610e45565b6000610bc382610b2e565b610bfe5760405162461bcd60e51b815260040180806020018281038252602c81526020018061153d602c913960400191505060405180910390fd5b6000610c0983610746565b9050806001600160a01b0316846001600160a01b03161480610c445750836001600160a01b0316610c3984610545565b6001600160a01b0316145b80610c545750610c548185610b00565b949350505050565b826001600160a01b0316610c6f82610746565b6001600160a01b031614610cb45760405162461bcd60e51b81526004018080602001828103825260298152602001806116426029913960400191505060405180910390fd5b6001600160a01b038216610cf95760405162461bcd60e51b81526004018080602001828103825260248152602001806115196024913960400191505060405180910390fd5b610d0483838361067d565b610d0f600082610b3f565b6001600160a01b0383166000908152600160205260409020610d319082610e49565b506001600160a01b0382166000908152600160205260409020610d549082610e55565b50610d6160028284610e61565b5080826001600160a01b0316846001600160a01b03167fddf252ad1be2c89b69c2b068fc378daa952ba7f163c4a11628f55a4df523b3ef60405160405180910390a4505050565b600061070c8383610e77565b6000808080610dc38686610edb565b9097909650945050505050565b6000610ddd848484610f56565b90505b9392505050565b610df2848484610c5c565b610dfe84848484611020565b6109945760405162461bcd60e51b81526004018080602001828103825260328152602001806114e76032913960400191505060405180910390fd5b600061070c8383611188565b5490565b600061070c83836111a0565b600061070c8383611266565b6000610ddd84846001600160a01b0385166112b0565b81546000908210610eb95760405162461bcd60e51b81526004018080602001828103825260228152602001806114c56022913960400191505060405180910390fd5b826000018281548110610ec857fe5b9060005260206000200154905092915050565b815460009081908310610f1f5760405162461bcd60e51b81526004018080602001828103825260228152602001806115f46022913960400191505060405180910390fd5b6000846000018481548110610f3057fe5b906000526020600020906002020190508060000154816001015492509250509250929050565b60008281526001840160205260408120548281610ff15760405162461bcd60e51b81526004018080602001828103825283818151815260200191508051906020019080838360005b83811015610fb6578181015183820152602001610f9e565b50505050905090810190601f168015610fe35780820380516001836020036101000a031916815260200191505b509250505060405180910390fd5b5084600001600182038154811061100457fe5b9060005260206000209060020201600101549150509392505050565b6000611034846001600160a01b0316611347565b61104057506001610c54565b606061114e630a85bd0160e11b611055610b3b565b88878760405160240180856001600160a01b03168152602001846001600160a01b0316815260200183815260200180602001828103825283818151815260200191508051906020019080838360005b838110156110bc5781810151838201526020016110a4565b50505050905090810190601f1680156110e95780820380516001836020036101000a031916815260200191505b5095505050505050604051602081830303815290604052906001600160e01b0319166020820180516001600160e01b0383818316178352505050506040518060600160405280603281526020016114e7603291396001600160a01b038816919061134d565b9050600081806020019051602081101561116757600080fd5b50516001600160e01b031916630a85bd0160e11b1492505050949350505050565b60009081526001919091016020526040902054151590565b6000818152600183016020526040812054801561125c57835460001980830191908101906000908790839081106111d357fe5b90600052602060002001549050808760000184815481106111f057fe5b60009182526020808320909101929092558281526001898101909252604090209084019055865487908061122057fe5b6001900381819060005260206000200160009055905586600101600087815260200190815260200160002060009055600194505050505061070f565b600091505061070f565b60006112728383611188565b6112a85750815460018181018455600084815260208082209093018490558454848252828601909352604090209190915561070f565b50600061070f565b600082815260018401602052604081205480611315575050604080518082018252838152602080820184815286546001818101895560008981528481209551600290930290950191825591519082015586548684528188019092529290912055610de0565b8285600001600183038154811061132857fe5b9060005260206000209060020201600101819055506000915050610de0565b3b151590565b6060610ddd8484600085606061136285611347565b6113b3576040805162461bcd60e51b815260206004820152601d60248201527f416464726573733a2063616c6c20746f206e6f6e2d636f6e7472616374000000604482015290519081900360640190fd5b60006060866001600160a01b031685876040518082805190602001908083835b602083106113f25780518252601f1990920191602091820191016113d3565b6001836020036101000a03801982511681845116808217855250505050505090500191505060006040518083038185875af1925050503d8060008114611454576040519150601f19603f3d011682016040523d82523d6000602084013e611459565b606091505b5091509150811561146d579150610c549050565b80511561147d5780518082602001fd5b60405162461bcd60e51b8152602060048201818152865160248401528651879391928392604401919085019080838360008315610fb6578181015183820152602001610f9e56fe456e756d657261626c655365743a20696e646578206f7574206f6620626f756e64734552433732313a207472616e7366657220746f206e6f6e20455243373231526563656976657220696d706c656d656e7465724552433732313a207472616e7366657220746f20746865207a65726f20616464726573734552433732313a206f70657261746f7220717565727920666f72206e6f6e6578697374656e7420746f6b656e4552433732313a20617070726f76652063616c6c6572206973206e6f74206f776e6572206e6f7220617070726f76656420666f7220616c6c4552433732313a2062616c616e636520717565727920666f7220746865207a65726f20616464726573734552433732313a206f776e657220717565727920666f72206e6f6e6578697374656e7420746f6b656e456e756d657261626c654d61703a20696e646578206f7574206f6620626f756e64734552433732313a20617070726f76656420717565727920666f72206e6f6e6578697374656e7420746f6b656e4552433732313a207472616e73666572206f6620746f6b656e2074686174206973206e6f74206f776e4552433732314d657461646174613a2055524920717565727920666f72206e6f6e6578697374656e7420746f6b656e4552433732313a20617070726f76616c20746f2063757272656e74206f776e65724552433732313a207472616e736665722063616c6c6572206973206e6f74206f776e6572206e6f7220617070726f766564a26469706673582212206a2e81fb0283cfb4e3950aa2261fe30718708ad8db69872f425a7b8931fa26ec64736f6c634300060c0033",
  "linkReferences": {},
  "deployedLinkReferences": {}
}