{
  "contracts/Utils/RealMath.sol": {
    "RealMath": {
      "abi": [
        {
          "inputs": [
            {
              "internalType": "int128",
              "name": "real_numerator",
              "type": "int128"
            },
            {
              "internalType": "int128",
              "name": "real_denominator",
              "type": "int128"
            }
          ],
          "name": "div",
          "outputs": [
            {
              "internalType": "int128",
              "name": "",
              "type": "int128"
            }
          ],
          "stateMutability": "pure",
          "type": "function"
        },
        {
          "inputs": [
            {
              "internalType": "int128",
              "name": "real_arg",
              "type": "int128"
            }
          ],
          "name": "exp",
          "outputs": [
            {
              "internalType": "int128",
              "name": "",
              "type": "int128"
            }
          ],
          "stateMutability": "pure",
          "type": "function"
        },
        {
          "inputs": [
            {
              "internalType": "int128",
              "name": "real_arg",
              "type": "int128"
            },
            {
              "internalType": "int256",
              "name": "max_iterations",
              "type": "int256"
            }
          ],
          "name": "expLimited",
          "outputs": [
            {
              "internalType": "int128",
              "name": "",
              "type": "int128"
            }
          ],
          "stateMutability": "pure",
          "type": "function"
        },
        {
          "inputs": [
            {
              "internalType": "int128",
              "name": "real_base",
              "type": "int128"
            },
            {
              "internalType": "int88",
              "name": "exponent",
              "type": "int88"
            }
          ],
          "name": "ipow",
          "outputs": [
            {
              "internalType": "int128",
              "name": "",
              "type": "int128"
            }
          ],
          "stateMutability": "pure",
          "type": "function"
        },
        {
          "inputs": [
            {
              "internalType": "int128",
              "name": "real_arg",
              "type": "int128"
            }
          ],
          "name": "ln",
          "outputs": [
            {
              "internalType": "int128",
              "name": "",
              "type": "int128"
            }
          ],
          "stateMutability": "pure",
          "type": "function"
        },
        {
          "inputs": [
            {
              "internalType": "int128",
              "name": "real_arg",
              "type": "int128"
            },
            {
              "internalType": "int256",
              "name": "max_iterations",
              "type": "int256"
            }
          ],
          "name": "lnLimited",
          "outputs": [
            {
              "internalType": "int128",
              "name": "",
              "type": "int128"
            }
          ],
          "stateMutability": "pure",
          "type": "function"
        },
        {
          "inputs": [
            {
              "internalType": "int128",
              "name": "real_a",
              "type": "int128"
            },
            {
              "internalType": "int128",
              "name": "real_b",
              "type": "int128"
            }
          ],
          "name": "mul",
          "outputs": [
            {
              "internalType": "int128",
              "name": "",
              "type": "int128"
            }
          ],
          "stateMutability": "pure",
          "type": "function"
        },
        {
          "inputs": [
            {
              "internalType": "int88",
              "name": "ipart",
              "type": "int88"
            }
          ],
          "name": "toReal",
          "outputs": [
            {
              "internalType": "int128",
              "name": "",
              "type": "int128"
            }
          ],
          "stateMutability": "pure",
          "type": "function"
        }
      ],
      "evm": {
        "bytecode": {
          "linkReferences": {},
          "object": "61061e610026600b82828239805160001a60731461001957fe5b30600052607381538281f3fe73000000000000000000000000000000000000000030146080604052600436106100925760003560e01c8063b0cbaab211610065578063b0cbaab21461014d578063b69721461461016d578063d271b06714610197578063f5a5d503146101b757610092565b8063082ec5561461009757806325f39a63146100d757806382396bc61461010157806392aea05a14610127575b600080fd5b6100c0600480360360408110156100ad57600080fd5b508035600f0b9060200135600a0b6101d7565b60408051600f9290920b8252519081900360200190f35b6100c0600480360360408110156100ed57600080fd5b508035600f90810b9160200135900b61023a565b6100c06004803603604081101561011757600080fd5b508035600f0b906020013561025a565b6100c06004803603604081101561013d57600080fd5b508035600f0b906020013561033d565b6100c06004803603602081101561016357600080fd5b5035600f0b610394565b6100c06004803603604081101561018357600080fd5b508035600f90810b9160200135900b6103a9565b6100c0600480360360208110156101ad57600080fd5b5035600f0b6103b7565b6100c0600480360360208110156101cd57600080fd5b5035600a0b6103c4565b60008082600a0b12156101e957600080fd5b600160281b5b82600a0b6000146102315782600116600a0b600114156102165761021381856103a9565b90505b600183600a0b901d925061022a84856103a9565b93506101ef565b90505b92915050565b6000600f82810b9084900b600160281b028161025257fe5b059392505050565b60008083600f0b1361026b57600080fd5b600f83900b600160281b141561028357506000610234565b60008061028f856103d0565b909250905060006102ae64ffffffffff198401600160281b850161023a565b90506000805b8681600a0b12156103065760006102e86102d485846002026001016101d7565b6102e3846002026001016103c4565b61023a565b928301929050600f81900b6102fd5750610306565b506001016102b4565b5061031781650200000000006103a9565b905080610331610326856103c4565b64b17217f7d26103a9565b01979650505050505050565b600080600160281b815b8481600a0b121561038a579181019161036f8261036a886102e3600186016103c4565b6103a9565b915081600f0b600014156103825761038a565b600101610347565b5090949350505050565b60006103a182603261033d565b90505b919050565b600f91820b910b0260281d90565b60006103a182603261025a565b600a0b600160281b0290565b600080600083600f0b136103e357600080fd5b60006103f96103f485600f0b61045e565b610498565b60ff169050602881039150600082600a0b12156104325781600003600a0b600f0b84600f0b600082121561042957fe5b901b9250610458565b600082600a0b126104585781600a0b600f0b84600f0b600082121561045357fe5b901d92505b50915091565b600181811c909117600281901c17600481901c17600881901c17601081901c17602081901c17604081901c17608081901c179081901c1890565b60007faaaaaaaaaaaaaaaaaaaaaaaaaaaaaaaaaaaaaaaaaaaaaaaaaaaaaaaaaaaaaaaa8216156104c6576001175b7fcccccccccccccccccccccccccccccccccccccccccccccccccccccccccccccccc8216156104f2576002175b7ff0f0f0f0f0f0f0f0f0f0f0f0f0f0f0f0f0f0f0f0f0f0f0f0f0f0f0f0f0f0f0f082161561051e576004175b7fff00ff00ff00ff00ff00ff00ff00ff00ff00ff00ff00ff00ff00ff00ff00ff0082161561054a576008175b7fffff0000ffff0000ffff0000ffff0000ffff0000ffff0000ffff0000ffff0000821615610576576010175b7fffffffff00000000ffffffff00000000ffffffff00000000ffffffff000000008216156105a2576020175b77ffffffffffffffff0000000000000000ffffffffffffffff198216156105c7576040175b6fffffffffffffffffffffffffffffffff198216156103a45760801791905056fea2646970667358221220a726ae334fa54c257cd5fdd698b067c6a615d80297e1cb4e230a533b2fa1ecac64736f6c634300060c0033",
          "opcodes": "PUSH2 0x61E PUSH2 0x26 PUSH1 0xB DUP3 DUP3 DUP3 CODECOPY DUP1 MLOAD PUSH1 0x0 BYTE PUSH1 0x73 EQ PUSH2 0x19 JUMPI INVALID JUMPDEST ADDRESS PUSH1 0x0 MSTORE PUSH1 0x73 DUP2 MSTORE8 DUP3 DUP2 RETURN INVALID PUSH20 0x0 ADDRESS EQ PUSH1 0x80 PUSH1 0x40 MSTORE PUSH1 0x4 CALLDATASIZE LT PUSH2 0x92 JUMPI PUSH1 0x0 CALLDATALOAD PUSH1 0xE0 SHR DUP1 PUSH4 0xB0CBAAB2 GT PUSH2 0x65 JUMPI DUP1 PUSH4 0xB0CBAAB2 EQ PUSH2 0x14D JUMPI DUP1 PUSH4 0xB6972146 EQ PUSH2 0x16D JUMPI DUP1 PUSH4 0xD271B067 EQ PUSH2 0x197 JUMPI DUP1 PUSH4 0xF5A5D503 EQ PUSH2 0x1B7 JUMPI PUSH2 0x92 JUMP JUMPDEST DUP1 PUSH4 0x82EC556 EQ PUSH2 0x97 JUMPI DUP1 PUSH4 0x25F39A63 EQ PUSH2 0xD7 JUMPI DUP1 PUSH4 0x82396BC6 EQ PUSH2 0x101 JUMPI DUP1 PUSH4 0x92AEA05A EQ PUSH2 0x127 JUMPI JUMPDEST PUSH1 0x0 DUP1 REVERT JUMPDEST PUSH2 0xC0 PUSH1 0x4 DUP1 CALLDATASIZE SUB PUSH1 0x40 DUP2 LT ISZERO PUSH2 0xAD JUMPI PUSH1 0x0 DUP1 REVERT JUMPDEST POP DUP1 CALLDATALOAD PUSH1 0xF SIGNEXTEND SWAP1 PUSH1 0x20 ADD CALLDATALOAD PUSH1 0xA SIGNEXTEND PUSH2 0x1D7 JUMP JUMPDEST PUSH1 0x40 DUP1 MLOAD PUSH1 0xF SWAP3 SWAP1 SWAP3 SIGNEXTEND DUP3 MSTORE MLOAD SWAP1 DUP2 SWAP1 SUB PUSH1 0x20 ADD SWAP1 RETURN JUMPDEST PUSH2 0xC0 PUSH1 0x4 DUP1 CALLDATASIZE SUB PUSH1 0x40 DUP2 LT ISZERO PUSH2 0xED JUMPI PUSH1 0x0 DUP1 REVERT JUMPDEST POP DUP1 CALLDATALOAD PUSH1 0xF SWAP1 DUP2 SIGNEXTEND SWAP2 PUSH1 0x20 ADD CALLDATALOAD SWAP1 SIGNEXTEND PUSH2 0x23A JUMP JUMPDEST PUSH2 0xC0 PUSH1 0x4 DUP1 CALLDATASIZE SUB PUSH1 0x40 DUP2 LT ISZERO PUSH2 0x117 JUMPI PUSH1 0x0 DUP1 REVERT JUMPDEST POP DUP1 CALLDATALOAD PUSH1 0xF SIGNEXTEND SWAP1 PUSH1 0x20 ADD CALLDATALOAD PUSH2 0x25A JUMP JUMPDEST PUSH2 0xC0 PUSH1 0x4 DUP1 CALLDATASIZE SUB PUSH1 0x40 DUP2 LT ISZERO PUSH2 0x13D JUMPI PUSH1 0x0 DUP1 REVERT JUMPDEST POP DUP1 CALLDATALOAD PUSH1 0xF SIGNEXTEND SWAP1 PUSH1 0x20 ADD CALLDATALOAD PUSH2 0x33D JUMP JUMPDEST PUSH2 0xC0 PUSH1 0x4 DUP1 CALLDATASIZE SUB PUSH1 0x20 DUP2 LT ISZERO PUSH2 0x163 JUMPI PUSH1 0x0 DUP1 REVERT JUMPDEST POP CALLDATALOAD PUSH1 0xF SIGNEXTEND PUSH2 0x394 JUMP JUMPDEST PUSH2 0xC0 PUSH1 0x4 DUP1 CALLDATASIZE SUB PUSH1 0x40 DUP2 LT ISZERO PUSH2 0x183 JUMPI PUSH1 0x0 DUP1 REVERT JUMPDEST POP DUP1 CALLDATALOAD PUSH1 0xF SWAP1 DUP2 SIGNEXTEND SWAP2 PUSH1 0x20 ADD CALLDATALOAD SWAP1 SIGNEXTEND PUSH2 0x3A9 JUMP JUMPDEST PUSH2 0xC0 PUSH1 0x4 DUP1 CALLDATASIZE SUB PUSH1 0x20 DUP2 LT ISZERO PUSH2 0x1AD JUMPI PUSH1 0x0 DUP1 REVERT JUMPDEST POP CALLDATALOAD PUSH1 0xF SIGNEXTEND PUSH2 0x3B7 JUMP JUMPDEST PUSH2 0xC0 PUSH1 0x4 DUP1 CALLDATASIZE SUB PUSH1 0x20 DUP2 LT ISZERO PUSH2 0x1CD JUMPI PUSH1 0x0 DUP1 REVERT JUMPDEST POP CALLDATALOAD PUSH1 0xA SIGNEXTEND PUSH2 0x3C4 JUMP JUMPDEST PUSH1 0x0 DUP1 DUP3 PUSH1 0xA SIGNEXTEND SLT ISZERO PUSH2 0x1E9 JUMPI PUSH1 0x0 DUP1 REVERT JUMPDEST PUSH1 0x1 PUSH1 0x28 SHL JUMPDEST DUP3 PUSH1 0xA SIGNEXTEND PUSH1 0x0 EQ PUSH2 0x231 JUMPI DUP3 PUSH1 0x1 AND PUSH1 0xA SIGNEXTEND PUSH1 0x1 EQ ISZERO PUSH2 0x216 JUMPI PUSH2 0x213 DUP2 DUP6 PUSH2 0x3A9 JUMP JUMPDEST SWAP1 POP JUMPDEST PUSH1 0x1 DUP4 PUSH1 0xA SIGNEXTEND SWAP1 SAR SWAP3 POP PUSH2 0x22A DUP5 DUP6 PUSH2 0x3A9 JUMP JUMPDEST SWAP4 POP PUSH2 0x1EF JUMP JUMPDEST SWAP1 POP JUMPDEST SWAP3 SWAP2 POP POP JUMP JUMPDEST PUSH1 0x0 PUSH1 0xF DUP3 DUP2 SIGNEXTEND SWAP1 DUP5 SWAP1 SIGNEXTEND PUSH1 0x1 PUSH1 0x28 SHL MUL DUP2 PUSH2 0x252 JUMPI INVALID JUMPDEST SDIV SWAP4 SWAP3 POP POP POP JUMP JUMPDEST PUSH1 0x0 DUP1 DUP4 PUSH1 0xF SIGNEXTEND SGT PUSH2 0x26B JUMPI PUSH1 0x0 DUP1 REVERT JUMPDEST PUSH1 0xF DUP4 SWAP1 SIGNEXTEND PUSH1 0x1 PUSH1 0x28 SHL EQ ISZERO PUSH2 0x283 JUMPI POP PUSH1 0x0 PUSH2 0x234 JUMP JUMPDEST PUSH1 0x0 DUP1 PUSH2 0x28F DUP6 PUSH2 0x3D0 JUMP JUMPDEST SWAP1 SWAP3 POP SWAP1 POP PUSH1 0x0 PUSH2 0x2AE PUSH5 0xFFFFFFFFFF NOT DUP5 ADD PUSH1 0x1 PUSH1 0x28 SHL DUP6 ADD PUSH2 0x23A JUMP JUMPDEST SWAP1 POP PUSH1 0x0 DUP1 JUMPDEST DUP7 DUP2 PUSH1 0xA SIGNEXTEND SLT ISZERO PUSH2 0x306 JUMPI PUSH1 0x0 PUSH2 0x2E8 PUSH2 0x2D4 DUP6 DUP5 PUSH1 0x2 MUL PUSH1 0x1 ADD PUSH2 0x1D7 JUMP JUMPDEST PUSH2 0x2E3 DUP5 PUSH1 0x2 MUL PUSH1 0x1 ADD PUSH2 0x3C4 JUMP JUMPDEST PUSH2 0x23A JUMP JUMPDEST SWAP3 DUP4 ADD SWAP3 SWAP1 POP PUSH1 0xF DUP2 SWAP1 SIGNEXTEND PUSH2 0x2FD JUMPI POP PUSH2 0x306 JUMP JUMPDEST POP PUSH1 0x1 ADD PUSH2 0x2B4 JUMP JUMPDEST POP PUSH2 0x317 DUP2 PUSH6 0x20000000000 PUSH2 0x3A9 JUMP JUMPDEST SWAP1 POP DUP1 PUSH2 0x331 PUSH2 0x326 DUP6 PUSH2 0x3C4 JUMP JUMPDEST PUSH5 0xB17217F7D2 PUSH2 0x3A9 JUMP JUMPDEST ADD SWAP8 SWAP7 POP POP POP POP POP POP POP JUMP JUMPDEST PUSH1 0x0 DUP1 PUSH1 0x1 PUSH1 0x28 SHL DUP2 JUMPDEST DUP5 DUP2 PUSH1 0xA SIGNEXTEND SLT ISZERO PUSH2 0x38A JUMPI SWAP2 DUP2 ADD SWAP2 PUSH2 0x36F DUP3 PUSH2 0x36A DUP9 PUSH2 0x2E3 PUSH1 0x1 DUP7 ADD PUSH2 0x3C4 JUMP JUMPDEST PUSH2 0x3A9 JUMP JUMPDEST SWAP2 POP DUP2 PUSH1 0xF SIGNEXTEND PUSH1 0x0 EQ ISZERO PUSH2 0x382 JUMPI PUSH2 0x38A JUMP JUMPDEST PUSH1 0x1 ADD PUSH2 0x347 JUMP JUMPDEST POP SWAP1 SWAP5 SWAP4 POP POP POP POP JUMP JUMPDEST PUSH1 0x0 PUSH2 0x3A1 DUP3 PUSH1 0x32 PUSH2 0x33D JUMP JUMPDEST SWAP1 POP JUMPDEST SWAP2 SWAP1 POP JUMP JUMPDEST PUSH1 0xF SWAP2 DUP3 SIGNEXTEND SWAP2 SIGNEXTEND MUL PUSH1 0x28 SAR SWAP1 JUMP JUMPDEST PUSH1 0x0 PUSH2 0x3A1 DUP3 PUSH1 0x32 PUSH2 0x25A JUMP JUMPDEST PUSH1 0xA SIGNEXTEND PUSH1 0x1 PUSH1 0x28 SHL MUL SWAP1 JUMP JUMPDEST PUSH1 0x0 DUP1 PUSH1 0x0 DUP4 PUSH1 0xF SIGNEXTEND SGT PUSH2 0x3E3 JUMPI PUSH1 0x0 DUP1 REVERT JUMPDEST PUSH1 0x0 PUSH2 0x3F9 PUSH2 0x3F4 DUP6 PUSH1 0xF SIGNEXTEND PUSH2 0x45E JUMP JUMPDEST PUSH2 0x498 JUMP JUMPDEST PUSH1 0xFF AND SWAP1 POP PUSH1 0x28 DUP2 SUB SWAP2 POP PUSH1 0x0 DUP3 PUSH1 0xA SIGNEXTEND SLT ISZERO PUSH2 0x432 JUMPI DUP2 PUSH1 0x0 SUB PUSH1 0xA SIGNEXTEND PUSH1 0xF SIGNEXTEND DUP5 PUSH1 0xF SIGNEXTEND PUSH1 0x0 DUP3 SLT ISZERO PUSH2 0x429 JUMPI INVALID JUMPDEST SWAP1 SHL SWAP3 POP PUSH2 0x458 JUMP JUMPDEST PUSH1 0x0 DUP3 PUSH1 0xA SIGNEXTEND SLT PUSH2 0x458 JUMPI DUP2 PUSH1 0xA SIGNEXTEND PUSH1 0xF SIGNEXTEND DUP5 PUSH1 0xF SIGNEXTEND PUSH1 0x0 DUP3 SLT ISZERO PUSH2 0x453 JUMPI INVALID JUMPDEST SWAP1 SAR SWAP3 POP JUMPDEST POP SWAP2 POP SWAP2 JUMP JUMPDEST PUSH1 0x1 DUP2 DUP2 SHR SWAP1 SWAP2 OR PUSH1 0x2 DUP2 SWAP1 SHR OR PUSH1 0x4 DUP2 SWAP1 SHR OR PUSH1 0x8 DUP2 SWAP1 SHR OR PUSH1 0x10 DUP2 SWAP1 SHR OR PUSH1 0x20 DUP2 SWAP1 SHR OR PUSH1 0x40 DUP2 SWAP1 SHR OR PUSH1 0x80 DUP2 SWAP1 SHR OR SWAP1 DUP2 SWAP1 SHR XOR SWAP1 JUMP JUMPDEST PUSH1 0x0 PUSH32 0xAAAAAAAAAAAAAAAAAAAAAAAAAAAAAAAAAAAAAAAAAAAAAAAAAAAAAAAAAAAAAAAA DUP3 AND ISZERO PUSH2 0x4C6 JUMPI PUSH1 0x1 OR JUMPDEST PUSH32 0xCCCCCCCCCCCCCCCCCCCCCCCCCCCCCCCCCCCCCCCCCCCCCCCCCCCCCCCCCCCCCCCC DUP3 AND ISZERO PUSH2 0x4F2 JUMPI PUSH1 0x2 OR JUMPDEST PUSH32 0xF0F0F0F0F0F0F0F0F0F0F0F0F0F0F0F0F0F0F0F0F0F0F0F0F0F0F0F0F0F0F0F0 DUP3 AND ISZERO PUSH2 0x51E JUMPI PUSH1 0x4 OR JUMPDEST PUSH32 0xFF00FF00FF00FF00FF00FF00FF00FF00FF00FF00FF00FF00FF00FF00FF00FF00 DUP3 AND ISZERO PUSH2 0x54A JUMPI PUSH1 0x8 OR JUMPDEST PUSH32 0xFFFF0000FFFF0000FFFF0000FFFF0000FFFF0000FFFF0000FFFF0000FFFF0000 DUP3 AND ISZERO PUSH2 0x576 JUMPI PUSH1 0x10 OR JUMPDEST PUSH32 0xFFFFFFFF00000000FFFFFFFF00000000FFFFFFFF00000000FFFFFFFF00000000 DUP3 AND ISZERO PUSH2 0x5A2 JUMPI PUSH1 0x20 OR JUMPDEST PUSH24 0xFFFFFFFFFFFFFFFF0000000000000000FFFFFFFFFFFFFFFF NOT DUP3 AND ISZERO PUSH2 0x5C7 JUMPI PUSH1 0x40 OR JUMPDEST PUSH16 0xFFFFFFFFFFFFFFFFFFFFFFFFFFFFFFFF NOT DUP3 AND ISZERO PUSH2 0x3A4 JUMPI PUSH1 0x80 OR SWAP2 SWAP1 POP JUMP INVALID LOG2 PUSH5 0x6970667358 0x22 SLT KECCAK256 0xA7 0x26 0xAE CALLER 0x4F 0xA5 0x4C 0x25 PUSH29 0xD5FDD698B067C6A615D80297E1CB4E230A533B2FA1ECAC64736F6C6343 STOP MOD 0xC STOP CALLER "
        },
        "methodIdentifiers": {
          "div(int128,int128)": "25f39a63",
          "exp(int128)": "b0cbaab2",
          "expLimited(int128,int256)": "92aea05a",
          "ipow(int128,int88)": "082ec556",
          "ln(int128)": "d271b067",
          "lnLimited(int128,int256)": "82396bc6",
          "mul(int128,int128)": "b6972146",
          "toReal(int88)": "f5a5d503"
        }
      }
    }
  }
}