{
  "_format": "hh-sol-artifact-1",
  "contractName": "FrostyGarmentCollection",
  "sourceName": "contracts/garment/FrostyGarmentCollection.sol",
  "abi": [
    {
      "inputs": [
        {
          "internalType": "contract FrostyAccessControls",
          "name": "_accessControls",
          "type": "address"
        },
        {
          "internalType": "contract IFrostyGarmentNFT",
          "name": "_garmentNft",
          "type": "address"
        },
        {
          "internalType": "contract IFrostyMaterials",
          "name": "_materials",
          "type": "address"
        }
      ],
      "stateMutability": "nonpayable",
      "type": "constructor"
    },
    {
      "anonymous": false,
      "inputs": [
        {
          "indexed": false,
          "internalType": "uint256",
          "name": "collectionId",
          "type": "uint256"
        }
      ],
      "name": "BurnGarmentCollection",
      "type": "event"
    },
    {
      "anonymous": false,
      "inputs": [],
      "name": "FrostyGarmentCollectionContractDeployed",
      "type": "event"
    },
    {
      "anonymous": false,
      "inputs": [
        {
          "indexed": false,
          "internalType": "uint256",
          "name": "collectionId",
          "type": "uint256"
        },
        {
          "indexed": false,
          "internalType": "uint256",
          "name": "auctionTokenId",
          "type": "uint256"
        },
        {
          "indexed": false,
          "internalType": "string",
          "name": "rarity",
          "type": "string"
        }
      ],
      "name": "MintGarmentCollection",
      "type": "event"
    },
    {
      "inputs": [],
      "name": "accessControls",
      "outputs": [
        {
          "internalType": "contract FrostyAccessControls",
          "name": "",
          "type": "address"
        }
      ],
      "stateMutability": "view",
      "type": "function"
    },
    {
      "inputs": [
        {
          "internalType": "uint256",
          "name": "_collectionId",
          "type": "uint256"
        },
        {
          "internalType": "address",
          "name": "_address",
          "type": "address"
        }
      ],
      "name": "balanceOfAddress",
      "outputs": [
        {
          "internalType": "uint256",
          "name": "",
          "type": "uint256"
        }
      ],
      "stateMutability": "view",
      "type": "function"
    },
    {
      "inputs": [
        {
          "internalType": "uint256",
          "name": "_collectionId",
          "type": "uint256"
        }
      ],
      "name": "burnCollection",
      "outputs": [],
      "stateMutability": "nonpayable",
      "type": "function"
    },
    {
      "inputs": [],
      "name": "garmentNft",
      "outputs": [
        {
          "internalType": "contract IFrostyGarmentNFT",
          "name": "",
          "type": "address"
        }
      ],
      "stateMutability": "view",
      "type": "function"
    },
    {
      "inputs": [
        {
          "internalType": "uint256",
          "name": "_collectionId",
          "type": "uint256"
        }
      ],
      "name": "getCollection",
      "outputs": [
        {
          "internalType": "uint256[]",
          "name": "_garmentTokenIds",
          "type": "uint256[]"
        },
        {
          "internalType": "uint256",
          "name": "_amount",
          "type": "uint256"
        },
        {
          "internalType": "string",
          "name": "_tokenUri",
          "type": "string"
        },
        {
          "internalType": "address",
          "name": "_designer",
          "type": "address"
        }
      ],
      "stateMutability": "view",
      "type": "function"
    },
    {
      "inputs": [
        {
          "internalType": "uint256",
          "name": "_collectionId",
          "type": "uint256"
        }
      ],
      "name": "getSupply",
      "outputs": [
        {
          "internalType": "uint256",
          "name": "",
          "type": "uint256"
        }
      ],
      "stateMutability": "view",
      "type": "function"
    },
    {
      "inputs": [
        {
          "internalType": "uint256",
          "name": "_collectionId",
          "type": "uint256"
        }
      ],
      "name": "getTokenIds",
      "outputs": [
        {
          "internalType": "uint256[]",
          "name": "_garmentTokenIds",
          "type": "uint256[]"
        }
      ],
      "stateMutability": "view",
      "type": "function"
    },
    {
      "inputs": [
        {
          "internalType": "uint256",
          "name": "_collectionId",
          "type": "uint256"
        },
        {
          "internalType": "address",
          "name": "_address",
          "type": "address"
        }
      ],
      "name": "hasOwnedOf",
      "outputs": [
        {
          "internalType": "bool",
          "name": "",
          "type": "bool"
        }
      ],
      "stateMutability": "view",
      "type": "function"
    },
    {
      "inputs": [],
      "name": "materials",
      "outputs": [
        {
          "internalType": "contract IFrostyMaterials",
          "name": "",
          "type": "address"
        }
      ],
      "stateMutability": "view",
      "type": "function"
    },
    {
      "inputs": [],
      "name": "maxGarmentsPerCollection",
      "outputs": [
        {
          "internalType": "uint256",
          "name": "",
          "type": "uint256"
        }
      ],
      "stateMutability": "view",
      "type": "function"
    },
    {
      "inputs": [
        {
          "internalType": "string",
          "name": "_tokenUri",
          "type": "string"
        },
        {
          "internalType": "address",
          "name": "_designer",
          "type": "address"
        },
        {
          "internalType": "uint256",
          "name": "_amount",
          "type": "uint256"
        },
        {
          "internalType": "uint256",
          "name": "_auctionId",
          "type": "uint256"
        },
        {
          "internalType": "string",
          "name": "_rarity",
          "type": "string"
        },
        {
          "internalType": "uint256[]",
          "name": "_childTokenIds",
          "type": "uint256[]"
        },
        {
          "internalType": "uint256[]",
          "name": "_childTokenAmounts",
          "type": "uint256[]"
        }
      ],
      "name": "mintCollection",
      "outputs": [
        {
          "internalType": "uint256",
          "name": "",
          "type": "uint256"
        }
      ],
      "stateMutability": "nonpayable",
      "type": "function"
    },
    {
      "inputs": [
        {
          "internalType": "address",
          "name": "_operator",
          "type": "address"
        },
        {
          "internalType": "address",
          "name": "_from",
          "type": "address"
        },
        {
          "internalType": "uint256[]",
          "name": "_ids",
          "type": "uint256[]"
        },
        {
          "internalType": "uint256[]",
          "name": "_values",
          "type": "uint256[]"
        },
        {
          "internalType": "bytes",
          "name": "_data",
          "type": "bytes"
        }
      ],
      "name": "onERC1155BatchReceived",
      "outputs": [
        {
          "internalType": "bytes4",
          "name": "",
          "type": "bytes4"
        }
      ],
      "stateMutability": "nonpayable",
      "type": "function"
    },
    {
      "inputs": [
        {
          "internalType": "address",
          "name": "_operator",
          "type": "address"
        },
        {
          "internalType": "address",
          "name": "_from",
          "type": "address"
        },
        {
          "internalType": "uint256",
          "name": "_id",
          "type": "uint256"
        },
        {
          "internalType": "uint256",
          "name": "_amount",
          "type": "uint256"
        },
        {
          "internalType": "bytes",
          "name": "_data",
          "type": "bytes"
        }
      ],
      "name": "onERC1155Received",
      "outputs": [
        {
          "internalType": "bytes4",
          "name": "",
          "type": "bytes4"
        }
      ],
      "stateMutability": "nonpayable",
      "type": "function"
    },
    {
      "inputs": [
        {
          "internalType": "address",
          "name": "operator",
          "type": "address"
        },
        {
          "internalType": "address",
          "name": "from",
          "type": "address"
        },
        {
          "internalType": "uint256",
          "name": "tokenId",
          "type": "uint256"
        },
        {
          "internalType": "bytes",
          "name": "data",
          "type": "bytes"
        }
      ],
      "name": "onERC721Received",
      "outputs": [
        {
          "internalType": "bytes4",
          "name": "",
          "type": "bytes4"
        }
      ],
      "stateMutability": "nonpayable",
      "type": "function"
    },
    {
      "inputs": [
        {
          "internalType": "bytes4",
          "name": "interfaceId",
          "type": "bytes4"
        }
      ],
      "name": "supportsInterface",
      "outputs": [
        {
          "internalType": "bool",
          "name": "",
          "type": "bool"
        }
      ],
      "stateMutability": "view",
      "type": "function"
    },
    {
      "inputs": [
        {
          "internalType": "contract FrostyAccessControls",
          "name": "_accessControls",
          "type": "address"
        }
      ],
      "name": "updateAccessControls",
      "outputs": [],
      "stateMutability": "nonpayable",
      "type": "function"
    },
    {
      "inputs": [
        {
          "internalType": "uint256",
          "name": "_maxGarmentsPerCollection",
          "type": "uint256"
        }
      ],
      "name": "updateMaxGarmentsPerCollection",
      "outputs": [],
      "stateMutability": "nonpayable",
      "type": "function"
    }
  ],
  "bytecode": "0x6080604052600a6006553480156200001657600080fd5b5060405162001f6f38038062001f6f833981810160405260608110156200003c57600080fd5b50805160208201516040909201516001600055909190620000646301ffc9a760e01b620001ba565b62000076630271189760e51b620001ba565b6001600160a01b038316620000bd5760405162461bcd60e51b815260040180806020018281038252603081526020018062001f3f6030913960400191505060405180910390fd5b6001600160a01b038216620001045760405162461bcd60e51b815260040180806020018281038252602481526020018062001f1b6024913960400191505060405180910390fd5b6001600160a01b0381166200014b5760405162461bcd60e51b815260040180806020018281038252603681526020018062001ee56036913960400191505060405180910390fd5b600380546001600160a01b038086166001600160a01b0319928316179092556002805485841690831617905560058054928416929091169190911790556040517fd9cc4d54d0d82cca93fbd8720d2fbb15f8f416d2c07d49c433a8a675b3390d7c90600090a150505062000242565b6001600160e01b031980821614156200021a576040805162461bcd60e51b815260206004820152601c60248201527f4552433136353a20696e76616c696420696e7465726661636520696400000000604482015290519081900360640190fd5b6001600160e01b0319166000908152600160208190526040909120805460ff19169091179055565b611c9380620002526000396000f3fe608060405234801561001057600080fd5b506004361061010b5760003560e01c80635a1f3c28116100a2578063b6b7ae5911610071578063b6b7ae591461048a578063bc197c8114610492578063d912f50614610653578063f23a6e61146107cc578063f77ee79d146108955761010b565b80635a1f3c281461033f5780636ef3da9414610430578063748365ef14610456578063a79bbb0a1461045e5761010b565b80631f159d2a116100de5780631f159d2a1461028957806350b6bbc2146102ad57806354f0e080146102ca57806357991d30146102d25761010b565b806301ffc9a714610110578063150b7a021461014b5780631a0c98311461022c5780631ecc23411461024b575b600080fd5b6101376004803603602081101561012657600080fd5b50356001600160e01b0319166108b2565b604080519115158252519081900360200190f35b61020f6004803603608081101561016157600080fd5b6001600160a01b03823581169260208101359091169160408201359190810190608081016060820135600160201b81111561019b57600080fd5b8201836020820111156101ad57600080fd5b803590602001918460018302840111600160201b831117156101ce57600080fd5b91908080601f0160208091040260200160405190810160405280939291908181526020018383808284376000920191909152509295506108d1945050505050565b604080516001600160e01b03199092168252519081900360200190f35b6102496004803603602081101561024257600080fd5b50356108e1565b005b6102776004803603604081101561026157600080fd5b50803590602001356001600160a01b0316610b2b565b60408051918252519081900360200190f35b610291610b3e565b604080516001600160a01b039092168252519081900360200190f35b610249600480360360208110156102c357600080fd5b5035610b4d565b610277610c0f565b6102ef600480360360208110156102e857600080fd5b5035610c15565b60408051602080825283518183015283519192839290830191858101910280838360005b8381101561032b578181015183820152602001610313565b505050509050019250505060405180910390f35b61035c6004803603602081101561035557600080fd5b5035610e0c565b604051808060200185815260200180602001846001600160a01b03168152602001838103835287818151815260200191508051906020019060200280838360005b838110156103b557818101518382015260200161039d565b50505050905001838103825285818151815260200191508051906020019080838360005b838110156103f15781810151838201526020016103d9565b50505050905090810190601f16801561041e5780820380516001836020036101000a031916815260200191505b50965050505050505060405180910390f35b6102496004803603602081101561044657600080fd5b50356001600160a01b0316611023565b610291611102565b6101376004803603604081101561047457600080fd5b50803590602001356001600160a01b0316611111565b61029161114f565b61020f600480360360a08110156104a857600080fd5b6001600160a01b038235811692602081013590911691810190606081016040820135600160201b8111156104db57600080fd5b8201836020820111156104ed57600080fd5b803590602001918460208302840111600160201b8311171561050e57600080fd5b9190808060200260200160405190810160405280939291908181526020018383602002808284376000920191909152509295949360208101935035915050600160201b81111561055d57600080fd5b82018360208201111561056f57600080fd5b803590602001918460208302840111600160201b8311171561059057600080fd5b9190808060200260200160405190810160405280939291908181526020018383602002808284376000920191909152509295949360208101935035915050600160201b8111156105df57600080fd5b8201836020820111156105f157600080fd5b803590602001918460018302840111600160201b8311171561061257600080fd5b91908080601f01602080910402602001604051908101604052809392919081815260200183838082843760009201919091525092955061115e945050505050565b610277600480360360e081101561066957600080fd5b810190602081018135600160201b81111561068357600080fd5b82018360208201111561069557600080fd5b803590602001918460018302840111600160201b831117156106b657600080fd5b919390926001600160a01b03833516926020810135926040820135929091608081019060600135600160201b8111156106ee57600080fd5b82018360208201111561070057600080fd5b803590602001918460018302840111600160201b8311171561072157600080fd5b919390929091602081019035600160201b81111561073e57600080fd5b82018360208201111561075057600080fd5b803590602001918460208302840111600160201b8311171561077157600080fd5b919390929091602081019035600160201b81111561078e57600080fd5b8201836020820111156107a057600080fd5b803590602001918460208302840111600160201b831117156107c157600080fd5b50909250905061116f565b61020f600480360360a08110156107e257600080fd5b6001600160a01b03823581169260208101359091169160408201359160608101359181019060a081016080820135600160201b81111561082157600080fd5b82018360208201111561083357600080fd5b803590602001918460018302840111600160201b8311171561085457600080fd5b91908080601f01602080910402602001604051908101604052809392919081815260200183838082843760009201919091525092955061182e945050505050565b610277600480360360208110156108ab57600080fd5b503561183f565b6001600160e01b03191660009081526001602052604090205460ff1690565b630a85bd0160e11b949350505050565b6000600482815481106108f057fe5b9060005260206000209060060201905060005b8160010154811015610a8957600082600001828154811061092057fe5b60009182526020918290200154600254604080516331a9108f60e11b81526004810184905290519294506001600160a01b03909116926342842e0e928492636352211e926024808301939192829003018186803b15801561098057600080fd5b505afa158015610994573d6000803e3d6000fd5b505050506040513d60208110156109aa57600080fd5b5051604080516001600160e01b031960e085901b1681526001600160a01b0390921660048301523060248301526044820185905251606480830192600092919082900301818387803b1580156109ff57600080fd5b505af1158015610a13573d6000803e3d6000fd5b505060025460408051630852cd8d60e31b81526004810186905290516001600160a01b0390921693506342966c68925060248082019260009290919082900301818387803b158015610a6457600080fd5b505af1158015610a78573d6000803e3d6000fd5b505060019093019250610903915050565b506040805183815290517f4ead478602203b7216c56822d984fca750ce428f5f9a21f801cc0f3df73be4199181900360200190a160048281548110610aca57fe5b60009182526020822060069091020190610ae482826119b5565b6001820160009055600282016000610afc91906119d6565b6003820180546001600160a01b0319169055600060048301819055610b259060058401906119d6565b50505050565b6000610b37838361186a565b9392505050565b6002546001600160a01b031681565b6003546001600160a01b031663c395fcb3610b66611957565b6040518263ffffffff1660e01b815260040180826001600160a01b0316815260200191505060206040518083038186803b158015610ba357600080fd5b505afa158015610bb7573d6000803e3d6000fd5b505050506040513d6020811015610bcd57600080fd5b5051610c0a5760405162461bcd60e51b815260040180806020018281038252604c815260200180611bd0604c913960600191505060405180910390fd5b600655565b60065481565b6060610c1f611a1a565b60048381548110610c2c57fe5b90600052602060002090600602016040518060c001604052908160008201805480602002602001604051908101604052809291908181526020018280548015610c9457602002820191906000526020600020905b815481526020019060010190808311610c80575b5050505050815260200160018201548152602001600282018054600181600116156101000203166002900480601f016020809104026020016040519081016040528092919081815260200182805460018160011615610100020316600290048015610d405780601f10610d1557610100808354040283529160200191610d40565b820191906000526020600020905b815481529060010190602001808311610d2357829003601f168201915b505050918352505060038201546001600160a01b03166020808301919091526004830154604080840191909152600584018054825160026101006001841615026000190190921691909104601f810185900485028201850190935282815260609094019392909190830182828015610df95780601f10610dce57610100808354040283529160200191610df9565b820191906000526020600020905b815481529060010190602001808311610ddc57829003601f168201915b5050509190925250509051949350505050565b6060600060606000610e1c611a1a565b60048681548110610e2957fe5b90600052602060002090600602016040518060c001604052908160008201805480602002602001604051908101604052809291908181526020018280548015610e9157602002820191906000526020600020905b815481526020019060010190808311610e7d575b5050505050815260200160018201548152602001600282018054600181600116156101000203166002900480601f016020809104026020016040519081016040528092919081815260200182805460018160011615610100020316600290048015610f3d5780601f10610f1257610100808354040283529160200191610f3d565b820191906000526020600020905b815481529060010190602001808311610f2057829003601f168201915b505050918352505060038201546001600160a01b03166020808301919091526004830154604080840191909152600584018054825160026101006001841615026000190190921691909104601f810185900485028201850190935282815260609094019392909190830182828015610ff65780601f10610fcb57610100808354040283529160200191610ff6565b820191906000526020600020905b815481529060010190602001808311610fd957829003601f168201915b505050919092525050815160208301516040840151606090940151919a9099509297509550909350505050565b6003546001600160a01b031663c395fcb361103c611957565b6040518263ffffffff1660e01b815260040180826001600160a01b0316815260200191505060206040518083038186803b15801561107957600080fd5b505afa15801561108d573d6000803e3d6000fd5b505050506040513d60208110156110a357600080fd5b50516110e05760405162461bcd60e51b8152600401808060200182810382526042815260200180611c1c6042913960600191505060405180910390fd5b600380546001600160a01b0319166001600160a01b0392909216919091179055565b6003546001600160a01b031681565b6000806004848154811061112157fe5b90600052602060002090600602019050600061113d858561186a565b60019092015490911491505092915050565b6005546001600160a01b031681565b63bc197c8160e01b95945050505050565b6003546000906001600160a01b031663c395fcb361118b611957565b6040518263ffffffff1660e01b815260040180826001600160a01b0316815260200191505060206040518083038186803b1580156111c857600080fd5b505afa1580156111dc573d6000803e3d6000fd5b505050506040513d60208110156111f257600080fd5b50518061127d57506003546001600160a01b031663113b0ab2611213611957565b6040518263ffffffff1660e01b815260040180826001600160a01b0316815260200191505060206040518083038186803b15801561125057600080fd5b505afa158015611264573d6000803e3d6000fd5b505050506040513d602081101561127a57600080fd5b50515b8061130657506003546001600160a01b031663099db01761129c611957565b6040518263ffffffff1660e01b815260040180826001600160a01b0316815260200191505060206040518083038186803b1580156112d957600080fd5b505afa1580156112ed573d6000803e3d6000fd5b505050506040513d602081101561130357600080fd5b50515b6113415760405162461bcd60e51b8152600401808060200182810382526054815260200180611b276054913960600191505060405180910390fd5b6006548911156113825760405162461bcd60e51b8152600401808060200182810382526055815260200180611b7b6055913960600191505060405180910390fd5b61138a611a1a565b60408051600060c0820181815260e08301909352909182915081526020018b81526020018e8e8080601f0160208091040260200160405190810160405280939291908181526020018383808284376000920191909152505050908252506001600160a01b038d1660208083019190915260408083018d90528051601f8c018390048302810183019091528a8152606090920191908b908b90819084018382808284376000920182905250939094525050600480546001810182559152825180519394509092849250600684027f8a35acfbc15ff81a39ae7d344fd709f28e8600b4aa8c65c6b64bfe7fe36bd19b019161148891839160200190611a59565b506020828101516001830155604083015180516114ab9260028501920190611aa4565b5060608201516003820180546001600160a01b0319166001600160a01b039092169190911790556080820151600482015560a082015180516114f7916005840191602090910190611aa4565b50505060005b8b8110156117ac576002546000906001600160a01b031663fa8509c8611521611957565b866040015187606001516040518463ffffffff1660e01b815260040180846001600160a01b0316815260200180602001836001600160a01b03168152602001828103825284818151815260200191508051906020019080838360005b8381101561159557818101518382015260200161157d565b50505050905090810190601f1680156115c25780820380516001836020036101000a031916815260200191505b50945050505050602060405180830381600087803b1580156115e357600080fd5b505af11580156115f7573d6000803e3d6000fd5b505050506040513d602081101561160d57600080fd5b5051905087156117725760055460025460408051602080820186905282518083038201815282840193849052630188716f60e51b9093526001600160a01b039384166084830181905260806044840190815260c484018f9052949095169463310e2de0948f948f948f948f9493918291606482019160a481019160e4909101908b908b0280828437600083820152601f01601f191690910185810384528881526020908101915089908902808284376000838201819052601f909101601f191690920186810384528751815287516020918201939189019250908190849084905b838110156117065781810151838201526020016116ee565b50505050905090810190601f1680156117335780820380516001836020036101000a031916815260200191505b509950505050505050505050600060405180830381600087803b15801561175957600080fd5b505af115801561176d573d6000803e3d6000fd5b505050505b6004838154811061177f57fe5b600091825260208083206006909202909101805460018181018355918452919092200191909155016114fd565b507f7f798d2e13788c8dd4dca17fffc87b37312027b29db7c022df5135c758a73174818b8b8b60405180858152602001848152602001806020018281038252848482818152602001925080828437600083820152604051601f909101601f191690920182900397509095505050505050a19d9c50505050505050505050505050565b63f23a6e6160e01b95945050505050565b6000806004838154811061184f57fe5b60009182526020909120600160069092020101549392505050565b6000806004848154811061187a57fe5b6000918252602082206006909102019150805b826001015481101561194e5760025483546001600160a01b03808816921690636352211e908690859081106118be57fe5b90600052602060002001546040518263ffffffff1660e01b81526004018082815260200191505060206040518083038186803b1580156118fd57600080fd5b505afa158015611911573d6000803e3d6000fd5b505050506040513d602081101561192757600080fd5b50516001600160a01b031614156119465761194382600161195b565b91505b60010161188d565b50949350505050565b3390565b600082820183811015610b37576040805162461bcd60e51b815260206004820152601b60248201527f536166654d6174683a206164646974696f6e206f766572666c6f770000000000604482015290519081900360640190fd5b50805460008255906000526020600020908101906119d39190611b11565b50565b50805460018160011615610100020316600290046000825580601f106119fc57506119d3565b601f0160209004906000526020600020908101906119d39190611b11565b6040518060c0016040528060608152602001600081526020016060815260200160006001600160a01b0316815260200160008152602001606081525090565b828054828255906000526020600020908101928215611a94579160200282015b82811115611a94578251825591602001919060010190611a79565b50611aa0929150611b11565b5090565b828054600181600116156101000203166002900490600052602060002090601f016020900481019282601f10611ae557805160ff1916838001178555611a94565b82800160010185558215611a945791820182811115611a94578251825591602001919060010190611a79565b5b80821115611aa05760008155600101611b1256fe46726f7374794761726d656e74436f6c6c656374696f6e2e6d696e74436f6c6c656374696f6e3a2053656e646572206d757374206861766520746865206d696e746572206f7220636f6e747261637420726f6c6546726f7374794761726d656e74436f6c6c656374696f6e2e6d696e74436f6c6c656374696f6e3a20416d6f756e742063616e6e6f7420657863656564206d61784761726d656e7473506572436f6c6c656374696f6e46726f7374794761726d656e74436f6c6c656374696f6e2e7570646174654d61784761726d656e7473506572436f6c6c656374696f6e3a2053656e646572206d7573742062652061646d696e46726f7374794761726d656e74436f6c6c656374696f6e2e757064617465416363657373436f6e74726f6c733a2053656e646572206d7573742062652061646d696ea26469706673582212202649066af923b9129570e607a0b0dad07920c5f447cc93e11c960f841bfcaacb64736f6c634300060c003346726f7374794761726d656e74436f6c6c656374696f6e3a20496e76616c6964204368696c642045524331313535206164647265737346726f7374794761726d656e74436f6c6c656374696f6e3a20496e76616c6964204e465446726f7374794761726d656e74436f6c6c656374696f6e3a20496e76616c69642041636365737320436f6e74726f6c73",
  "linkReferences": {},
  "deployedLinkReferences": {}
}