{
  "_format": "hh-sol-artifact-1",
  "contractName": "RealMath",
  "sourceName": "contracts/Utils/RealMath.sol",
  "abi": [
    {
      "inputs": [
        {
          "internalType": "int128",
          "name": "real_numerator",
          "type": "int128"
        },
        {
          "internalType": "int128",
          "name": "real_denominator",
          "type": "int128"
        }
      ],
      "name": "div",
      "outputs": [
        {
          "internalType": "int128",
          "name": "",
          "type": "int128"
        }
      ],
      "stateMutability": "pure",
      "type": "function"
    },
    {
      "inputs": [
        {
          "internalType": "int128",
          "name": "real_arg",
          "type": "int128"
        }
      ],
      "name": "exp",
      "outputs": [
        {
          "internalType": "int128",
          "name": "",
          "type": "int128"
        }
      ],
      "stateMutability": "pure",
      "type": "function"
    },
    {
      "inputs": [
        {
          "internalType": "int128",
          "name": "real_arg",
          "type": "int128"
        },
        {
          "internalType": "int256",
          "name": "max_iterations",
          "type": "int256"
        }
      ],
      "name": "expLimited",
      "outputs": [
        {
          "internalType": "int128",
          "name": "",
          "type": "int128"
        }
      ],
      "stateMutability": "pure",
      "type": "function"
    },
    {
      "inputs": [
        {
          "internalType": "int128",
          "name": "real_base",
          "type": "int128"
        },
        {
          "internalType": "int88",
          "name": "exponent",
          "type": "int88"
        }
      ],
      "name": "ipow",
      "outputs": [
        {
          "internalType": "int128",
          "name": "",
          "type": "int128"
        }
      ],
      "stateMutability": "pure",
      "type": "function"
    },
    {
      "inputs": [
        {
          "internalType": "int128",
          "name": "real_arg",
          "type": "int128"
        }
      ],
      "name": "ln",
      "outputs": [
        {
          "internalType": "int128",
          "name": "",
          "type": "int128"
        }
      ],
      "stateMutability": "pure",
      "type": "function"
    },
    {
      "inputs": [
        {
          "internalType": "int128",
          "name": "real_arg",
          "type": "int128"
        },
        {
          "internalType": "int256",
          "name": "max_iterations",
          "type": "int256"
        }
      ],
      "name": "lnLimited",
      "outputs": [
        {
          "internalType": "int128",
          "name": "",
          "type": "int128"
        }
      ],
      "stateMutability": "pure",
      "type": "function"
    },
    {
      "inputs": [
        {
          "internalType": "int128",
          "name": "real_a",
          "type": "int128"
        },
        {
          "internalType": "int128",
          "name": "real_b",
          "type": "int128"
        }
      ],
      "name": "mul",
      "outputs": [
        {
          "internalType": "int128",
          "name": "",
          "type": "int128"
        }
      ],
      "stateMutability": "pure",
      "type": "function"
    },
    {
      "inputs": [
        {
          "internalType": "int88",
          "name": "ipart",
          "type": "int88"
        }
      ],
      "name": "toReal",
      "outputs": [
        {
          "internalType": "int128",
          "name": "",
          "type": "int128"
        }
      ],
      "stateMutability": "pure",
      "type": "function"
    }
  ],
  "bytecode": "0x61061e610026600b82828239805160001a60731461001957fe5b30600052607381538281f3fe73000000000000000000000000000000000000000030146080604052600436106100925760003560e01c8063b0cbaab211610065578063b0cbaab21461014d578063b69721461461016d578063d271b06714610197578063f5a5d503146101b757610092565b8063082ec5561461009757806325f39a63146100d757806382396bc61461010157806392aea05a14610127575b600080fd5b6100c0600480360360408110156100ad57600080fd5b508035600f0b9060200135600a0b6101d7565b60408051600f9290920b8252519081900360200190f35b6100c0600480360360408110156100ed57600080fd5b508035600f90810b9160200135900b61023a565b6100c06004803603604081101561011757600080fd5b508035600f0b906020013561025a565b6100c06004803603604081101561013d57600080fd5b508035600f0b906020013561033d565b6100c06004803603602081101561016357600080fd5b5035600f0b610394565b6100c06004803603604081101561018357600080fd5b508035600f90810b9160200135900b6103a9565b6100c0600480360360208110156101ad57600080fd5b5035600f0b6103b7565b6100c0600480360360208110156101cd57600080fd5b5035600a0b6103c4565b60008082600a0b12156101e957600080fd5b600160281b5b82600a0b6000146102315782600116600a0b600114156102165761021381856103a9565b90505b600183600a0b901d925061022a84856103a9565b93506101ef565b90505b92915050565b6000600f82810b9084900b600160281b028161025257fe5b059392505050565b60008083600f0b1361026b57600080fd5b600f83900b600160281b141561028357506000610234565b60008061028f856103d0565b909250905060006102ae64ffffffffff198401600160281b850161023a565b90506000805b8681600a0b12156103065760006102e86102d485846002026001016101d7565b6102e3846002026001016103c4565b61023a565b928301929050600f81900b6102fd5750610306565b506001016102b4565b5061031781650200000000006103a9565b905080610331610326856103c4565b64b17217f7d26103a9565b01979650505050505050565b600080600160281b815b8481600a0b121561038a579181019161036f8261036a886102e3600186016103c4565b6103a9565b915081600f0b600014156103825761038a565b600101610347565b5090949350505050565b60006103a182603261033d565b90505b919050565b600f91820b910b0260281d90565b60006103a182603261025a565b600a0b600160281b0290565b600080600083600f0b136103e357600080fd5b60006103f96103f485600f0b61045e565b610498565b60ff169050602881039150600082600a0b12156104325781600003600a0b600f0b84600f0b600082121561042957fe5b901b9250610458565b600082600a0b126104585781600a0b600f0b84600f0b600082121561045357fe5b901d92505b50915091565b600181811c909117600281901c17600481901c17600881901c17601081901c17602081901c17604081901c17608081901c179081901c1890565b60007faaaaaaaaaaaaaaaaaaaaaaaaaaaaaaaaaaaaaaaaaaaaaaaaaaaaaaaaaaaaaaaa8216156104c6576001175b7fcccccccccccccccccccccccccccccccccccccccccccccccccccccccccccccccc8216156104f2576002175b7ff0f0f0f0f0f0f0f0f0f0f0f0f0f0f0f0f0f0f0f0f0f0f0f0f0f0f0f0f0f0f0f082161561051e576004175b7fff00ff00ff00ff00ff00ff00ff00ff00ff00ff00ff00ff00ff00ff00ff00ff0082161561054a576008175b7fffff0000ffff0000ffff0000ffff0000ffff0000ffff0000ffff0000ffff0000821615610576576010175b7fffffffff00000000ffffffff00000000ffffffff00000000ffffffff000000008216156105a2576020175b77ffffffffffffffff0000000000000000ffffffffffffffff198216156105c7576040175b6fffffffffffffffffffffffffffffffff198216156103a45760801791905056fea2646970667358221220a726ae334fa54c257cd5fdd698b067c6a615d80297e1cb4e230a533b2fa1ecac64736f6c634300060c0033",
  "linkReferences": {},
  "deployedLinkReferences": {}
}