{
  "_format": "hh-sol-artifact-1",
  "contractName": "FrostyMaterials",
  "sourceName": "contracts/garment/FrostyMaterials.sol",
  "abi": [
    {
      "inputs": [
        {
          "internalType": "string",
          "name": "_name",
          "type": "string"
        },
        {
          "internalType": "string",
          "name": "_symbol",
          "type": "string"
        },
        {
          "internalType": "contract FrostyAccessControls",
          "name": "_accessControls",
          "type": "address"
        }
      ],
      "stateMutability": "nonpayable",
      "type": "constructor"
    },
    {
      "anonymous": false,
      "inputs": [
        {
          "indexed": true,
          "internalType": "address",
          "name": "account",
          "type": "address"
        },
        {
          "indexed": true,
          "internalType": "address",
          "name": "operator",
          "type": "address"
        },
        {
          "indexed": false,
          "internalType": "bool",
          "name": "approved",
          "type": "bool"
        }
      ],
      "name": "ApprovalForAll",
      "type": "event"
    },
    {
      "anonymous": false,
      "inputs": [
        {
          "indexed": true,
          "internalType": "uint256",
          "name": "childId",
          "type": "uint256"
        }
      ],
      "name": "ChildCreated",
      "type": "event"
    },
    {
      "anonymous": false,
      "inputs": [
        {
          "indexed": false,
          "internalType": "uint256[]",
          "name": "childIds",
          "type": "uint256[]"
        }
      ],
      "name": "ChildrenCreated",
      "type": "event"
    },
    {
      "anonymous": false,
      "inputs": [],
      "name": "FrostyMaterialsDeployed",
      "type": "event"
    },
    {
      "anonymous": false,
      "inputs": [
        {
          "indexed": true,
          "internalType": "address",
          "name": "operator",
          "type": "address"
        },
        {
          "indexed": true,
          "internalType": "address",
          "name": "from",
          "type": "address"
        },
        {
          "indexed": true,
          "internalType": "address",
          "name": "to",
          "type": "address"
        },
        {
          "indexed": false,
          "internalType": "uint256[]",
          "name": "ids",
          "type": "uint256[]"
        },
        {
          "indexed": false,
          "internalType": "uint256[]",
          "name": "values",
          "type": "uint256[]"
        }
      ],
      "name": "TransferBatch",
      "type": "event"
    },
    {
      "anonymous": false,
      "inputs": [
        {
          "indexed": true,
          "internalType": "address",
          "name": "operator",
          "type": "address"
        },
        {
          "indexed": true,
          "internalType": "address",
          "name": "from",
          "type": "address"
        },
        {
          "indexed": true,
          "internalType": "address",
          "name": "to",
          "type": "address"
        },
        {
          "indexed": false,
          "internalType": "uint256",
          "name": "id",
          "type": "uint256"
        },
        {
          "indexed": false,
          "internalType": "uint256",
          "name": "value",
          "type": "uint256"
        }
      ],
      "name": "TransferSingle",
      "type": "event"
    },
    {
      "anonymous": false,
      "inputs": [
        {
          "indexed": false,
          "internalType": "string",
          "name": "value",
          "type": "string"
        },
        {
          "indexed": true,
          "internalType": "uint256",
          "name": "id",
          "type": "uint256"
        }
      ],
      "name": "URI",
      "type": "event"
    },
    {
      "inputs": [],
      "name": "accessControls",
      "outputs": [
        {
          "internalType": "contract FrostyAccessControls",
          "name": "",
          "type": "address"
        }
      ],
      "stateMutability": "view",
      "type": "function"
    },
    {
      "inputs": [
        {
          "internalType": "address",
          "name": "account",
          "type": "address"
        },
        {
          "internalType": "uint256",
          "name": "id",
          "type": "uint256"
        }
      ],
      "name": "balanceOf",
      "outputs": [
        {
          "internalType": "uint256",
          "name": "",
          "type": "uint256"
        }
      ],
      "stateMutability": "view",
      "type": "function"
    },
    {
      "inputs": [
        {
          "internalType": "address[]",
          "name": "accounts",
          "type": "address[]"
        },
        {
          "internalType": "uint256[]",
          "name": "ids",
          "type": "uint256[]"
        }
      ],
      "name": "balanceOfBatch",
      "outputs": [
        {
          "internalType": "uint256[]",
          "name": "",
          "type": "uint256[]"
        }
      ],
      "stateMutability": "view",
      "type": "function"
    },
    {
      "inputs": [
        {
          "internalType": "string[]",
          "name": "_uris",
          "type": "string[]"
        }
      ],
      "name": "batchCreateChildren",
      "outputs": [
        {
          "internalType": "uint256[]",
          "name": "tokenIds",
          "type": "uint256[]"
        }
      ],
      "stateMutability": "nonpayable",
      "type": "function"
    },
    {
      "inputs": [
        {
          "internalType": "uint256[]",
          "name": "_childTokenIds",
          "type": "uint256[]"
        },
        {
          "internalType": "uint256[]",
          "name": "_amounts",
          "type": "uint256[]"
        },
        {
          "internalType": "address",
          "name": "_beneficiary",
          "type": "address"
        },
        {
          "internalType": "bytes",
          "name": "_data",
          "type": "bytes"
        }
      ],
      "name": "batchMintChildren",
      "outputs": [],
      "stateMutability": "nonpayable",
      "type": "function"
    },
    {
      "inputs": [
        {
          "internalType": "address",
          "name": "account",
          "type": "address"
        },
        {
          "internalType": "uint256",
          "name": "id",
          "type": "uint256"
        },
        {
          "internalType": "uint256",
          "name": "amount",
          "type": "uint256"
        }
      ],
      "name": "burn",
      "outputs": [],
      "stateMutability": "nonpayable",
      "type": "function"
    },
    {
      "inputs": [
        {
          "internalType": "address",
          "name": "account",
          "type": "address"
        },
        {
          "internalType": "uint256[]",
          "name": "ids",
          "type": "uint256[]"
        },
        {
          "internalType": "uint256[]",
          "name": "amounts",
          "type": "uint256[]"
        }
      ],
      "name": "burnBatch",
      "outputs": [],
      "stateMutability": "nonpayable",
      "type": "function"
    },
    {
      "inputs": [
        {
          "internalType": "string",
          "name": "_uri",
          "type": "string"
        }
      ],
      "name": "createChild",
      "outputs": [
        {
          "internalType": "uint256",
          "name": "id",
          "type": "uint256"
        }
      ],
      "stateMutability": "nonpayable",
      "type": "function"
    },
    {
      "inputs": [
        {
          "internalType": "address",
          "name": "account",
          "type": "address"
        },
        {
          "internalType": "address",
          "name": "operator",
          "type": "address"
        }
      ],
      "name": "isApprovedForAll",
      "outputs": [
        {
          "internalType": "bool",
          "name": "",
          "type": "bool"
        }
      ],
      "stateMutability": "view",
      "type": "function"
    },
    {
      "inputs": [
        {
          "internalType": "uint256",
          "name": "_childTokenId",
          "type": "uint256"
        },
        {
          "internalType": "uint256",
          "name": "_amount",
          "type": "uint256"
        },
        {
          "internalType": "address",
          "name": "_beneficiary",
          "type": "address"
        },
        {
          "internalType": "bytes",
          "name": "_data",
          "type": "bytes"
        }
      ],
      "name": "mintChild",
      "outputs": [],
      "stateMutability": "nonpayable",
      "type": "function"
    },
    {
      "inputs": [],
      "name": "name",
      "outputs": [
        {
          "internalType": "string",
          "name": "",
          "type": "string"
        }
      ],
      "stateMutability": "view",
      "type": "function"
    },
    {
      "inputs": [
        {
          "internalType": "address",
          "name": "from",
          "type": "address"
        },
        {
          "internalType": "address",
          "name": "to",
          "type": "address"
        },
        {
          "internalType": "uint256[]",
          "name": "ids",
          "type": "uint256[]"
        },
        {
          "internalType": "uint256[]",
          "name": "amounts",
          "type": "uint256[]"
        },
        {
          "internalType": "bytes",
          "name": "data",
          "type": "bytes"
        }
      ],
      "name": "safeBatchTransferFrom",
      "outputs": [],
      "stateMutability": "nonpayable",
      "type": "function"
    },
    {
      "inputs": [
        {
          "internalType": "address",
          "name": "from",
          "type": "address"
        },
        {
          "internalType": "address",
          "name": "to",
          "type": "address"
        },
        {
          "internalType": "uint256",
          "name": "id",
          "type": "uint256"
        },
        {
          "internalType": "uint256",
          "name": "amount",
          "type": "uint256"
        },
        {
          "internalType": "bytes",
          "name": "data",
          "type": "bytes"
        }
      ],
      "name": "safeTransferFrom",
      "outputs": [],
      "stateMutability": "nonpayable",
      "type": "function"
    },
    {
      "inputs": [
        {
          "internalType": "address",
          "name": "operator",
          "type": "address"
        },
        {
          "internalType": "bool",
          "name": "approved",
          "type": "bool"
        }
      ],
      "name": "setApprovalForAll",
      "outputs": [],
      "stateMutability": "nonpayable",
      "type": "function"
    },
    {
      "inputs": [
        {
          "internalType": "bytes4",
          "name": "interfaceId",
          "type": "bytes4"
        }
      ],
      "name": "supportsInterface",
      "outputs": [
        {
          "internalType": "bool",
          "name": "",
          "type": "bool"
        }
      ],
      "stateMutability": "view",
      "type": "function"
    },
    {
      "inputs": [],
      "name": "symbol",
      "outputs": [
        {
          "internalType": "string",
          "name": "",
          "type": "string"
        }
      ],
      "stateMutability": "view",
      "type": "function"
    },
    {
      "inputs": [],
      "name": "tokenIdPointer",
      "outputs": [
        {
          "internalType": "uint256",
          "name": "",
          "type": "uint256"
        }
      ],
      "stateMutability": "view",
      "type": "function"
    },
    {
      "inputs": [
        {
          "internalType": "contract FrostyAccessControls",
          "name": "_accessControls",
          "type": "address"
        }
      ],
      "name": "updateAccessControls",
      "outputs": [],
      "stateMutability": "nonpayable",
      "type": "function"
    },
    {
      "inputs": [
        {
          "internalType": "uint256",
          "name": "tokenId",
          "type": "uint256"
        }
      ],
      "name": "uri",
      "outputs": [
        {
          "internalType": "string",
          "name": "",
          "type": "string"
        }
      ],
      "stateMutability": "view",
      "type": "function"
    }
  ],
  "bytecode": "0x60806040523480156200001157600080fd5b50604051620031ad380380620031ad833981016040819052620000349162000281565b620000466301ffc9a760e01b620000e3565b62000058636cdb3d1360e11b620000e3565b6200006a6303a24d0760e21b620000e3565b82516200007f9060049060208601906200013e565b508151620000959060059060208501906200013e565b50600780546001600160a01b0319166001600160a01b0383161790556040517f097c1e3226c7553c89b89aa6593ab84b74c9749e596a69d74bdebfc3b13e586790600090a150505062000341565b6001600160e01b03198082161415620001195760405162461bcd60e51b815260040162000110906200030a565b60405180910390fd5b6001600160e01b0319166000908152602081905260409020805460ff19166001179055565b828054600181600116156101000203166002900490600052602060002090601f016020900481019282601f106200018157805160ff1916838001178555620001b1565b82800160010185558215620001b1579182015b82811115620001b157825182559160200191906001019062000194565b50620001bf929150620001c3565b5090565b5b80821115620001bf5760008155600101620001c4565b600082601f830112620001eb578081fd5b81516001600160401b038082111562000202578283fd5b6040516020601f8401601f191682018101838111838210171562000224578586fd5b806040525081945083825286818588010111156200024157600080fd5b600092505b8383101562000265578583018101518284018201529182019162000246565b83831115620002775760008185840101525b5050505092915050565b60008060006060848603121562000296578283fd5b83516001600160401b0380821115620002ad578485fd5b620002bb87838801620001da565b94506020860151915080821115620002d1578384fd5b50620002e086828701620001da565b604086015190935090506001600160a01b0381168114620002ff578182fd5b809150509250925092565b6020808252601c908201527f4552433136353a20696e76616c696420696e7465726661636520696400000000604082015260600190565b612e5c80620003516000396000f3fe608060405234801561001057600080fd5b50600436106101205760003560e01c80636ef3da94116100ad578063afb05b3911610071578063afb05b391461024f578063e3b619b814610262578063e985e9c514610275578063f242432a14610288578063f5298aca1461029b57610120565b80636ef3da94146101f9578063748365ef1461020c5780639344ef881461022157806395d89b4114610234578063a22cb4651461023c57610120565b80632eb2c2d6116100f45780632eb2c2d614610196578063310e2de0146101ab5780633b3a1a7a146101be5780634e1273f4146101c65780636b20c454146101e657610120565b8062fdd58e1461012557806301ffc9a71461014e57806306fdde031461016e5780630e89341c14610183575b600080fd5b610138610133366004611eb3565b6102ae565b6040516101459190612c32565b60405180910390f35b61016161015c3660046120d9565b610307565b604051610145919061235c565b610176610326565b6040516101459190612367565b610176610191366004612160565b6103b4565b6101a96101a4366004611d05565b610455565b005b6101a96101b9366004612013565b61066f565b6101386108a2565b6101d96101d4366004611f12565b6108a8565b604051610145919061231b565b6101a96101f4366004611e14565b6109e7565b6101a9610207366004612111565b610a41565b610214610b2a565b6040516101459190612264565b6101d961022f366004611fd4565b610b39565b610176610d3d565b6101a961024a366004611e86565b610d98565b61013861025d36600461212d565b610e66565b6101a9610270366004612178565b610fb1565b610161610283366004611ccd565b6110f9565b6101a9610296366004611dae565b611127565b6101a96102a9366004611ede565b6112bb565b60006001600160a01b0383166102df5760405162461bcd60e51b81526004016102d6906124be565b60405180910390fd5b5060009081526001602090815260408083206001600160a01b03949094168352929052205490565b6001600160e01b03191660009081526020819052604090205460ff1690565b6004805460408051602060026001851615610100026000190190941693909304601f810184900484028201840190925281815292918301828280156103ac5780601f10610381576101008083540402835291602001916103ac565b820191906000526020600020905b81548152906001019060200180831161038f57829003601f168201915b505050505081565b60008181526003602090815260409182902080548351601f60026000196101006001861615020190931692909204918201849004840281018401909452808452606093928301828280156104495780601f1061041e57610100808354040283529160200191610449565b820191906000526020600020905b81548152906001019060200180831161042c57829003601f168201915b50505050509050919050565b81518351146104765760405162461bcd60e51b81526004016102d690612a54565b6001600160a01b03841661049c5760405162461bcd60e51b81526004016102d690612720565b6104a4611310565b6001600160a01b0316856001600160a01b031614806104ca57506104ca85610283611310565b6104e65760405162461bcd60e51b81526004016102d690612765565b60006104f0611310565b9050610500818787878787610667565b60005b845181101561060157600085828151811061051a57fe5b60200260200101519050600085838151811061053257fe5b6020026020010151905061059f816040518060600160405280602a8152602001612ddd602a91396001600086815260200190815260200160002060008d6001600160a01b03166001600160a01b03168152602001908152602001600020546113159092919063ffffffff16565b60008381526001602090815260408083206001600160a01b038e811685529252808320939093558a16815220546105d69082611341565b60009283526001602081815260408086206001600160a01b038d168752909152909320555001610503565b50846001600160a01b0316866001600160a01b0316826001600160a01b03167f4a39dc06d4c0dbc64b70af90fd698a233a518aa5d07e595d983b8c0526c8f7fb878760405161065192919061232e565b60405180910390a461066781878787878761136d565b505050505050565b6007546001600160a01b031663113b0ab2610688611310565b6040518263ffffffff1660e01b81526004016106a49190612264565b60206040518083038186803b1580156106bc57600080fd5b505afa1580156106d0573d6000803e3d6000fd5b505050506040513d601f19601f820116820180604052508101906106f491906120bd565b6107105760405162461bcd60e51b81526004016102d69061262c565b85841461072f5760405162461bcd60e51b81526004016102d690612b8a565b8561074c5760405162461bcd60e51b81526004016102d690612473565b60005b868110156107f657600088888381811061076557fe5b905060200201359050600060036000838152602001908152602001600020805460018160011615610100020316600290049050116107b55760405162461bcd60e51b81526004016102d6906126d5565b60008787848181106107c357fe5b905060200201359050600081116107ec5760405162461bcd60e51b81526004016102d6906128be565b505060010161074f565b506108998388888080602002602001604051908101604052809392919081815260200183836020028082843760009201919091525050604080516020808c0282810182019093528b82529093508b92508a91829185019084908082843760009201919091525050604080516020601f8a01819004810282018101909252888152925088915087908190840183828082843760009201919091525061147b92505050565b50505050505050565b60065481565b606081518351146108cb5760405162461bcd60e51b81526004016102d6906129a3565b606083516001600160401b03811180156108e457600080fd5b5060405190808252806020026020018201604052801561090e578160200160208202803683370190505b50905060005b84518110156109df5760006001600160a01b031685828151811061093457fe5b60200260200101516001600160a01b031614156109635760405162461bcd60e51b81526004016102d690612509565b6001600085838151811061097357fe5b60200260200101518152602001908152602001600020600086838151811061099757fe5b60200260200101516001600160a01b03166001600160a01b03168152602001908152602001600020548282815181106109cc57fe5b6020908102919091010152600101610914565b509392505050565b6109ef611310565b6001600160a01b0316836001600160a01b03161480610a155750610a1583610283611310565b610a315760405162461bcd60e51b81526004016102d6906125e3565b610a3c838383611609565b505050565b6007546001600160a01b031663c395fcb3610a5a611310565b6040518263ffffffff1660e01b8152600401610a769190612264565b60206040518083038186803b158015610a8e57600080fd5b505afa158015610aa2573d6000803e3d6000fd5b505050506040513d601f19601f82011682018060405250810190610ac691906120bd565b610ae25760405162461bcd60e51b81526004016102d690612416565b6001600160a01b038116610b085760405162461bcd60e51b81526004016102d6906127fa565b600780546001600160a01b0319166001600160a01b0392909216919091179055565b6007546001600160a01b031681565b6007546060906001600160a01b031663113b0ab2610b55611310565b6040518263ffffffff1660e01b8152600401610b719190612264565b60206040518083038186803b158015610b8957600080fd5b505afa158015610b9d573d6000803e3d6000fd5b505050506040513d601f19601f82011682018060405250810190610bc191906120bd565b610bdd5760405162461bcd60e51b81526004016102d6906129ec565b81610bfa5760405162461bcd60e51b81526004016102d690612678565b81806001600160401b0381118015610c1157600080fd5b50604051908082528060200260200182016040528015610c3b578160200160208202803683370190505b50915060005b81811015610cfe576060858583818110610c5757fe5b9050602002810190610c699190612c49565b8080601f0160208091040260200160405190810160405280939291908181526020018383808284376000920191909152505082519293505050610cbe5760405162461bcd60e51b81526004016102d690612a9c565b600654610ccc906001611341565b6006819055610cdb90826117b7565b600654848381518110610cea57fe5b602090810291909101015250600101610c41565b507faad999d58beff0d6c87a9d1fafc57f66aba220298f12b2ed8acded84d0747d2b82604051610d2e919061231b565b60405180910390a15092915050565b6005805460408051602060026001851615610100026000190190941693909304601f810184900484028201840190925281815292918301828280156103ac5780601f10610381576101008083540402835291602001916103ac565b816001600160a01b0316610daa611310565b6001600160a01b03161415610dd15760405162461bcd60e51b81526004016102d69061295a565b8060026000610dde611310565b6001600160a01b03908116825260208083019390935260409182016000908120918716808252919093529120805460ff191692151592909217909155610e22611310565b6001600160a01b03167f17307eab39ab6107e8899845ad3d59bd9653f200f220920489ca2b5937696c3183604051610e5a919061235c565b60405180910390a35050565b6007546000906001600160a01b031663113b0ab2610e82611310565b6040518263ffffffff1660e01b8152600401610e9e9190612264565b60206040518083038186803b158015610eb657600080fd5b505afa158015610eca573d6000803e3d6000fd5b505050506040513d601f19601f82011682018060405250810190610eee91906120bd565b610f0a5760405162461bcd60e51b81526004016102d690612bd5565b81610f275760405162461bcd60e51b81526004016102d69061255a565b600654610f35906001611341565b6006819055506006549050610f808184848080601f0160208091040260200160405190810160405280939291908181526020018383808284376000920191909152506117b792505050565b60405181907f4a481cf1ce03d2f2700fc83197f32f7c5abac90db8e69cf7f1e1b6ca563c141790600090a292915050565b6007546001600160a01b031663113b0ab2610fca611310565b6040518263ffffffff1660e01b8152600401610fe69190612264565b60206040518083038186803b158015610ffe57600080fd5b505afa158015611012573d6000803e3d6000fd5b505050506040513d601f19601f8201168201806040525081019061103691906120bd565b6110525760405162461bcd60e51b81526004016102d6906128fd565b600085815260036020526040902054600260001961010060018416150201909116046110905760405162461bcd60e51b81526004016102d690612af9565b600084116110b05760405162461bcd60e51b81526004016102d690612870565b6110f283868685858080601f0160208091040260200160405190810160405280939291908181526020018383808284376000920191909152506117d692505050565b5050505050565b6001600160a01b03918216600090815260026020908152604080832093909416825291909152205460ff1690565b6001600160a01b03841661114d5760405162461bcd60e51b81526004016102d690612720565b611155611310565b6001600160a01b0316856001600160a01b0316148061117b575061117b85610283611310565b6111975760405162461bcd60e51b81526004016102d6906125e3565b60006111a1611310565b90506111c18187876111b2886118ba565b6111bb886118ba565b87610667565b611208836040518060600160405280602a8152602001612ddd602a913960008781526001602090815260408083206001600160a01b038d1684529091529020549190611315565b60008581526001602090815260408083206001600160a01b038b8116855292528083209390935587168152205461123f9084611341565b60008581526001602090815260408083206001600160a01b03808b168086529190935292819020939093559151909188811691908416907fc3d58168c5ae7397731d063d5bbf3d657854427343f4c083240f7aacaa2d0f62906112a59089908990612c3b565b60405180910390a46106678187878787876118fe565b6112c3611310565b6001600160a01b0316836001600160a01b031614806112e957506112e983610283611310565b6113055760405162461bcd60e51b81526004016102d6906125e3565b610a3c8383836119cf565b335b90565b600081848411156113395760405162461bcd60e51b81526004016102d69190612367565b505050900390565b6000828201838110156113665760405162461bcd60e51b81526004016102d6906125ac565b9392505050565b61137f846001600160a01b0316611ad7565b156106675760405163bc197c8160e01b81526001600160a01b0385169063bc197c81906113b89089908990889088908890600401612278565b602060405180830381600087803b1580156113d257600080fd5b505af1925050508015611402575060408051601f3d908101601f191682019092526113ff918101906120f5565b60015b61144b5761140e612cd8565b806114195750611433565b8060405162461bcd60e51b81526004016102d69190612367565b60405162461bcd60e51b81526004016102d69061237a565b6001600160e01b0319811663bc197c8160e01b146108995760405162461bcd60e51b81526004016102d6906123ce565b6001600160a01b0384166114a15760405162461bcd60e51b81526004016102d690612b49565b81518351146114c25760405162461bcd60e51b81526004016102d690612a54565b60006114cc611310565b90506114dd81600087878787610667565b60005b84518110156115a157611558600160008784815181106114fc57fe5b602002602001015181526020019081526020016000206000886001600160a01b03166001600160a01b031681526020019081526020016000205485838151811061154257fe5b602002602001015161134190919063ffffffff16565b6001600087848151811061156857fe5b602090810291909101810151825281810192909252604090810160009081206001600160a01b038b1682529092529020556001016114e0565b50846001600160a01b031660006001600160a01b0316826001600160a01b03167f4a39dc06d4c0dbc64b70af90fd698a233a518aa5d07e595d983b8c0526c8f7fb87876040516115f292919061232e565b60405180910390a46110f28160008787878761136d565b6001600160a01b03831661162f5760405162461bcd60e51b81526004016102d6906127b7565b80518251146116505760405162461bcd60e51b81526004016102d690612a54565b600061165a611310565b905061167a81856000868660405180602001604052806000815250610667565b60005b83518110156117585761170f83828151811061169557fe5b6020026020010151604051806060016040528060248152602001612db960249139600160008886815181106116c657fe5b602002602001015181526020019081526020016000206000896001600160a01b03166001600160a01b03168152602001908152602001600020546113159092919063ffffffff16565b6001600086848151811061171f57fe5b602090810291909101810151825281810192909252604090810160009081206001600160a01b038a16825290925290205560010161167d565b5060006001600160a01b0316846001600160a01b0316826001600160a01b03167f4a39dc06d4c0dbc64b70af90fd698a233a518aa5d07e595d983b8c0526c8f7fb86866040516117a992919061232e565b60405180910390a450505050565b60008281526003602090815260409091208251610a3c92840190611add565b6001600160a01b0384166117fc5760405162461bcd60e51b81526004016102d690612b49565b6000611806611310565b9050611818816000876111b2886118ba565b60008481526001602090815260408083206001600160a01b03891684529091529020546118459084611341565b60008581526001602090815260408083206001600160a01b03808b16808652919093528184209490945551908416907fc3d58168c5ae7397731d063d5bbf3d657854427343f4c083240f7aacaa2d0f62906118a39089908990612c3b565b60405180910390a46110f2816000878787876118fe565b6040805160018082528183019092526060918291906020808301908036833701905050905082816000815181106118ed57fe5b602090810291909101015292915050565b611910846001600160a01b0316611ad7565b156106675760405163f23a6e6160e01b81526001600160a01b0385169063f23a6e619061194990899089908890889088906004016122d6565b602060405180830381600087803b15801561196357600080fd5b505af1925050508015611993575060408051601f3d908101601f19168201909252611990918101906120f5565b60015b61199f5761140e612cd8565b6001600160e01b0319811663f23a6e6160e01b146108995760405162461bcd60e51b81526004016102d6906123ce565b6001600160a01b0383166119f55760405162461bcd60e51b81526004016102d6906127b7565b60006119ff611310565b9050611a2f81856000611a11876118ba565b611a1a876118ba565b60405180602001604052806000815250610667565b611a7682604051806060016040528060248152602001612db96024913960008681526001602090815260408083206001600160a01b038b1684529091529020549190611315565b60008481526001602090815260408083206001600160a01b03808a16808652919093528184209490945551919291908416907fc3d58168c5ae7397731d063d5bbf3d657854427343f4c083240f7aacaa2d0f62906117a99088908890612c3b565b3b151590565b828054600181600116156101000203166002900490600052602060002090601f016020900481019282601f10611b1e57805160ff1916838001178555611b4b565b82800160010185558215611b4b579182015b82811115611b4b578251825591602001919060010190611b30565b50611b57929150611b5b565b5090565b5b80821115611b575760008155600101611b5c565b60008083601f840112611b81578081fd5b5081356001600160401b03811115611b97578182fd5b6020830191508360208083028501011115611bb157600080fd5b9250929050565b600082601f830112611bc8578081fd5b8135611bdb611bd682612cb3565b612c8d565b818152915060208083019084810181840286018201871015611bfc57600080fd5b60005b84811015611c1b57813584529282019290820190600101611bff565b505050505092915050565b60008083601f840112611c37578182fd5b5081356001600160401b03811115611c4d578182fd5b602083019150836020828501011115611bb157600080fd5b600082601f830112611c75578081fd5b81356001600160401b03811115611c8a578182fd5b611c9d601f8201601f1916602001612c8d565b9150808252836020828501011115611cb457600080fd5b8060208401602084013760009082016020015292915050565b60008060408385031215611cdf578182fd5b8235611cea81612d7c565b91506020830135611cfa81612d7c565b809150509250929050565b600080600080600060a08688031215611d1c578081fd5b8535611d2781612d7c565b94506020860135611d3781612d7c565b935060408601356001600160401b0380821115611d52578283fd5b611d5e89838a01611bb8565b94506060880135915080821115611d73578283fd5b611d7f89838a01611bb8565b93506080880135915080821115611d94578283fd5b50611da188828901611c65565b9150509295509295909350565b600080600080600060a08688031215611dc5578081fd5b8535611dd081612d7c565b94506020860135611de081612d7c565b9350604086013592506060860135915060808601356001600160401b03811115611e08578182fd5b611da188828901611c65565b600080600060608486031215611e28578283fd5b8335611e3381612d7c565b925060208401356001600160401b0380821115611e4e578384fd5b611e5a87838801611bb8565b93506040860135915080821115611e6f578283fd5b50611e7c86828701611bb8565b9150509250925092565b60008060408385031215611e98578182fd5b8235611ea381612d7c565b91506020830135611cfa81612d94565b60008060408385031215611ec5578182fd5b8235611ed081612d7c565b946020939093013593505050565b600080600060608486031215611ef2578283fd5b8335611efd81612d7c565b95602085013595506040909401359392505050565b60008060408385031215611f24578182fd5b82356001600160401b0380821115611f3a578384fd5b818501915085601f830112611f4d578384fd5b8135611f5b611bd682612cb3565b80828252602080830192508086018a828387028901011115611f7b578889fd5b8896505b84871015611fa6578035611f9281612d7c565b845260019690960195928101928101611f7f565b509096508701359350505080821115611fbd578283fd5b50611fca85828601611bb8565b9150509250929050565b60008060208385031215611fe6578182fd5b82356001600160401b03811115611ffb578283fd5b61200785828601611b70565b90969095509350505050565b60008060008060008060006080888a03121561202d578485fd5b87356001600160401b0380821115612043578687fd5b61204f8b838c01611b70565b909950975060208a0135915080821115612067578687fd5b6120738b838c01611b70565b909750955060408a0135915061208882612d7c565b9093506060890135908082111561209d578384fd5b506120aa8a828b01611c26565b989b979a50959850939692959293505050565b6000602082840312156120ce578081fd5b815161136681612d94565b6000602082840312156120ea578081fd5b813561136681612da2565b600060208284031215612106578081fd5b815161136681612da2565b600060208284031215612122578081fd5b813561136681612d7c565b6000806020838503121561213f578182fd5b82356001600160401b03811115612154578283fd5b61200785828601611c26565b600060208284031215612171578081fd5b5035919050565b60008060008060006080868803121561218f578283fd5b853594506020860135935060408601356121a881612d7c565b925060608601356001600160401b038111156121c2578182fd5b6121ce88828901611c26565b969995985093965092949392505050565b6000815180845260208085019450808401835b8381101561220e578151875295820195908201906001016121f2565b509495945050505050565b60008151808452815b8181101561223e57602081850181015186830182015201612222565b8181111561224f5782602083870101525b50601f01601f19169290920160200192915050565b6001600160a01b0391909116815260200190565b6001600160a01b0386811682528516602082015260a0604082018190526000906122a4908301866121df565b82810360608401526122b681866121df565b905082810360808401526122ca8185612219565b98975050505050505050565b6001600160a01b03868116825285166020820152604081018490526060810183905260a06080820181905260009061231090830184612219565b979650505050505050565b60006020825261136660208301846121df565b60006040825261234160408301856121df565b828103602084015261235381856121df565b95945050505050565b901515815260200190565b6000602082526113666020830184612219565b60208082526034908201527f455243313135353a207472616e7366657220746f206e6f6e20455243313135356040820152732932b1b2b4bb32b91034b6b83632b6b2b73a32b960611b606082015260800190565b60208082526028908201527f455243313135353a204552433131353552656365697665722072656a656374656040820152676420746f6b656e7360c01b606082015260800190565b6020808252603a908201527f46726f7374794d6174657269616c732e757064617465416363657373436f6e7460408201527f726f6c733a2053656e646572206d7573742062652061646d696e000000000000606082015260800190565b6020808252603d90820152600080516020612e0783398151915260408201527f6e3a204e6f206461746120737570706c69656420696e20617272617973000000606082015260800190565b6020808252602b908201527f455243313135353a2062616c616e636520717565727920666f7220746865207a60408201526a65726f206164647265737360a81b606082015260800190565b60208082526031908201527f455243313135353a2062617463682062616c616e636520717565727920666f7260408201527020746865207a65726f206164647265737360781b606082015260800190565b60208082526032908201527f46726f7374794d6174657269616c732e6372656174654368696c643a20555249604082015271206973206120626c616e6b20737472696e6760701b606082015260800190565b6020808252601b908201527f536166654d6174683a206164646974696f6e206f766572666c6f770000000000604082015260600190565b60208082526029908201527f455243313135353a2063616c6c6572206973206e6f74206f776e6572206e6f7260408201526808185c1c1c9bdd995960ba1b606082015260800190565b60208082526040908201819052600080516020612e07833981519152908201527f6e3a2053656e646572206d75737420626520736d61727420636f6e7472616374606082015260800190565b6020808252603e908201527f46726f7374794d6174657269616c732e62617463684372656174654368696c6460408201527f72656e3a204e6f206461746120737570706c69656420696e2061727261790000606082015260800190565b6020808252603890820152600080516020612e0783398151915260408201527f6e3a20537472616e6420646f6573206e6f742065786973740000000000000000606082015260800190565b60208082526025908201527f455243313135353a207472616e7366657220746f20746865207a65726f206164604082015264647265737360d81b606082015260800190565b60208082526032908201527f455243313135353a207472616e736665722063616c6c6572206973206e6f74206040820152711bdddb995c881b9bdc88185c1c1c9bdd995960721b606082015260800190565b60208082526023908201527f455243313135353a206275726e2066726f6d20746865207a65726f206164647260408201526265737360e81b606082015260800190565b60208082526050908201527f46726f7374794d6174657269616c732e757064617465416363657373436f6e7460408201527f726f6c733a204e65772061636365737320636f6e74726f6c732063616e6e6f7460608201526f206265205a45524f206164647265737360801b608082015260a00190565b6020808252602e908201527f46726f7374794d6174657269616c732e6d696e744368696c643a204e6f20616d60408201526d1bdd5b9d081cdc1958da599a595960921b606082015260800190565b6020808252603190820152600080516020612e078339815191526040820152701b8e88125b9d985b1a5908185b5bdd5b9d607a1b606082015260800190565b60208082526038908201527f46726f7374794d6174657269616c732e6d696e744368696c643a2053656e646560408201527f72206d75737420626520736d61727420636f6e74726163740000000000000000606082015260800190565b60208082526029908201527f455243313135353a2073657474696e6720617070726f76616c20737461747573604082015268103337b91039b2b63360b91b606082015260800190565b60208082526029908201527f455243313135353a206163636f756e747320616e6420696473206c656e677468604082015268040dad2e6dac2e8c6d60bb1b606082015260800190565b60208082526042908201527f46726f7374794d6174657269616c732e62617463684372656174654368696c6460408201527f72656e3a2053656e646572206d75737420626520736d61727420636f6e74726160608201526118dd60f21b608082015260a00190565b60208082526028908201527f455243313135353a2069647320616e6420616d6f756e7473206c656e677468206040820152670dad2e6dac2e8c6d60c31b606082015260800190565b6020808252603a908201527f46726f7374794d6174657269616c732e62617463684372656174654368696c6460408201527f72656e3a20555249206973206120626c616e6b20737472696e67000000000000606082015260800190565b60208082526030908201527f46726f7374794d6174657269616c732e6d696e744368696c643a20537472616e60408201526f1908191bd95cc81b9bdd08195e1a5cdd60821b606082015260800190565b60208082526021908201527f455243313135353a206d696e7420746f20746865207a65726f206164647265736040820152607360f81b606082015260800190565b6020808252603c90820152600080516020612e0783398151915260408201527f6e3a204172726179206c656e677468732061726520696e76616c696400000000606082015260800190565b6020808252603a908201527f46726f7374794d6174657269616c732e6372656174654368696c643a2053656e60408201527f646572206d75737420626520736d61727420636f6e7472616374000000000000606082015260800190565b90815260200190565b918252602082015260400190565b6000808335601e19843603018112612c5f578283fd5b8301803591506001600160401b03821115612c78578283fd5b602001915036819003821315611bb157600080fd5b6040518181016001600160401b0381118282101715612cab57600080fd5b604052919050565b60006001600160401b03821115612cc8578081fd5b5060209081020190565b60e01c90565b600060443d1015612ce857611312565b600481823e6308c379a0612cfc8251612cd2565b14612d0657611312565b6040513d600319016004823e80513d6001600160401b038160248401118184111715612d355750505050611312565b82840192508251915080821115612d4f5750505050611312565b503d83016020828401011115612d6757505050611312565b601f01601f1916810160200160405291505090565b6001600160a01b0381168114612d9157600080fd5b50565b8015158114612d9157600080fd5b6001600160e01b031981168114612d9157600080fdfe455243313135353a206275726e20616d6f756e7420657863656564732062616c616e6365455243313135353a20696e73756666696369656e742062616c616e636520666f72207472616e7366657246726f7374794d6174657269616c732e62617463684d696e744368696c647265a2646970667358221220844d8fff8a53c653e10d4d6cf36d5545e23e4b4bcbb8b42cea6eb6d28be52a5164736f6c634300060c0033",
  "linkReferences": {},
  "deployedLinkReferences": {}
}