{
  "_format": "hh-sol-artifact-1",
  "contractName": "UniswapZAP",
  "sourceName": "contracts/Utils/UniswapZAP.sol",
  "abi": [
    {
      "inputs": [],
      "name": "WETH",
      "outputs": [
        {
          "internalType": "contract IWETH",
          "name": "",
          "type": "address"
        }
      ],
      "stateMutability": "view",
      "type": "function"
    },
    {
      "inputs": [
        {
          "internalType": "address payable",
          "name": "to",
          "type": "address"
        }
      ],
      "name": "addLiquidityETHOnly",
      "outputs": [],
      "stateMutability": "payable",
      "type": "function"
    },
    {
      "inputs": [
        {
          "internalType": "uint256",
          "name": "ethAmt",
          "type": "uint256"
        }
      ],
      "name": "getLPTokenPerEthUnit",
      "outputs": [
        {
          "internalType": "uint256",
          "name": "liquidity",
          "type": "uint256"
        }
      ],
      "stateMutability": "view",
      "type": "function"
    },
    {
      "inputs": [],
      "name": "lpToken",
      "outputs": [
        {
          "internalType": "address",
          "name": "",
          "type": "address"
        }
      ],
      "stateMutability": "view",
      "type": "function"
    },
    {
      "inputs": [],
      "name": "rewardsToken",
      "outputs": [
        {
          "internalType": "contract IERC20",
          "name": "",
          "type": "address"
        }
      ],
      "stateMutability": "view",
      "type": "function"
    },
    {
      "stateMutability": "payable",
      "type": "receive"
    }
  ],
  "bytecode": "0x608060405234801561001057600080fd5b50610f30806100206000396000f3fe60806040526004361061004e5760003560e01c80635fcbd28514610075578063ad5c4648146100a6578063c2697420146100bb578063d1af0c7d146100e1578063d6b89a03146100f657610070565b36610070576002546001600160a01b0316331461006e5761006e33610132565b005b600080fd5b34801561008157600080fd5b5061008a6103e3565b604080516001600160a01b039092168252519081900360200190f35b3480156100b257600080fd5b5061008a6103f2565b61006e600480360360208110156100d157600080fd5b50356001600160a01b0316610132565b3480156100ed57600080fd5b5061008a610401565b34801561010257600080fd5b506101206004803603602081101561011957600080fd5b5035610410565b60408051918252519081900360200190f35b6001600160a01b03811661017f576040805162461bcd60e51b815260206004820152600f60248201526e496e76616c6964206164647265737360881b604482015290519081900360640190fd5b600061018c34600261057d565b9050600081116101e3576040805162461bcd60e51b815260206004820152601760248201527f496e73756666696369656e742045544820616d6f756e74000000000000000000604482015290519081900360640190fd5b600260009054906101000a90046001600160a01b03166001600160a01b031663d0e30db0346040518263ffffffff1660e01b81526004016000604051808303818588803b15801561023357600080fd5b505af1158015610247573d6000803e3d6000fd5b50505050506000806102576105c8565b9150915060006102688484846106b5565b6002546001546040805163a9059cbb60e01b81526001600160a01b03928316600482015260248101899052905193945091169163a9059cbb916044808201926020929091908290030181600087803b1580156102c357600080fd5b505af11580156102d7573d6000803e3d6000fd5b505050506040513d60208110156102ed57600080fd5b50506002546000805490918291610310916001600160a01b03908116911661078d565b6001546000549294509092506001600160a01b039081169163022c0d9f9180861691161461033f576000610341565b845b6000546001600160a01b0385811691161461035d57600061035f565b855b604080516001600160e01b031960e086901b1681526004810193909352602483019190915230604483015260806064830152600060848301819052905160c48084019382900301818387803b1580156103b757600080fd5b505af11580156103cb573d6000803e3d6000fd5b505050506103da83878961086b565b50505050505050565b6001546001600160a01b031681565b6002546001600160a01b031681565b6000546001600160a01b031681565b600080600061041d6105c8565b9092509050600061043961043286600261057d565b84846106b5565b90506000600160009054906101000a90046001600160a01b03166001600160a01b03166318160ddd6040518163ffffffff1660e01b815260040160206040518083038186803b15801561048b57600080fd5b505afa15801561049f573d6000803e3d6000fd5b505050506040513d60208110156104b557600080fd5b505160025460008054929350916104d8916001600160a01b03908116911661078d565b50600080549192509081906001600160a01b038085169116146105065761050089600261057d565b85610512565b846105128a600261057d565b600080549294509092509081906001600160a01b0386811691161461053857888861053b565b87895b909250905061056e8261054e8689610b93565b8161055557fe5b0482610561868a610b93565b8161056857fe5b04610bec565b9b9a5050505050505050505050565b60006105bf83836040518060400160405280601a81526020017f536166654d6174683a206469766973696f6e206279207a65726f000000000000815250610c03565b90505b92915050565b600254600080549091829182916105eb916001600160a01b03918216911661078d565b509050600080600160009054906101000a90046001600160a01b03166001600160a01b0316630902f1ac6040518163ffffffff1660e01b815260040160606040518083038186803b15801561063f57600080fd5b505afa158015610653573d6000803e3d6000fd5b505050506040513d606081101561066957600080fd5b5080516020909101516000546dffffffffffffffffffffffffffff9283169450911691506001600160a01b038481169116146106a65781816106a9565b80825b90969095509350505050565b60008084116106f55760405162461bcd60e51b815260040180806020018281038252602b815260200180610ed0602b913960400191505060405180910390fd5b6000831180156107055750600082115b6107405760405162461bcd60e51b8152600401808060200182810382526028815260200180610e626028913960400191505060405180910390fd5b600061074e856103e5610b93565b9050600061075c8285610b93565b9050600061077683610770886103e8610b93565b90610ca5565b905080828161078157fe5b04979650505050505050565b600080826001600160a01b0316846001600160a01b031614156107e15760405162461bcd60e51b8152600401808060200182810382526025815260200180610e3d6025913960400191505060405180910390fd5b826001600160a01b0316846001600160a01b031610610801578284610804565b83835b90925090506001600160a01b038216610864576040805162461bcd60e51b815260206004820152601e60248201527f556e697377617056324c6962726172793a205a45524f5f414444524553530000604482015290519081900360640190fd5b9250929050565b6000806108766105c8565b915091506000610887858484610cff565b90506000868211156108a85761089e878486610cff565b90508691506108ab565b50845b6002546001546040805163a9059cbb60e01b81526001600160a01b039283166004820152602481018590529051919092169163a9059cbb9160448083019260209291908290030181600087803b15801561090457600080fd5b505af1158015610918573d6000803e3d6000fd5b505050506040513d602081101561092e57600080fd5b505161093657fe5b600080546001546040805163a9059cbb60e01b81526001600160a01b039283166004820152602481018790529051919092169263a9059cbb92604480820193602093909283900390910190829087803b15801561099257600080fd5b505af11580156109a6573d6000803e3d6000fd5b505050506040513d60208110156109bc57600080fd5b50516109c457fe5b600154604080516335313c2160e11b81526001600160a01b03888116600483015291519190921691636a6278429160248083019260209291908290030181600087803b158015610a1357600080fd5b505af1158015610a27573d6000803e3d6000fd5b505050506040513d6020811015610a3d57600080fd5b505081871115610ad6576000546001600160a01b031663a9059cbb86610a638a86610da5565b6040518363ffffffff1660e01b815260040180836001600160a01b0316815260200182815260200192505050602060405180830381600087803b158015610aa957600080fd5b505af1158015610abd573d6000803e3d6000fd5b505050506040513d6020811015610ad357600080fd5b50505b808611156103da576000610aea8783610da5565b60025460408051632e1a7d4d60e01b81526004810184905290519293506001600160a01b0390911691632e1a7d4d9160248082019260009290919082900301818387803b158015610b3a57600080fd5b505af1158015610b4e573d6000803e3d6000fd5b50506040516001600160a01b038916925083156108fc02915083906000818181858888f19350505050158015610b88573d6000803e3d6000fd5b505050505050505050565b600082610ba2575060006105c2565b82820282848281610baf57fe5b04146105bf5760405162461bcd60e51b8152600401808060200182810382526021815260200180610e8a6021913960400191505060405180910390fd5b600081831115610bfc57816105bf565b5090919050565b60008183610c8f5760405162461bcd60e51b81526004018080602001828103825283818151815260200191508051906020019080838360005b83811015610c54578181015183820152602001610c3c565b50505050905090810190601f168015610c815780820380516001836020036101000a031916815260200191505b509250505060405180910390fd5b506000838581610c9b57fe5b0495945050505050565b6000828201838110156105bf576040805162461bcd60e51b815260206004820152601b60248201527f536166654d6174683a206164646974696f6e206f766572666c6f770000000000604482015290519081900360640190fd5b6000808411610d3f5760405162461bcd60e51b8152600401808060200182810382526025815260200180610eab6025913960400191505060405180910390fd5b600083118015610d4f5750600082115b610d8a5760405162461bcd60e51b8152600401808060200182810382526028815260200180610e626028913960400191505060405180910390fd5b82610d958584610b93565b81610d9c57fe5b04949350505050565b60006105bf83836040518060400160405280601e81526020017f536166654d6174683a207375627472616374696f6e206f766572666c6f77000081525060008184841115610e345760405162461bcd60e51b8152602060048201818152835160248401528351909283926044909101919085019080838360008315610c54578181015183820152602001610c3c565b50505090039056fe556e697377617056324c6962726172793a204944454e544943414c5f414444524553534553556e697377617056324c6962726172793a20494e53554646494349454e545f4c4951554944495459536166654d6174683a206d756c7469706c69636174696f6e206f766572666c6f77556e697377617056324c6962726172793a20494e53554646494349454e545f414d4f554e54556e697377617056324c6962726172793a20494e53554646494349454e545f494e5055545f414d4f554e54a2646970667358221220f31747b728dea80de480e5cd8b3a6a83b340822a6b7bfe9f2024791aa983479d64736f6c634300060c0033",
  "linkReferences": {},
  "deployedLinkReferences": {}
}