{
  "_format": "hh-sol-artifact-1",
  "contractName": "FrostyAuction",
  "sourceName": "contracts/FrostyAuction.sol",
  "abi": [
    {
      "inputs": [
        {
          "internalType": "contract FrostyAccessControls",
          "name": "_accessControls",
          "type": "address"
        },
        {
          "internalType": "contract IFrostyGarmentNFT",
          "name": "_garmentNft",
          "type": "address"
        },
        {
          "internalType": "address payable",
          "name": "_platformFeeRecipient",
          "type": "address"
        }
      ],
      "stateMutability": "nonpayable",
      "type": "constructor"
    },
    {
      "anonymous": false,
      "inputs": [
        {
          "indexed": true,
          "internalType": "uint256",
          "name": "garmentTokenId",
          "type": "uint256"
        }
      ],
      "name": "AuctionCancelled",
      "type": "event"
    },
    {
      "anonymous": false,
      "inputs": [
        {
          "indexed": true,
          "internalType": "uint256",
          "name": "garmentTokenId",
          "type": "uint256"
        }
      ],
      "name": "AuctionCreated",
      "type": "event"
    },
    {
      "anonymous": false,
      "inputs": [
        {
          "indexed": true,
          "internalType": "uint256",
          "name": "garmentTokenId",
          "type": "uint256"
        },
        {
          "indexed": true,
          "internalType": "address",
          "name": "winner",
          "type": "address"
        },
        {
          "indexed": false,
          "internalType": "uint256",
          "name": "winningBid",
          "type": "uint256"
        }
      ],
      "name": "AuctionResulted",
      "type": "event"
    },
    {
      "anonymous": false,
      "inputs": [
        {
          "indexed": true,
          "internalType": "uint256",
          "name": "garmentTokenId",
          "type": "uint256"
        },
        {
          "indexed": true,
          "internalType": "address",
          "name": "bidder",
          "type": "address"
        },
        {
          "indexed": false,
          "internalType": "uint256",
          "name": "bid",
          "type": "uint256"
        }
      ],
      "name": "BidPlaced",
      "type": "event"
    },
    {
      "anonymous": false,
      "inputs": [
        {
          "indexed": true,
          "internalType": "address",
          "name": "bidder",
          "type": "address"
        },
        {
          "indexed": false,
          "internalType": "uint256",
          "name": "bid",
          "type": "uint256"
        }
      ],
      "name": "BidRefunded",
      "type": "event"
    },
    {
      "anonymous": false,
      "inputs": [
        {
          "indexed": true,
          "internalType": "uint256",
          "name": "garmentTokenId",
          "type": "uint256"
        },
        {
          "indexed": true,
          "internalType": "address",
          "name": "bidder",
          "type": "address"
        },
        {
          "indexed": false,
          "internalType": "uint256",
          "name": "bid",
          "type": "uint256"
        }
      ],
      "name": "BidWithdrawn",
      "type": "event"
    },
    {
      "anonymous": false,
      "inputs": [],
      "name": "FrostyAuctionContractDeployed",
      "type": "event"
    },
    {
      "anonymous": false,
      "inputs": [
        {
          "indexed": false,
          "internalType": "bool",
          "name": "isPaused",
          "type": "bool"
        }
      ],
      "name": "PauseToggled",
      "type": "event"
    },
    {
      "anonymous": false,
      "inputs": [
        {
          "indexed": true,
          "internalType": "address",
          "name": "accessControls",
          "type": "address"
        }
      ],
      "name": "UpdateAccessControls",
      "type": "event"
    },
    {
      "anonymous": false,
      "inputs": [
        {
          "indexed": true,
          "internalType": "uint256",
          "name": "garmentTokenId",
          "type": "uint256"
        },
        {
          "indexed": false,
          "internalType": "uint256",
          "name": "endTime",
          "type": "uint256"
        }
      ],
      "name": "UpdateAuctionEndTime",
      "type": "event"
    },
    {
      "anonymous": false,
      "inputs": [
        {
          "indexed": true,
          "internalType": "uint256",
          "name": "garmentTokenId",
          "type": "uint256"
        },
        {
          "indexed": false,
          "internalType": "uint256",
          "name": "reservePrice",
          "type": "uint256"
        }
      ],
      "name": "UpdateAuctionReservePrice",
      "type": "event"
    },
    {
      "anonymous": false,
      "inputs": [
        {
          "indexed": true,
          "internalType": "uint256",
          "name": "garmentTokenId",
          "type": "uint256"
        },
        {
          "indexed": false,
          "internalType": "uint256",
          "name": "startTime",
          "type": "uint256"
        }
      ],
      "name": "UpdateAuctionStartTime",
      "type": "event"
    },
    {
      "anonymous": false,
      "inputs": [
        {
          "indexed": false,
          "internalType": "uint256",
          "name": "bidWithdrawalLockTime",
          "type": "uint256"
        }
      ],
      "name": "UpdateBidWithdrawalLockTime",
      "type": "event"
    },
    {
      "anonymous": false,
      "inputs": [
        {
          "indexed": false,
          "internalType": "uint256",
          "name": "minBidIncrement",
          "type": "uint256"
        }
      ],
      "name": "UpdateMinBidIncrement",
      "type": "event"
    },
    {
      "anonymous": false,
      "inputs": [
        {
          "indexed": false,
          "internalType": "uint256",
          "name": "platformFee",
          "type": "uint256"
        }
      ],
      "name": "UpdatePlatformFee",
      "type": "event"
    },
    {
      "anonymous": false,
      "inputs": [
        {
          "indexed": false,
          "internalType": "address payable",
          "name": "platformFeeRecipient",
          "type": "address"
        }
      ],
      "name": "UpdatePlatformFeeRecipient",
      "type": "event"
    },
    {
      "inputs": [],
      "name": "accessControls",
      "outputs": [
        {
          "internalType": "contract FrostyAccessControls",
          "name": "",
          "type": "address"
        }
      ],
      "stateMutability": "view",
      "type": "function"
    },
    {
      "inputs": [
        {
          "internalType": "uint256",
          "name": "",
          "type": "uint256"
        }
      ],
      "name": "auctions",
      "outputs": [
        {
          "internalType": "uint256",
          "name": "reservePrice",
          "type": "uint256"
        },
        {
          "internalType": "uint256",
          "name": "startTime",
          "type": "uint256"
        },
        {
          "internalType": "uint256",
          "name": "endTime",
          "type": "uint256"
        },
        {
          "internalType": "bool",
          "name": "resulted",
          "type": "bool"
        }
      ],
      "stateMutability": "view",
      "type": "function"
    },
    {
      "inputs": [],
      "name": "bidWithdrawalLockTime",
      "outputs": [
        {
          "internalType": "uint256",
          "name": "",
          "type": "uint256"
        }
      ],
      "stateMutability": "view",
      "type": "function"
    },
    {
      "inputs": [
        {
          "internalType": "uint256",
          "name": "_garmentTokenId",
          "type": "uint256"
        }
      ],
      "name": "cancelAuction",
      "outputs": [],
      "stateMutability": "nonpayable",
      "type": "function"
    },
    {
      "inputs": [
        {
          "internalType": "uint256",
          "name": "_garmentTokenId",
          "type": "uint256"
        },
        {
          "internalType": "uint256",
          "name": "_reservePrice",
          "type": "uint256"
        },
        {
          "internalType": "uint256",
          "name": "_startTimestamp",
          "type": "uint256"
        },
        {
          "internalType": "uint256",
          "name": "_endTimestamp",
          "type": "uint256"
        }
      ],
      "name": "createAuction",
      "outputs": [],
      "stateMutability": "nonpayable",
      "type": "function"
    },
    {
      "inputs": [
        {
          "internalType": "uint256",
          "name": "_garmentTokenId",
          "type": "uint256"
        },
        {
          "internalType": "uint256",
          "name": "_reservePrice",
          "type": "uint256"
        },
        {
          "internalType": "uint256",
          "name": "_startTimestamp",
          "type": "uint256"
        },
        {
          "internalType": "uint256",
          "name": "_endTimestamp",
          "type": "uint256"
        }
      ],
      "name": "createAuctionOnBehalfOfOwner",
      "outputs": [],
      "stateMutability": "nonpayable",
      "type": "function"
    },
    {
      "inputs": [],
      "name": "garmentNft",
      "outputs": [
        {
          "internalType": "contract IFrostyGarmentNFT",
          "name": "",
          "type": "address"
        }
      ],
      "stateMutability": "view",
      "type": "function"
    },
    {
      "inputs": [
        {
          "internalType": "uint256",
          "name": "_garmentTokenId",
          "type": "uint256"
        }
      ],
      "name": "getAuction",
      "outputs": [
        {
          "internalType": "uint256",
          "name": "_reservePrice",
          "type": "uint256"
        },
        {
          "internalType": "uint256",
          "name": "_startTime",
          "type": "uint256"
        },
        {
          "internalType": "uint256",
          "name": "_endTime",
          "type": "uint256"
        },
        {
          "internalType": "bool",
          "name": "_resulted",
          "type": "bool"
        }
      ],
      "stateMutability": "view",
      "type": "function"
    },
    {
      "inputs": [
        {
          "internalType": "uint256",
          "name": "_garmentTokenId",
          "type": "uint256"
        }
      ],
      "name": "getHighestBidder",
      "outputs": [
        {
          "internalType": "address payable",
          "name": "_bidder",
          "type": "address"
        },
        {
          "internalType": "uint256",
          "name": "_bid",
          "type": "uint256"
        },
        {
          "internalType": "uint256",
          "name": "_lastBidTime",
          "type": "uint256"
        }
      ],
      "stateMutability": "view",
      "type": "function"
    },
    {
      "inputs": [
        {
          "internalType": "uint256",
          "name": "",
          "type": "uint256"
        }
      ],
      "name": "highestBids",
      "outputs": [
        {
          "internalType": "address payable",
          "name": "bidder",
          "type": "address"
        },
        {
          "internalType": "uint256",
          "name": "bid",
          "type": "uint256"
        },
        {
          "internalType": "uint256",
          "name": "lastBidTime",
          "type": "uint256"
        }
      ],
      "stateMutability": "view",
      "type": "function"
    },
    {
      "inputs": [],
      "name": "isPaused",
      "outputs": [
        {
          "internalType": "bool",
          "name": "",
          "type": "bool"
        }
      ],
      "stateMutability": "view",
      "type": "function"
    },
    {
      "inputs": [],
      "name": "minBidIncrement",
      "outputs": [
        {
          "internalType": "uint256",
          "name": "",
          "type": "uint256"
        }
      ],
      "stateMutability": "view",
      "type": "function"
    },
    {
      "inputs": [
        {
          "internalType": "uint256",
          "name": "_garmentTokenId",
          "type": "uint256"
        }
      ],
      "name": "placeBid",
      "outputs": [],
      "stateMutability": "payable",
      "type": "function"
    },
    {
      "inputs": [],
      "name": "platformFee",
      "outputs": [
        {
          "internalType": "uint256",
          "name": "",
          "type": "uint256"
        }
      ],
      "stateMutability": "view",
      "type": "function"
    },
    {
      "inputs": [],
      "name": "platformFeeRecipient",
      "outputs": [
        {
          "internalType": "address payable",
          "name": "",
          "type": "address"
        }
      ],
      "stateMutability": "view",
      "type": "function"
    },
    {
      "inputs": [
        {
          "internalType": "address",
          "name": "_tokenContract",
          "type": "address"
        }
      ],
      "name": "reclaimERC20",
      "outputs": [],
      "stateMutability": "nonpayable",
      "type": "function"
    },
    {
      "inputs": [],
      "name": "reclaimETH",
      "outputs": [],
      "stateMutability": "nonpayable",
      "type": "function"
    },
    {
      "inputs": [
        {
          "internalType": "uint256",
          "name": "_garmentTokenId",
          "type": "uint256"
        }
      ],
      "name": "resultAuction",
      "outputs": [],
      "stateMutability": "nonpayable",
      "type": "function"
    },
    {
      "inputs": [],
      "name": "toggleIsPaused",
      "outputs": [],
      "stateMutability": "nonpayable",
      "type": "function"
    },
    {
      "inputs": [
        {
          "internalType": "contract FrostyAccessControls",
          "name": "_accessControls",
          "type": "address"
        }
      ],
      "name": "updateAccessControls",
      "outputs": [],
      "stateMutability": "nonpayable",
      "type": "function"
    },
    {
      "inputs": [
        {
          "internalType": "uint256",
          "name": "_garmentTokenId",
          "type": "uint256"
        },
        {
          "internalType": "uint256",
          "name": "_endTimestamp",
          "type": "uint256"
        }
      ],
      "name": "updateAuctionEndTime",
      "outputs": [],
      "stateMutability": "nonpayable",
      "type": "function"
    },
    {
      "inputs": [
        {
          "internalType": "uint256",
          "name": "_garmentTokenId",
          "type": "uint256"
        },
        {
          "internalType": "uint256",
          "name": "_reservePrice",
          "type": "uint256"
        }
      ],
      "name": "updateAuctionReservePrice",
      "outputs": [],
      "stateMutability": "nonpayable",
      "type": "function"
    },
    {
      "inputs": [
        {
          "internalType": "uint256",
          "name": "_garmentTokenId",
          "type": "uint256"
        },
        {
          "internalType": "uint256",
          "name": "_startTime",
          "type": "uint256"
        }
      ],
      "name": "updateAuctionStartTime",
      "outputs": [],
      "stateMutability": "nonpayable",
      "type": "function"
    },
    {
      "inputs": [
        {
          "internalType": "uint256",
          "name": "_bidWithdrawalLockTime",
          "type": "uint256"
        }
      ],
      "name": "updateBidWithdrawalLockTime",
      "outputs": [],
      "stateMutability": "nonpayable",
      "type": "function"
    },
    {
      "inputs": [
        {
          "internalType": "uint256",
          "name": "_minBidIncrement",
          "type": "uint256"
        }
      ],
      "name": "updateMinBidIncrement",
      "outputs": [],
      "stateMutability": "nonpayable",
      "type": "function"
    },
    {
      "inputs": [
        {
          "internalType": "uint256",
          "name": "_platformFee",
          "type": "uint256"
        }
      ],
      "name": "updatePlatformFee",
      "outputs": [],
      "stateMutability": "nonpayable",
      "type": "function"
    },
    {
      "inputs": [
        {
          "internalType": "address payable",
          "name": "_platformFeeRecipient",
          "type": "address"
        }
      ],
      "name": "updatePlatformFeeRecipient",
      "outputs": [],
      "stateMutability": "nonpayable",
      "type": "function"
    },
    {
      "inputs": [
        {
          "internalType": "uint256",
          "name": "_garmentTokenId",
          "type": "uint256"
        }
      ],
      "name": "withdrawBid",
      "outputs": [],
      "stateMutability": "nonpayable",
      "type": "function"
    }
  ],
  "bytecode": "0x608060405267016345785d8a00006005556104b060065560786007553480156200002857600080fd5b5060405162003bbc38038062003bbc833981810160405260608110156200004e57600080fd5b508051602082015160409092015160016000559091906001600160a01b038316620000ab5760405162461bcd60e51b815260040180806020018281038252602681526020018062003b696026913960400191505060405180910390fd5b6001600160a01b03821662000107576040805162461bcd60e51b815260206004820152601a60248201527f46726f73747941756374696f6e3a20496e76616c6964204e4654000000000000604482015290519081900360640190fd5b6001600160a01b0381166200014e5760405162461bcd60e51b815260040180806020018281038252602d81526020018062003b8f602d913960400191505060405180910390fd5b600480546001600160a01b038086166001600160a01b0319928316179092556003805485841690831617905560088054928416929091169190911790556040517f0ad1f89c9f39acd36adbe4f611a7c2eb26440a25804fab7019f5c9fdca7aca2690600090a15050506139a280620001c76000396000f3fe6080604052600436106101b75760003560e01c80638905fd4f116100ec578063bd9610701161008a578063eb13554f11610064578063eb13554f146105d6578063ef2a8ce6146105eb578063f5fe7f7114610627578063f9613d7f1461065a576101b7565b8063bd9610701461054c578063c750cb791461057c578063d9f303a2146105a6576101b7565b80639ae001ff116100c65780639ae001ff1461049f578063aa0b5988146104cf578063af3718b8146104f9578063b187bd2614610523576101b7565b80638905fd4f1461042557806396b5a755146104585780639979ef4514610482576101b7565b8063431f21da116101595780636a5362f6116101335780636a5362f61461039e5780636ef3da94146103b3578063748365ef146103e657806378bd7935146103fb576101b7565b8063431f21da146102e6578063571a26a014610322578063623de5ad14610374576101b7565b8063111cb25811610195578063111cb258146102275780631f159d2a1461027957806326232a2e146102aa578063335b115e146102d1576101b7565b8063083759e0146101bc5780630eaaf4c8146101e85780630f144a4814610212575b600080fd5b3480156101c857600080fd5b506101e6600480360360208110156101df57600080fd5b503561066f565b005b3480156101f457600080fd5b506101e66004803603602081101561020b57600080fd5b5035610767565b34801561021e57600080fd5b506101e66109b4565b34801561023357600080fd5b506102516004803603602081101561024a57600080fd5b5035610aa0565b604080516001600160a01b039094168452602084019290925282820152519081900360600190f35b34801561028557600080fd5b5061028e610acc565b604080516001600160a01b039092168252519081900360200190f35b3480156102b657600080fd5b506102bf610adb565b60408051918252519081900360200190f35b3480156102dd57600080fd5b506102bf610ae1565b3480156102f257600080fd5b506101e66004803603608081101561030957600080fd5b5080359060208101359060408101359060600135610ae7565b34801561032e57600080fd5b5061034c6004803603602081101561034557600080fd5b5035610d64565b6040805194855260208501939093528383019190915215156060830152519081900360800190f35b34801561038057600080fd5b506101e66004803603602081101561039757600080fd5b5035610d8f565b3480156103aa57600080fd5b506102bf610e87565b3480156103bf57600080fd5b506101e6600480360360208110156103d657600080fd5b50356001600160a01b0316610e8d565b3480156103f257600080fd5b5061028e610fd9565b34801561040757600080fd5b5061034c6004803603602081101561041e57600080fd5b5035610fe8565b34801561043157600080fd5b506101e66004803603602081101561044857600080fd5b50356001600160a01b0316611014565b34801561046457600080fd5b506101e66004803603602081101561047b57600080fd5b503561125c565b6101e66004803603602081101561049857600080fd5b503561153d565b3480156104ab57600080fd5b506101e6600480360360408110156104c257600080fd5b50803590602001356117c7565b3480156104db57600080fd5b506101e6600480360360208110156104f257600080fd5b503561191f565b34801561050557600080fd5b506101e66004803603602081101561051c57600080fd5b5035611a17565b34801561052f57600080fd5b506105386122b9565b604080519115158252519081900360200190f35b34801561055857600080fd5b506101e66004803603604081101561056f57600080fd5b50803590602001356122c9565b34801561058857600080fd5b506102516004803603602081101561059f57600080fd5b503561241e565b3480156105b257600080fd5b506101e6600480360360408110156105c957600080fd5b508035906020013561244c565b3480156105e257600080fd5b5061028e612639565b3480156105f757600080fd5b506101e66004803603608081101561060e57600080fd5b5080359060208101359060408101359060600135612648565b34801561063357600080fd5b506101e66004803603602081101561064a57600080fd5b50356001600160a01b0316612847565b34801561066657600080fd5b506101e661299d565b6004546001600160a01b031663c395fcb3610688612ab9565b6040518263ffffffff1660e01b815260040180826001600160a01b0316815260200191505060206040518083038186803b1580156106c557600080fd5b505afa1580156106d9573d6000803e3d6000fd5b505050506040513d60208110156106ef57600080fd5b505161072c5760405162461bcd60e51b815260040180806020018281038252603981526020018061363f6039913960400191505060405180910390fd5b60058190556040805182815290517f489b0441344cbdcb036bee4857de51567f580e9747166f76b581be803ca45fcb9181900360200190a150565b600260005414156107ad576040805162461bcd60e51b815260206004820152601f6024820152600080516020613001833981519152604482015290519081900360640190fd5b6002600055600854600160a01b900460ff1615610811576040805162461bcd60e51b815260206004820152601c60248201527f46756e6374696f6e2069732063757272656e746c792070617573656400000000604482015290519081900360640190fd5b6000818152600260205260409020610827612ab9565b81546001600160a01b039081169116146108725760405162461bcd60e51b81526004018080602001828103825260398152602001806132036039913960400191505060405180910390fd5b600654600282015461088391612abd565b61088b612b20565b10156108c85760405162461bcd60e51b81526004018080602001828103825260458152602001806138ae6045913960600191505060405180910390fd5b6000828152600160205260409020600201546108e2612b20565b1061091e5760405162461bcd60e51b815260040180806020018281038252602b8152602001806136b5602b913960400191505060405180910390fd5b6001808201546000848152600260208190526040822080546001600160a01b0319168155938401829055929092019190915561096161095b612ab9565b82612b24565b610969612ab9565b6001600160a01b0316837f8f8619524e8d462cead34604bd2247ede24175801481e4d0b8059ac8aa41c301836040518082815260200191505060405180910390a35050600160005550565b6004546001600160a01b031663c395fcb36109cd612ab9565b6040518263ffffffff1660e01b815260040180826001600160a01b0316815260200191505060206040518083038186803b158015610a0a57600080fd5b505afa158015610a1e573d6000803e3d6000fd5b505050506040513d6020811015610a3457600080fd5b5051610a715760405162461bcd60e51b815260040180806020018281038252602e815260200180613538602e913960400191505060405180910390fd5b60405133904780156108fc02916000818181858888f19350505050158015610a9d573d6000803e3d6000fd5b50565b60026020819052600091825260409091208054600182015491909201546001600160a01b039092169183565b6003546001600160a01b031681565b60075481565b60055481565b600854600160a01b900460ff1615610b46576040805162461bcd60e51b815260206004820152601c60248201527f46756e6374696f6e2069732063757272656e746c792070617573656400000000604482015290519081900360640190fd5b6004546001600160a01b031663099db017610b5f612ab9565b6040518263ffffffff1660e01b815260040180826001600160a01b0316815260200191505060206040518083038186803b158015610b9c57600080fd5b505afa158015610bb0573d6000803e3d6000fd5b505050506040513d6020811015610bc657600080fd5b5051610c035760405162461bcd60e51b815260040180806020018281038252603d815260200180613409603d913960400191505060405180910390fd5b610c0b612ab9565b600354604080516331a9108f60e11b81526004810188905290516001600160a01b039384169390921691636352211e91602480820192602092909190829003018186803b158015610c5b57600080fd5b505afa158015610c6f573d6000803e3d6000fd5b505050506040513d6020811015610c8557600080fd5b50516001600160a01b0316148015610d175750600354604080516356c3163760e01b81526004810187905230602482015290516001600160a01b03909216916356c3163791604480820192602092909190829003018186803b158015610cea57600080fd5b505afa158015610cfe573d6000803e3d6000fd5b505050506040513d6020811015610d1457600080fd5b50515b610d525760405162461bcd60e51b81526004018080602001828103825260438152602001806135fc6043913960600191505060405180910390fd5b610d5e84848484612bf8565b50505050565b6001602081905260009182526040909120805491810154600282015460039092015490919060ff1684565b6004546001600160a01b031663c395fcb3610da8612ab9565b6040518263ffffffff1660e01b815260040180826001600160a01b0316815260200191505060206040518083038186803b158015610de557600080fd5b505afa158015610df9573d6000803e3d6000fd5b505050506040513d6020811015610e0f57600080fd5b5051610e4c5760405162461bcd60e51b815260040180806020018281038252603f815260200180613796603f913960400191505060405180910390fd5b60068190556040805182815290517ff9e4b69944d3fbdd96aedcda02032e2091346ececc3b55a485b40a6dc09bb9e09181900360200190a150565b60065481565b6004546001600160a01b031663c395fcb3610ea6612ab9565b6040518263ffffffff1660e01b815260040180826001600160a01b0316815260200191505060206040518083038186803b158015610ee357600080fd5b505afa158015610ef7573d6000803e3d6000fd5b505050506040513d6020811015610f0d57600080fd5b5051610f4a5760405162461bcd60e51b81526004018080602001828103825260388152602001806130696038913960400191505060405180910390fd5b6001600160a01b038116610f8f5760405162461bcd60e51b81526004018080602001828103825260308152602001806133a66030913960400191505060405180910390fd5b600480546001600160a01b0319166001600160a01b0383169081179091556040517fb7a140127704195c46749cbcf048725c27a55237114201a7a621eefb759f247490600090a250565b6004546001600160a01b031681565b600090815260016020819052604090912080549181015460028201546003909201549293909260ff1690565b6004546001600160a01b031663c395fcb361102d612ab9565b6040518263ffffffff1660e01b815260040180826001600160a01b0316815260200191505060206040518083038186803b15801561106a57600080fd5b505afa15801561107e573d6000803e3d6000fd5b505050506040513d602081101561109457600080fd5b50516110d15760405162461bcd60e51b81526004018080602001828103825260308152602001806132aa6030913960400191505060405180910390fd5b6001600160a01b03811661111e576040805162461bcd60e51b815260206004820152600f60248201526e496e76616c6964206164647265737360881b604482015290519081900360640190fd5b604080516370a0823160e01b8152306004820152905182916000916001600160a01b038416916370a08231916024808301926020929190829003018186803b15801561116957600080fd5b505afa15801561117d573d6000803e3d6000fd5b505050506040513d602081101561119357600080fd5b50516040805163a9059cbb60e01b81523360048201526024810183905290519192506001600160a01b0384169163a9059cbb916044808201926020929091908290030181600087803b1580156111e857600080fd5b505af11580156111fc573d6000803e3d6000fd5b505050506040513d602081101561121257600080fd5b5051611257576040805162461bcd60e51b815260206004820152600f60248201526e151c985b9cd9995c8819985a5b1959608a1b604482015290519081900360640190fd5b505050565b600260005414156112a2576040805162461bcd60e51b815260206004820152601f6024820152600080516020613001833981519152604482015290519081900360640190fd5b60026000556004546001600160a01b031663c395fcb36112c0612ab9565b6040518263ffffffff1660e01b815260040180826001600160a01b0316815260200191505060206040518083038186803b1580156112fd57600080fd5b505afa158015611311573d6000803e3d6000fd5b505050506040513d602081101561132757600080fd5b5051806113b257506004546001600160a01b031663113b0ab2611348612ab9565b6040518263ffffffff1660e01b815260040180826001600160a01b0316815260200191505060206040518083038186803b15801561138557600080fd5b505afa158015611399573d6000803e3d6000fd5b505050506040513d60208110156113af57600080fd5b50515b6113ed5760405162461bcd60e51b81526004018080602001828103825260438152602001806138f36043913960600191505060405180910390fd5b6000818152600160205260409020600281015461143b5760405162461bcd60e51b81526004018080602001828103825260338152602001806133d66033913960400191505060405180910390fd5b600381015460ff161561147f5760405162461bcd60e51b8152600401808060200182810382526035815260200180612fcc6035913960400191505060405180910390fd5b600082815260026020526040902080546001600160a01b0316156114df57805460018201546114b7916001600160a01b031690612b24565b6000838152600260208190526040822080546001600160a01b03191681556001810183905501555b6000838152600160208190526040808320838155918201839055600282018390556003909101805460ff191690555184917f2809c7e17bf978fbc7194c0a694b638c4215e9140cacc6c38ca36010b45697df91a25050600160005550565b60026000541415611583576040805162461bcd60e51b815260206004820152601f6024820152600080516020613001833981519152604482015290519081900360640190fd5b6002600055600854600160a01b900460ff16156115e7576040805162461bcd60e51b815260206004820152601c60248201527f46756e6374696f6e2069732063757272656e746c792070617573656400000000604482015290519081900360640190fd5b6116006115f2612ab9565b6001600160a01b0316612d4f565b1561163c5760405162461bcd60e51b815260040180806020018281038252602e81526020018061323c602e913960400191505060405180910390fd5b600081815260016020819052604090912090810154611659612b20565b101580156116725750806002015461166f612b20565b11155b6116ad5760405162461bcd60e51b815260040180806020018281038252603d815260200180613333603d913960400191505060405180910390fd5b600082815260026020526040812060055460018201543493916116d09190612abd565b9050808310156117115760405162461bcd60e51b81526004018080602001828103825260378152602001806139366037913960400191505060405180910390fd5b81546001600160a01b03161561173b578154600183015461173b916001600160a01b031690612b24565b611743612ab9565b82546001600160a01b0319166001600160a01b03919091161782556001820183905561176d612b20565b600283015561177a612ab9565b6001600160a01b0316857f0e54eff26401bf69b81b26f60bd85ef47f5d85275c1d268d84f68d6897431c47856040518082815260200191505060405180910390a350506001600055505050565b6004546001600160a01b031663c395fcb36117e0612ab9565b6040518263ffffffff1660e01b815260040180826001600160a01b0316815260200191505060206040518083038186803b15801561181d57600080fd5b505afa158015611831573d6000803e3d6000fd5b505050506040513d602081101561184757600080fd5b50516118845760405162461bcd60e51b815260040180806020018281038252603a815260200180613446603a913960400191505060405180910390fd5b6000828152600160205260409020600201546118d15760405162461bcd60e51b815260040180806020018281038252603781526020018061316c6037913960400191505060405180910390fd5b6000828152600160208181526040928390209091018390558151838152915184927fc2a98245c0df83b31e855d9b43049b8b352a11b4e93641ad739841dda7ee121d92908290030190a25050565b6004546001600160a01b031663c395fcb3611938612ab9565b6040518263ffffffff1660e01b815260040180826001600160a01b0316815260200191505060206040518083038186803b15801561197557600080fd5b505afa158015611989573d6000803e3d6000fd5b505050506040513d602081101561199f57600080fd5b50516119dc5760405162461bcd60e51b8152600401808060200182810382526035815260200180612f5f6035913960400191505060405180910390fd5b60078190556040805182815290517f2644fd26359c107ff7991b6dfc36ce902b334ce4e3891bbecacc5922aa620efa9181900360200190a150565b60026000541415611a5d576040805162461bcd60e51b815260206004820152601f6024820152600080516020613001833981519152604482015290519081900360640190fd5b60026000556004546001600160a01b031663c395fcb3611a7b612ab9565b6040518263ffffffff1660e01b815260040180826001600160a01b0316815260200191505060206040518083038186803b158015611ab857600080fd5b505afa158015611acc573d6000803e3d6000fd5b505050506040513d6020811015611ae257600080fd5b505180611b6d57506004546001600160a01b031663113b0ab2611b03612ab9565b6040518263ffffffff1660e01b815260040180826001600160a01b0316815260200191505060206040518083038186803b158015611b4057600080fd5b505afa158015611b54573d6000803e3d6000fd5b505050506040513d6020811015611b6a57600080fd5b50515b611ba85760405162461bcd60e51b81526004018080602001828103825260438152602001806134f56043913960600191505060405180910390fd5b60008181526001602052604090206002810154611bf65760405162461bcd60e51b81526004018080602001828103825260338152602001806131106033913960400191505060405180910390fd5b8060020154611c03612b20565b11611c3f5760405162461bcd60e51b81526004018080602001828103825260368152602001806137d56036913960400191505060405180910390fd5b600381015460ff1615611c835760405162461bcd60e51b81526004018080602001828103825260358152602001806137276035913960400191505060405180910390fd5b600354604080516356c3163760e01b81526004810185905230602482015290516001600160a01b03909216916356c3163791604480820192602092909190829003018186803b158015611cd557600080fd5b505afa158015611ce9573d6000803e3d6000fd5b505050506040513d6020811015611cff57600080fd5b5051611d3c5760405162461bcd60e51b81526004018080602001828103825260318152602001806130a16031913960400191505060405180910390fd5b60008281526002602052604090208054600182015483546001600160a01b0390921691811015611d9d5760405162461bcd60e51b8152600401808060200182810382526030815260200180612f2f6030913960400191505060405180910390fd5b6001600160a01b038216611de25760405162461bcd60e51b81526004018080602001828103825260298152602001806131436029913960400191505060405180910390fd5b60008581526001602081815260408084206003908101805460ff19168517905560029283905281852080546001600160a01b03191681559384018590559290910183905590548151639920fae360e01b8152600481018990526024810185905291516001600160a01b0390911692639920fae3926044808201939182900301818387803b158015611e7257600080fd5b505af1158015611e86573d6000803e3d6000fd5b505050508360000154811115612077578354600090611ea6908390612d55565b90506000611ecb6103e8611ec560075485612d9790919063ffffffff16565b90612df0565b6008546040519192506000916001600160a01b039091169083908381818185875af1925050503d8060008114611f1d576040519150601f19603f3d011682016040523d82523d6000602084013e611f22565b606091505b5050905080611f625760405162461bcd60e51b8152600401808060200182810382526038815260200180612f946038913960400191505060405180910390fd5b600354604080516338e1173d60e21b8152600481018b905290516000926001600160a01b03169163e3845cf4916024808301926020929190829003018186803b158015611fae57600080fd5b505afa158015611fc2573d6000803e3d6000fd5b505050506040513d6020811015611fd857600080fd5b50516001600160a01b0316611fed8685612d55565b604051600081818185875af1925050503d8060008114612029576040519150601f19603f3d011682016040523d82523d6000602084013e61202e565b606091505b505090508061206e5760405162461bcd60e51b81526004018080602001828103825260488152602001806130216048913960600191505060405180910390fd5b50505050612180565b600354604080516338e1173d60e21b81526004810188905290516000926001600160a01b03169163e3845cf4916024808301926020929190829003018186803b1580156120c357600080fd5b505afa1580156120d7573d6000803e3d6000fd5b505050506040513d60208110156120ed57600080fd5b50516040516001600160a01b03909116908390600081818185875af1925050503d8060008114612139576040519150601f19603f3d011682016040523d82523d6000602084013e61213e565b606091505b505090508061217e5760405162461bcd60e51b81526004018080602001828103825260488152602001806130216048913960600191505060405180910390fd5b505b600354604080516331a9108f60e11b81526004810188905290516001600160a01b03909216916342842e0e918391636352211e91602480820192602092909190829003018186803b1580156121d457600080fd5b505afa1580156121e8573d6000803e3d6000fd5b505050506040513d60208110156121fe57600080fd5b5051604080516001600160e01b031960e085901b1681526001600160a01b03928316600482015291861660248301526044820189905251606480830192600092919082900301818387803b15801561225557600080fd5b505af1158015612269573d6000803e3d6000fd5b50506040805184815290516001600160a01b03861693508892507fdc3ad5667eda0c259aee8174a35865c76ad9af37c8ecac1e2daaaad3f21183c79181900360200190a350506001600055505050565b600854600160a01b900460ff1681565b6004546001600160a01b031663c395fcb36122e2612ab9565b6040518263ffffffff1660e01b815260040180826001600160a01b0316815260200191505060206040518083038186803b15801561231f57600080fd5b505afa158015612333573d6000803e3d6000fd5b505050506040513d602081101561234957600080fd5b50516123865760405162461bcd60e51b815260040180806020018281038252603d8152602001806135bf603d913960400191505060405180910390fd5b6000828152600160205260409020600201546123d35760405162461bcd60e51b815260040180806020018281038252603a81526020018061375c603a913960400191505060405180910390fd5b6000828152600160209081526040918290208390558151838152915184927f9047c56c10a65302488cb36dde4b5e5684eefc80cb990c2f46931ccfe28c466792908290030190a25050565b60008181526002602081905260409091208054600182015491909201546001600160a01b0390921693909250565b6004546001600160a01b031663c395fcb3612465612ab9565b6040518263ffffffff1660e01b815260040180826001600160a01b0316815260200191505060206040518083038186803b1580156124a257600080fd5b505afa1580156124b6573d6000803e3d6000fd5b505050506040513d60208110156124cc57600080fd5b50516125095760405162461bcd60e51b81526004018080602001828103825260388152602001806135876038913960400191505060405180910390fd5b6000828152600160205260409020600201546125565760405162461bcd60e51b81526004018080602001828103825260358152602001806138356035913960400191505060405180910390fd5b6000828152600160208190526040909120015481116125a65760405162461bcd60e51b81526004018080602001828103825260478152602001806136e06047913960600191505060405180910390fd5b6125ae612b20565b81116125eb5760405162461bcd60e51b81526004018080602001828103825260438152602001806134806043913960600191505060405180910390fd5b6000828152600160209081526040918290206002018390558151838152915184927fafc200a11431b405b3776f040774ad2ca641885174f70b46ec537e73eb1f1a9892908290030190a25050565b6008546001600160a01b031681565b6004546001600160a01b031663c395fcb3612661612ab9565b6040518263ffffffff1660e01b815260040180826001600160a01b0316815260200191505060206040518083038186803b15801561269e57600080fd5b505afa1580156126b2573d6000803e3d6000fd5b505050506040513d60208110156126c857600080fd5b50518061275357506004546001600160a01b031663113b0ab26126e9612ab9565b6040518263ffffffff1660e01b815260040180826001600160a01b0316815260200191505060206040518083038186803b15801561272657600080fd5b505afa15801561273a573d6000803e3d6000fd5b505050506040513d602081101561275057600080fd5b50515b61278e5760405162461bcd60e51b81526004018080602001828103825260598152602001806132da6059913960600191505060405180910390fd5b600354604080516356c3163760e01b81526004810187905230602482015290516001600160a01b03909216916356c3163791604480820192602092909190829003018186803b1580156127e057600080fd5b505afa1580156127f4573d6000803e3d6000fd5b505050506040513d602081101561280a57600080fd5b5051610d525760405162461bcd60e51b81526004018080602001828103825260608152602001806131a36060913960600191505060405180910390fd5b6004546001600160a01b031663c395fcb3612860612ab9565b6040518263ffffffff1660e01b815260040180826001600160a01b0316815260200191505060206040518083038186803b15801561289d57600080fd5b505afa1580156128b1573d6000803e3d6000fd5b505050506040513d60208110156128c757600080fd5b50516129045760405162461bcd60e51b815260040180806020018281038252603e8152602001806130d2603e913960400191505060405180910390fd5b6001600160a01b0381166129495760405162461bcd60e51b81526004018080602001828103825260368152602001806133706036913960400191505060405180910390fd5b600880546001600160a01b0383166001600160a01b0319909116811790915560408051918252517fe57e7c1f36cc83fade34e32351e6eee7eb9da532662b1b5da10c631e8222aca79181900360200190a150565b6004546001600160a01b031663c395fcb36129b6612ab9565b6040518263ffffffff1660e01b815260040180826001600160a01b0316815260200191505060206040518083038186803b1580156129f357600080fd5b505afa158015612a07573d6000803e3d6000fd5b505050506040513d6020811015612a1d57600080fd5b5051612a5a5760405162461bcd60e51b81526004018080602001828103825260328152602001806134c36032913960400191505060405180910390fd5b6008805460ff600160a01b808304821615810260ff60a01b1990931692909217928390556040805192909304161515815290517f9077d36bc00859b5c3f320310707208543dd35092cb0a0fe117d0c6a558b148b9181900360200190a1565b3390565b600082820183811015612b17576040805162461bcd60e51b815260206004820152601b60248201527f536166654d6174683a206164646974696f6e206f766572666c6f770000000000604482015290519081900360640190fd5b90505b92915050565b4290565b6040516000906001600160a01b0384169083908381818185875af1925050503d8060008114612b6f576040519150601f19603f3d011682016040523d82523d6000602084013e612b74565b606091505b5050905080612bb45760405162461bcd60e51b815260040180806020018281038252604481526020018061386a6044913960600191505060405180910390fd5b6040805183815290516001600160a01b038516917f8377883650d2137d6e6d67bcf2dbb9b1dab287d68240a17ff910b9fb7a0ad5ff919081900360200190a2505050565b60008481526001602052604090206002015415612c465760405162461bcd60e51b815260040180806020018281038252602a81526020018061380b602a913960400191505060405180910390fd5b818111612c845760405162461bcd60e51b815260040180806020018281038252604081526020018061326a6040913960400191505060405180910390fd5b612c8c612b20565b8111612cc95760405162461bcd60e51b815260040180806020018281038252603d815260200180613678603d913960400191505060405180910390fd5b6040805160808101825284815260208082018581528284018581526000606085018181528a825260019485905286822095518655925193850193909355516002840155516003909201805460ff191692151592909217909155905185917f7e0e356457a92dacd3760ddf327a24dd226c6ca01b2cc41a7fd6f28469c7ab9b91a250505050565b3b151590565b6000612b1783836040518060400160405280601e81526020017f536166654d6174683a207375627472616374696f6e206f766572666c6f770000815250612e32565b600082612da657506000612b1a565b82820282848281612db357fe5b0414612b175760405162461bcd60e51b81526004018080602001828103825260218152602001806135666021913960400191505060405180910390fd5b6000612b1783836040518060400160405280601a81526020017f536166654d6174683a206469766973696f6e206279207a65726f000000000000815250612ec9565b60008184841115612ec15760405162461bcd60e51b81526004018080602001828103825283818151815260200191508051906020019080838360005b83811015612e86578181015183820152602001612e6e565b50505050905090810190601f168015612eb35780820380516001836020036101000a031916815260200191505b509250505060405180910390fd5b505050900390565b60008183612f185760405162461bcd60e51b8152602060048201818152835160248401528351909283926044909101919085019080838360008315612e86578181015183820152602001612e6e565b506000838581612f2457fe5b049594505050505056fe46726f73747941756374696f6e2e726573756c7441756374696f6e3a2072657365727665206e6f74207265616368656446726f73747941756374696f6e2e757064617465506c6174666f726d4665653a2053656e646572206d7573742062652061646d696e46726f73747941756374696f6e2e726573756c7441756374696f6e3a204661696c656420746f2073656e6420706c6174666f726d2066656546726f73747941756374696f6e2e63616e63656c41756374696f6e3a2061756374696f6e20616c726561647920726573756c7465645265656e7472616e637947756172643a207265656e7472616e742063616c6c0046726f73747941756374696f6e2e726573756c7441756374696f6e3a204661696c656420746f2073656e64207468652064657369676e657220746865697220726f79616c7469657346726f73747941756374696f6e2e757064617465416363657373436f6e74726f6c733a2053656e646572206d7573742062652061646d696e46726f73747941756374696f6e2e726573756c7441756374696f6e3a2061756374696f6e206e6f7420617070726f76656446726f73747941756374696f6e2e757064617465506c6174666f726d466565526563697069656e743a2053656e646572206d7573742062652061646d696e46726f73747941756374696f6e2e726573756c7441756374696f6e3a2041756374696f6e20646f6573206e6f7420657869737446726f73747941756374696f6e2e726573756c7441756374696f6e3a206e6f206f70656e206269647346726f73747941756374696f6e2e75706461746541756374696f6e537461727454696d653a204e6f2041756374696f6e2065786973747346726f73747941756374696f6e2e63726561746541756374696f6e4f6e426568616c664f664f776e65723a2043616e6e6f742063726561746520616e2061756374696f6e20696620796f7520646f206e6f74206861766520617070726f76616c46726f73747941756374696f6e2e77697468647261774269643a20596f7520617265206e6f742074686520686967686573742062696464657246726f73747941756374696f6e2e706c6163654269643a204e6f20636f6e747261637473207065726d697474656446726f73747941756374696f6e2e63726561746541756374696f6e3a20456e642074696d65206d7573742062652067726561746572207468616e20737461727446726f73747941756374696f6e2e7265636c61696d45524332303a2053656e646572206d7573742062652061646d696e46726f73747941756374696f6e2e63726561746541756374696f6e4f6e426568616c664f664f776e65723a2053656e646572206d75737420686176652061646d696e206f7220736d61727420636f6e747261637420726f6c6546726f73747941756374696f6e2e706c6163654269643a2042696464696e67206f757473696465206f66207468652061756374696f6e2077696e646f7746726f73747941756374696f6e2e757064617465506c6174666f726d466565526563697069656e743a205a65726f206164647265737346726f73747941756374696f6e2e757064617465416363657373436f6e74726f6c733a205a65726f204164647265737346726f73747941756374696f6e2e63616e63656c41756374696f6e3a2041756374696f6e20646f6573206e6f7420657869737446726f73747941756374696f6e2e63726561746541756374696f6e3a2053656e646572206d757374206861766520746865206d696e74657220726f6c6546726f73747941756374696f6e2e75706461746541756374696f6e537461727454696d653a2053656e646572206d7573742062652061646d696e46726f73747941756374696f6e2e75706461746541756374696f6e456e6454696d653a20456e642074696d65207061737365642e204e6f626f64792063616e2062696446726f73747941756374696f6e2e746f67676c6549735061757365643a2053656e646572206d7573742062652061646d696e46726f73747941756374696f6e2e726573756c7441756374696f6e3a2053656e646572206d7573742062652061646d696e206f7220736d61727420636f6e747261637446726f73747941756374696f6e2e7265636c61696d4554483a2053656e646572206d7573742062652061646d696e536166654d6174683a206d756c7469706c69636174696f6e206f766572666c6f7746726f73747941756374696f6e2e75706461746541756374696f6e456e6454696d653a2053656e646572206d7573742062652061646d696e46726f73747941756374696f6e2e75706461746541756374696f6e5265736572766550726963653a2053656e646572206d7573742062652061646d696e46726f73747941756374696f6e2e63726561746541756374696f6e3a204e6f74206f776e657220616e64206f7220636f6e7472616374206e6f7420617070726f76656446726f73747941756374696f6e2e7570646174654d696e426964496e6372656d656e743a2053656e646572206d7573742062652061646d696e46726f73747941756374696f6e2e63726561746541756374696f6e3a20456e642074696d65207061737365642e204e6f626f64792063616e206269642e46726f73747941756374696f6e2e77697468647261774269643a20506173742061756374696f6e20656e6446726f73747941756374696f6e2e75706461746541756374696f6e456e6454696d653a20456e642074696d65206d7573742062652067726561746572207468616e20737461727446726f73747941756374696f6e2e726573756c7441756374696f6e3a2061756374696f6e20616c726561647920726573756c74656446726f73747941756374696f6e2e75706461746541756374696f6e5265736572766550726963653a204e6f2041756374696f6e2065786973747346726f73747941756374696f6e2e7570646174654269645769746864726177616c4c6f636b54696d653a2053656e646572206d7573742062652061646d696e46726f73747941756374696f6e2e726573756c7441756374696f6e3a205468652061756374696f6e20686173206e6f7420656e64656446726f73747941756374696f6e2e63726561746541756374696f6e3a2043616e6e6f742072656c69737446726f73747941756374696f6e2e75706461746541756374696f6e456e6454696d653a204e6f2041756374696f6e2065786973747346726f73747941756374696f6e2e5f726566756e64486967686573744269646465723a206661696c656420746f20726566756e642070726576696f75732062696464657246726f73747941756374696f6e2e77697468647261774269643a2043616e6e6f7420776974686472617720756e74696c206c6f636b2074696d65206861732070617373656446726f73747941756374696f6e2e63616e63656c41756374696f6e3a2053656e646572206d7573742062652061646d696e206f7220736d61727420636f6e747261637446726f73747941756374696f6e2e706c6163654269643a204661696c656420746f206f7574626964206869676865737420626964646572a264697066735822122045605480e6952cc08a293bc7d335b36e933d1e3229f934831b4c14ef30717f5564736f6c634300060c003346726f73747941756374696f6e3a20496e76616c69642041636365737320436f6e74726f6c7346726f73747941756374696f6e3a20496e76616c696420506c6174666f726d2046656520526563697069656e74",
  "linkReferences": {},
  "deployedLinkReferences": {}
}